{
	"contracts/MultiModifierVault.sol": {
		"TipJarWithModifiers": {
			"abi": [
				{
					"inputs": [],
					"stateMutability": "nonpayable",
					"type": "constructor"
				},
				{
					"inputs": [],
					"name": "balance",
					"outputs": [
						{
							"internalType": "uint256",
							"name": "",
							"type": "uint256"
						}
					],
					"stateMutability": "view",
					"type": "function"
				},
				{
					"inputs": [],
					"name": "deposit",
					"outputs": [],
					"stateMutability": "payable",
					"type": "function"
				},
				{
					"inputs": [],
					"name": "owner",
					"outputs": [
						{
							"internalType": "address",
							"name": "",
							"type": "address"
						}
					],
					"stateMutability": "view",
					"type": "function"
				},
				{
					"inputs": [],
					"name": "pause",
					"outputs": [],
					"stateMutability": "nonpayable",
					"type": "function"
				},
				{
					"inputs": [],
					"name": "paused",
					"outputs": [
						{
							"internalType": "bool",
							"name": "",
							"type": "bool"
						}
					],
					"stateMutability": "view",
					"type": "function"
				},
				{
					"inputs": [],
					"name": "unpause",
					"outputs": [],
					"stateMutability": "nonpayable",
					"type": "function"
				},
				{
					"inputs": [],
					"name": "withdrawAll",
					"outputs": [],
					"stateMutability": "nonpayable",
					"type": "function"
				}
			],
			"devdoc": {
				"kind": "dev",
				"methods": {},
				"version": 1
			},
			"evm": {
				"assembly": "    /* \"contracts/MultiModifierVault.sol\":99:1076  contract TipJarWithModifiers {... */\n  mstore(0x40, 0x80)\n    /* \"contracts/MultiModifierVault.sol\":215:291  constructor() {... */\n  callvalue\n  dup1\n  iszero\n  tag_1\n  jumpi\n  0x00\n  dup1\n  revert\ntag_1:\n  pop\n    /* \"contracts/MultiModifierVault.sol\":248:258  msg.sender */\n  caller\n    /* \"contracts/MultiModifierVault.sol\":240:245  owner */\n  0x00\n  dup1\n    /* \"contracts/MultiModifierVault.sol\":240:258  owner = msg.sender */\n  0x0100\n  exp\n  dup2\n  sload\n  dup2\n  0xffffffffffffffffffffffffffffffffffffffff\n  mul\n  not\n  and\n  swap1\n  dup4\n  0xffffffffffffffffffffffffffffffffffffffff\n  and\n  mul\n  or\n  swap1\n  sstore\n  pop\n    /* \"contracts/MultiModifierVault.sol\":278:283  false */\n  0x00\n    /* \"contracts/MultiModifierVault.sol\":269:275  paused */\n  dup1\n  0x14\n    /* \"contracts/MultiModifierVault.sol\":269:283  paused = false */\n  0x0100\n  exp\n  dup2\n  sload\n  dup2\n  0xff\n  mul\n  not\n  and\n  swap1\n  dup4\n  iszero\n  iszero\n  mul\n  or\n  swap1\n  sstore\n  pop\n    /* \"contracts/MultiModifierVault.sol\":99:1076  contract TipJarWithModifiers {... */\n  dataSize(sub_0)\n  dup1\n  dataOffset(sub_0)\n  0x00\n  codecopy\n  0x00\n  return\nstop\n\nsub_0: assembly {\n        /* \"contracts/MultiModifierVault.sol\":99:1076  contract TipJarWithModifiers {... */\n      mstore(0x40, 0x80)\n      jumpi(tag_1, lt(calldatasize, 0x04))\n      shr(0xe0, calldataload(0x00))\n      dup1\n      0x853828b6\n      gt\n      tag_9\n      jumpi\n      dup1\n      0x853828b6\n      eq\n      tag_5\n      jumpi\n      dup1\n      0x8da5cb5b\n      eq\n      tag_6\n      jumpi\n      dup1\n      0xb69ef8a8\n      eq\n      tag_7\n      jumpi\n      dup1\n      0xd0e30db0\n      eq\n      tag_8\n      jumpi\n      jump(tag_1)\n    tag_9:\n      dup1\n      0x3f4ba83a\n      eq\n      tag_2\n      jumpi\n      dup1\n      0x5c975abb\n      eq\n      tag_3\n      jumpi\n      dup1\n      0x8456cb59\n      eq\n      tag_4\n      jumpi\n    tag_1:\n      0x00\n      dup1\n      revert\n        /* \"contracts/MultiModifierVault.sol\":678:747  function unpause() public onlyOwner {... */\n    tag_2:\n      callvalue\n      dup1\n      iszero\n      tag_10\n      jumpi\n      0x00\n      dup1\n      revert\n    tag_10:\n      pop\n      tag_11\n      tag_12\n      jump\t// in\n    tag_11:\n      stop\n        /* \"contracts/MultiModifierVault.sol\":162:180  bool public paused */\n    tag_3:\n      callvalue\n      dup1\n      iszero\n      tag_13\n      jumpi\n      0x00\n      dup1\n      revert\n    tag_13:\n      pop\n      tag_14\n      tag_15\n      jump\t// in\n    tag_14:\n      mload(0x40)\n      tag_16\n      swap2\n      swap1\n      tag_17\n      jump\t// in\n    tag_16:\n      mload(0x40)\n      dup1\n      swap2\n      sub\n      swap1\n      return\n        /* \"contracts/MultiModifierVault.sol\":604:670  function pause() public onlyOwner {... */\n    tag_4:\n      callvalue\n      dup1\n      iszero\n      tag_18\n      jumpi\n      0x00\n      dup1\n      revert\n    tag_18:\n      pop\n      tag_19\n      tag_20\n      jump\t// in\n    tag_19:\n      stop\n        /* \"contracts/MultiModifierVault.sol\":946:1073  function withdrawAll() public onlyOwner whenNotPaused {... */\n    tag_5:\n      callvalue\n      dup1\n      iszero\n      tag_21\n      jumpi\n      0x00\n      dup1\n      revert\n    tag_21:\n      pop\n      tag_22\n      tag_23\n      jump\t// in\n    tag_22:\n      stop\n        /* \"contracts/MultiModifierVault.sol\":135:155  address public owner */\n    tag_6:\n      callvalue\n      dup1\n      iszero\n      tag_24\n      jumpi\n      0x00\n      dup1\n      revert\n    tag_24:\n      pop\n      tag_25\n      tag_26\n      jump\t// in\n    tag_25:\n      mload(0x40)\n      tag_27\n      swap2\n      swap1\n      tag_28\n      jump\t// in\n    tag_27:\n      mload(0x40)\n      dup1\n      swap2\n      sub\n      swap1\n      return\n        /* \"contracts/MultiModifierVault.sol\":187:206  uint public balance */\n    tag_7:\n      callvalue\n      dup1\n      iszero\n      tag_29\n      jumpi\n      0x00\n      dup1\n      revert\n    tag_29:\n      pop\n      tag_30\n      tag_31\n      jump\t// in\n    tag_30:\n      mload(0x40)\n      tag_32\n      swap2\n      swap1\n      tag_33\n      jump\t// in\n    tag_32:\n      mload(0x40)\n      dup1\n      swap2\n      sub\n      swap1\n      return\n        /* \"contracts/MultiModifierVault.sol\":805:911  function deposit() public payable whenNotPaused minAmount(1 ether) {... */\n    tag_8:\n      tag_34\n      tag_35\n      jump\t// in\n    tag_34:\n      stop\n        /* \"contracts/MultiModifierVault.sol\":678:747  function unpause() public onlyOwner {... */\n    tag_12:\n        /* \"contracts/MultiModifierVault.sol\":353:358  owner */\n      0x00\n      dup1\n      sload\n      swap1\n      0x0100\n      exp\n      swap1\n      div\n      0xffffffffffffffffffffffffffffffffffffffff\n      and\n        /* \"contracts/MultiModifierVault.sol\":339:358  msg.sender == owner */\n      0xffffffffffffffffffffffffffffffffffffffff\n      and\n        /* \"contracts/MultiModifierVault.sol\":339:349  msg.sender */\n      caller\n        /* \"contracts/MultiModifierVault.sol\":339:358  msg.sender == owner */\n      0xffffffffffffffffffffffffffffffffffffffff\n      and\n      eq\n        /* \"contracts/MultiModifierVault.sol\":331:373  require(msg.sender == owner, \"Only owner\") */\n      tag_37\n      jumpi\n      mload(0x40)\n      0x08c379a000000000000000000000000000000000000000000000000000000000\n      dup2\n      mstore\n      0x04\n      add\n      tag_38\n      swap1\n      tag_39\n      jump\t// in\n    tag_38:\n      mload(0x40)\n      dup1\n      swap2\n      sub\n      swap1\n      revert\n    tag_37:\n        /* \"contracts/MultiModifierVault.sol\":734:739  false */\n      0x00\n        /* \"contracts/MultiModifierVault.sol\":725:731  paused */\n      dup1\n      0x14\n        /* \"contracts/MultiModifierVault.sol\":725:739  paused = false */\n      0x0100\n      exp\n      dup2\n      sload\n      dup2\n      0xff\n      mul\n      not\n      and\n      swap1\n      dup4\n      iszero\n      iszero\n      mul\n      or\n      swap1\n      sstore\n      pop\n        /* \"contracts/MultiModifierVault.sol\":678:747  function unpause() public onlyOwner {... */\n      jump\t// out\n        /* \"contracts/MultiModifierVault.sol\":162:180  bool public paused */\n    tag_15:\n      0x00\n      0x14\n      swap1\n      sload\n      swap1\n      0x0100\n      exp\n      swap1\n      div\n      0xff\n      and\n      dup2\n      jump\t// out\n        /* \"contracts/MultiModifierVault.sol\":604:670  function pause() public onlyOwner {... */\n    tag_20:\n        /* \"contracts/MultiModifierVault.sol\":353:358  owner */\n      0x00\n      dup1\n      sload\n      swap1\n      0x0100\n      exp\n      swap1\n      div\n      0xffffffffffffffffffffffffffffffffffffffff\n      and\n        /* \"contracts/MultiModifierVault.sol\":339:358  msg.sender == owner */\n      0xffffffffffffffffffffffffffffffffffffffff\n      and\n        /* \"contracts/MultiModifierVault.sol\":339:349  msg.sender */\n      caller\n        /* \"contracts/MultiModifierVault.sol\":339:358  msg.sender == owner */\n      0xffffffffffffffffffffffffffffffffffffffff\n      and\n      eq\n        /* \"contracts/MultiModifierVault.sol\":331:373  require(msg.sender == owner, \"Only owner\") */\n      tag_42\n      jumpi\n      mload(0x40)\n      0x08c379a000000000000000000000000000000000000000000000000000000000\n      dup2\n      mstore\n      0x04\n      add\n      tag_43\n      swap1\n      tag_39\n      jump\t// in\n    tag_43:\n      mload(0x40)\n      dup1\n      swap2\n      sub\n      swap1\n      revert\n    tag_42:\n        /* \"contracts/MultiModifierVault.sol\":658:662  true */\n      0x01\n        /* \"contracts/MultiModifierVault.sol\":649:655  paused */\n      0x00\n      0x14\n        /* \"contracts/MultiModifierVault.sol\":649:662  paused = true */\n      0x0100\n      exp\n      dup2\n      sload\n      dup2\n      0xff\n      mul\n      not\n      and\n      swap1\n      dup4\n      iszero\n      iszero\n      mul\n      or\n      swap1\n      sstore\n      pop\n        /* \"contracts/MultiModifierVault.sol\":604:670  function pause() public onlyOwner {... */\n      jump\t// out\n        /* \"contracts/MultiModifierVault.sol\":946:1073  function withdrawAll() public onlyOwner whenNotPaused {... */\n    tag_23:\n        /* \"contracts/MultiModifierVault.sol\":353:358  owner */\n      0x00\n      dup1\n      sload\n      swap1\n      0x0100\n      exp\n      swap1\n      div\n      0xffffffffffffffffffffffffffffffffffffffff\n      and\n        /* \"contracts/MultiModifierVault.sol\":339:358  msg.sender == owner */\n      0xffffffffffffffffffffffffffffffffffffffff\n      and\n        /* \"contracts/MultiModifierVault.sol\":339:349  msg.sender */\n      caller\n        /* \"contracts/MultiModifierVault.sol\":339:358  msg.sender == owner */\n      0xffffffffffffffffffffffffffffffffffffffff\n      and\n      eq\n        /* \"contracts/MultiModifierVault.sol\":331:373  require(msg.sender == owner, \"Only owner\") */\n      tag_46\n      jumpi\n      mload(0x40)\n      0x08c379a000000000000000000000000000000000000000000000000000000000\n      dup2\n      mstore\n      0x04\n      add\n      tag_47\n      swap1\n      tag_39\n      jump\t// in\n    tag_47:\n      mload(0x40)\n      dup1\n      swap2\n      sub\n      swap1\n      revert\n    tag_46:\n        /* \"contracts/MultiModifierVault.sol\":446:452  paused */\n      0x00\n      0x14\n      swap1\n      sload\n      swap1\n      0x0100\n      exp\n      swap1\n      div\n      0xff\n      and\n        /* \"contracts/MultiModifierVault.sol\":445:452  !paused */\n      iszero\n        /* \"contracts/MultiModifierVault.sol\":437:463  require(!paused, \"Paused\") */\n      tag_49\n      jumpi\n      mload(0x40)\n      0x08c379a000000000000000000000000000000000000000000000000000000000\n      dup2\n      mstore\n      0x04\n      add\n      tag_50\n      swap1\n      tag_51\n      jump\t// in\n    tag_50:\n      mload(0x40)\n      dup1\n      swap2\n      sub\n      swap1\n      revert\n    tag_49:\n        /* \"contracts/MultiModifierVault.sol\":1019:1024  owner */\n      0x00\n      dup1\n      sload\n      swap1\n      0x0100\n      exp\n      swap1\n      div\n      0xffffffffffffffffffffffffffffffffffffffff\n      and\n        /* \"contracts/MultiModifierVault.sol\":1011:1034  payable(owner).transfer */\n      0xffffffffffffffffffffffffffffffffffffffff\n      and\n        /* \"contracts/MultiModifierVault.sol\":1011:1043  payable(owner).transfer(balance) */\n      0x08fc\n        /* \"contracts/MultiModifierVault.sol\":1035:1042  balance */\n      sload(0x01)\n        /* \"contracts/MultiModifierVault.sol\":1011:1043  payable(owner).transfer(balance) */\n      swap1\n      dup2\n      iszero\n      mul\n      swap1\n      mload(0x40)\n      0x00\n      mload(0x40)\n      dup1\n      dup4\n      sub\n      dup2\n      dup6\n      dup9\n      dup9\n      call\n      swap4\n      pop\n      pop\n      pop\n      pop\n      iszero\n      dup1\n      iszero\n      tag_54\n      jumpi\n      returndatasize\n      0x00\n      dup1\n      returndatacopy\n      revert(0x00, returndatasize)\n    tag_54:\n      pop\n        /* \"contracts/MultiModifierVault.sol\":1064:1065  0 */\n      0x00\n        /* \"contracts/MultiModifierVault.sol\":1054:1061  balance */\n      0x01\n        /* \"contracts/MultiModifierVault.sol\":1054:1065  balance = 0 */\n      dup2\n      swap1\n      sstore\n      pop\n        /* \"contracts/MultiModifierVault.sol\":946:1073  function withdrawAll() public onlyOwner whenNotPaused {... */\n      jump\t// out\n        /* \"contracts/MultiModifierVault.sol\":135:155  address public owner */\n    tag_26:\n      0x00\n      dup1\n      sload\n      swap1\n      0x0100\n      exp\n      swap1\n      div\n      0xffffffffffffffffffffffffffffffffffffffff\n      and\n      dup2\n      jump\t// out\n        /* \"contracts/MultiModifierVault.sol\":187:206  uint public balance */\n    tag_31:\n      sload(0x01)\n      dup2\n      jump\t// out\n        /* \"contracts/MultiModifierVault.sol\":805:911  function deposit() public payable whenNotPaused minAmount(1 ether) {... */\n    tag_35:\n        /* \"contracts/MultiModifierVault.sol\":446:452  paused */\n      0x00\n      0x14\n      swap1\n      sload\n      swap1\n      0x0100\n      exp\n      swap1\n      div\n      0xff\n      and\n        /* \"contracts/MultiModifierVault.sol\":445:452  !paused */\n      iszero\n        /* \"contracts/MultiModifierVault.sol\":437:463  require(!paused, \"Paused\") */\n      tag_56\n      jumpi\n      mload(0x40)\n      0x08c379a000000000000000000000000000000000000000000000000000000000\n      dup2\n      mstore\n      0x04\n      add\n      tag_57\n      swap1\n      tag_51\n      jump\t// in\n    tag_57:\n      mload(0x40)\n      dup1\n      swap2\n      sub\n      swap1\n      revert\n    tag_56:\n        /* \"contracts/MultiModifierVault.sol\":863:870  1 ether */\n      0x0de0b6b3a7640000\n        /* \"contracts/MultiModifierVault.sol\":553:557  _min */\n      dup1\n        /* \"contracts/MultiModifierVault.sol\":540:549  msg.value */\n      callvalue\n        /* \"contracts/MultiModifierVault.sol\":540:557  msg.value >= _min */\n      lt\n      iszero\n        /* \"contracts/MultiModifierVault.sol\":532:576  require(msg.value >= _min, \"Amount too low\") */\n      tag_59\n      jumpi\n      mload(0x40)\n      0x08c379a000000000000000000000000000000000000000000000000000000000\n      dup2\n      mstore\n      0x04\n      add\n      tag_60\n      swap1\n      tag_61\n      jump\t// in\n    tag_60:\n      mload(0x40)\n      dup1\n      swap2\n      sub\n      swap1\n      revert\n    tag_59:\n        /* \"contracts/MultiModifierVault.sol\":894:903  msg.value */\n      callvalue\n        /* \"contracts/MultiModifierVault.sol\":883:890  balance */\n      0x01\n      0x00\n        /* \"contracts/MultiModifierVault.sol\":883:903  balance += msg.value */\n      dup3\n      dup3\n      sload\n      tag_63\n      swap2\n      swap1\n      tag_64\n      jump\t// in\n    tag_63:\n      swap3\n      pop\n      pop\n      dup2\n      swap1\n      sstore\n      pop\n        /* \"contracts/MultiModifierVault.sol\":474:475  _ */\n      pop\n        /* \"contracts/MultiModifierVault.sol\":805:911  function deposit() public payable whenNotPaused minAmount(1 ether) {... */\n      jump\t// out\n        /* \"#utility.yul\":7:97   */\n    tag_65:\n        /* \"#utility.yul\":41:48   */\n      0x00\n        /* \"#utility.yul\":84:89   */\n      dup2\n        /* \"#utility.yul\":77:90   */\n      iszero\n        /* \"#utility.yul\":70:91   */\n      iszero\n        /* \"#utility.yul\":59:91   */\n      swap1\n      pop\n        /* \"#utility.yul\":7:97   */\n      swap2\n      swap1\n      pop\n      jump\t// out\n        /* \"#utility.yul\":103:212   */\n    tag_66:\n        /* \"#utility.yul\":184:205   */\n      tag_83\n        /* \"#utility.yul\":199:204   */\n      dup2\n        /* \"#utility.yul\":184:205   */\n      tag_65\n      jump\t// in\n    tag_83:\n        /* \"#utility.yul\":179:182   */\n      dup3\n        /* \"#utility.yul\":172:206   */\n      mstore\n        /* \"#utility.yul\":103:212   */\n      pop\n      pop\n      jump\t// out\n        /* \"#utility.yul\":218:428   */\n    tag_17:\n        /* \"#utility.yul\":305:309   */\n      0x00\n        /* \"#utility.yul\":343:345   */\n      0x20\n        /* \"#utility.yul\":332:341   */\n      dup3\n        /* \"#utility.yul\":328:346   */\n      add\n        /* \"#utility.yul\":320:346   */\n      swap1\n      pop\n        /* \"#utility.yul\":356:421   */\n      tag_85\n        /* \"#utility.yul\":418:419   */\n      0x00\n        /* \"#utility.yul\":407:416   */\n      dup4\n        /* \"#utility.yul\":403:420   */\n      add\n        /* \"#utility.yul\":394:400   */\n      dup5\n        /* \"#utility.yul\":356:421   */\n      tag_66\n      jump\t// in\n    tag_85:\n        /* \"#utility.yul\":218:428   */\n      swap3\n      swap2\n      pop\n      pop\n      jump\t// out\n        /* \"#utility.yul\":434:560   */\n    tag_67:\n        /* \"#utility.yul\":471:478   */\n      0x00\n        /* \"#utility.yul\":511:553   */\n      0xffffffffffffffffffffffffffffffffffffffff\n        /* \"#utility.yul\":504:509   */\n      dup3\n        /* \"#utility.yul\":500:554   */\n      and\n        /* \"#utility.yul\":489:554   */\n      swap1\n      pop\n        /* \"#utility.yul\":434:560   */\n      swap2\n      swap1\n      pop\n      jump\t// out\n        /* \"#utility.yul\":566:662   */\n    tag_68:\n        /* \"#utility.yul\":603:610   */\n      0x00\n        /* \"#utility.yul\":632:656   */\n      tag_88\n        /* \"#utility.yul\":650:655   */\n      dup3\n        /* \"#utility.yul\":632:656   */\n      tag_67\n      jump\t// in\n    tag_88:\n        /* \"#utility.yul\":621:656   */\n      swap1\n      pop\n        /* \"#utility.yul\":566:662   */\n      swap2\n      swap1\n      pop\n      jump\t// out\n        /* \"#utility.yul\":668:786   */\n    tag_69:\n        /* \"#utility.yul\":755:779   */\n      tag_90\n        /* \"#utility.yul\":773:778   */\n      dup2\n        /* \"#utility.yul\":755:779   */\n      tag_68\n      jump\t// in\n    tag_90:\n        /* \"#utility.yul\":750:753   */\n      dup3\n        /* \"#utility.yul\":743:780   */\n      mstore\n        /* \"#utility.yul\":668:786   */\n      pop\n      pop\n      jump\t// out\n        /* \"#utility.yul\":792:1014   */\n    tag_28:\n        /* \"#utility.yul\":885:889   */\n      0x00\n        /* \"#utility.yul\":923:925   */\n      0x20\n        /* \"#utility.yul\":912:921   */\n      dup3\n        /* \"#utility.yul\":908:926   */\n      add\n        /* \"#utility.yul\":900:926   */\n      swap1\n      pop\n        /* \"#utility.yul\":936:1007   */\n      tag_92\n        /* \"#utility.yul\":1004:1005   */\n      0x00\n        /* \"#utility.yul\":993:1002   */\n      dup4\n        /* \"#utility.yul\":989:1006   */\n      add\n        /* \"#utility.yul\":980:986   */\n      dup5\n        /* \"#utility.yul\":936:1007   */\n      tag_69\n      jump\t// in\n    tag_92:\n        /* \"#utility.yul\":792:1014   */\n      swap3\n      swap2\n      pop\n      pop\n      jump\t// out\n        /* \"#utility.yul\":1020:1097   */\n    tag_70:\n        /* \"#utility.yul\":1057:1064   */\n      0x00\n        /* \"#utility.yul\":1086:1091   */\n      dup2\n        /* \"#utility.yul\":1075:1091   */\n      swap1\n      pop\n        /* \"#utility.yul\":1020:1097   */\n      swap2\n      swap1\n      pop\n      jump\t// out\n        /* \"#utility.yul\":1103:1221   */\n    tag_71:\n        /* \"#utility.yul\":1190:1214   */\n      tag_95\n        /* \"#utility.yul\":1208:1213   */\n      dup2\n        /* \"#utility.yul\":1190:1214   */\n      tag_70\n      jump\t// in\n    tag_95:\n        /* \"#utility.yul\":1185:1188   */\n      dup3\n        /* \"#utility.yul\":1178:1215   */\n      mstore\n        /* \"#utility.yul\":1103:1221   */\n      pop\n      pop\n      jump\t// out\n        /* \"#utility.yul\":1227:1449   */\n    tag_33:\n        /* \"#utility.yul\":1320:1324   */\n      0x00\n        /* \"#utility.yul\":1358:1360   */\n      0x20\n        /* \"#utility.yul\":1347:1356   */\n      dup3\n        /* \"#utility.yul\":1343:1361   */\n      add\n        /* \"#utility.yul\":1335:1361   */\n      swap1\n      pop\n        /* \"#utility.yul\":1371:1442   */\n      tag_97\n        /* \"#utility.yul\":1439:1440   */\n      0x00\n        /* \"#utility.yul\":1428:1437   */\n      dup4\n        /* \"#utility.yul\":1424:1441   */\n      add\n        /* \"#utility.yul\":1415:1421   */\n      dup5\n        /* \"#utility.yul\":1371:1442   */\n      tag_71\n      jump\t// in\n    tag_97:\n        /* \"#utility.yul\":1227:1449   */\n      swap3\n      swap2\n      pop\n      pop\n      jump\t// out\n        /* \"#utility.yul\":1455:1624   */\n    tag_72:\n        /* \"#utility.yul\":1539:1550   */\n      0x00\n        /* \"#utility.yul\":1573:1579   */\n      dup3\n        /* \"#utility.yul\":1568:1571   */\n      dup3\n        /* \"#utility.yul\":1561:1580   */\n      mstore\n        /* \"#utility.yul\":1613:1617   */\n      0x20\n        /* \"#utility.yul\":1608:1611   */\n      dup3\n        /* \"#utility.yul\":1604:1618   */\n      add\n        /* \"#utility.yul\":1589:1618   */\n      swap1\n      pop\n        /* \"#utility.yul\":1455:1624   */\n      swap3\n      swap2\n      pop\n      pop\n      jump\t// out\n        /* \"#utility.yul\":1630:1790   */\n    tag_73:\n        /* \"#utility.yul\":1770:1782   */\n      0x4f6e6c79206f776e657200000000000000000000000000000000000000000000\n        /* \"#utility.yul\":1766:1767   */\n      0x00\n        /* \"#utility.yul\":1758:1764   */\n      dup3\n        /* \"#utility.yul\":1754:1768   */\n      add\n        /* \"#utility.yul\":1747:1783   */\n      mstore\n        /* \"#utility.yul\":1630:1790   */\n      pop\n      jump\t// out\n        /* \"#utility.yul\":1796:2162   */\n    tag_74:\n        /* \"#utility.yul\":1938:1941   */\n      0x00\n        /* \"#utility.yul\":1959:2026   */\n      tag_101\n        /* \"#utility.yul\":2023:2025   */\n      0x0a\n        /* \"#utility.yul\":2018:2021   */\n      dup4\n        /* \"#utility.yul\":1959:2026   */\n      tag_72\n      jump\t// in\n    tag_101:\n        /* \"#utility.yul\":1952:2026   */\n      swap2\n      pop\n        /* \"#utility.yul\":2035:2128   */\n      tag_102\n        /* \"#utility.yul\":2124:2127   */\n      dup3\n        /* \"#utility.yul\":2035:2128   */\n      tag_73\n      jump\t// in\n    tag_102:\n        /* \"#utility.yul\":2153:2155   */\n      0x20\n        /* \"#utility.yul\":2148:2151   */\n      dup3\n        /* \"#utility.yul\":2144:2156   */\n      add\n        /* \"#utility.yul\":2137:2156   */\n      swap1\n      pop\n        /* \"#utility.yul\":1796:2162   */\n      swap2\n      swap1\n      pop\n      jump\t// out\n        /* \"#utility.yul\":2168:2587   */\n    tag_39:\n        /* \"#utility.yul\":2334:2338   */\n      0x00\n        /* \"#utility.yul\":2372:2374   */\n      0x20\n        /* \"#utility.yul\":2361:2370   */\n      dup3\n        /* \"#utility.yul\":2357:2375   */\n      add\n        /* \"#utility.yul\":2349:2375   */\n      swap1\n      pop\n        /* \"#utility.yul\":2421:2430   */\n      dup2\n        /* \"#utility.yul\":2415:2419   */\n      dup2\n        /* \"#utility.yul\":2411:2431   */\n      sub\n        /* \"#utility.yul\":2407:2408   */\n      0x00\n        /* \"#utility.yul\":2396:2405   */\n      dup4\n        /* \"#utility.yul\":2392:2409   */\n      add\n        /* \"#utility.yul\":2385:2432   */\n      mstore\n        /* \"#utility.yul\":2449:2580   */\n      tag_104\n        /* \"#utility.yul\":2575:2579   */\n      dup2\n        /* \"#utility.yul\":2449:2580   */\n      tag_74\n      jump\t// in\n    tag_104:\n        /* \"#utility.yul\":2441:2580   */\n      swap1\n      pop\n        /* \"#utility.yul\":2168:2587   */\n      swap2\n      swap1\n      pop\n      jump\t// out\n        /* \"#utility.yul\":2593:2749   */\n    tag_75:\n        /* \"#utility.yul\":2733:2741   */\n      0x5061757365640000000000000000000000000000000000000000000000000000\n        /* \"#utility.yul\":2729:2730   */\n      0x00\n        /* \"#utility.yul\":2721:2727   */\n      dup3\n        /* \"#utility.yul\":2717:2731   */\n      add\n        /* \"#utility.yul\":2710:2742   */\n      mstore\n        /* \"#utility.yul\":2593:2749   */\n      pop\n      jump\t// out\n        /* \"#utility.yul\":2755:3120   */\n    tag_76:\n        /* \"#utility.yul\":2897:2900   */\n      0x00\n        /* \"#utility.yul\":2918:2984   */\n      tag_107\n        /* \"#utility.yul\":2982:2983   */\n      0x06\n        /* \"#utility.yul\":2977:2980   */\n      dup4\n        /* \"#utility.yul\":2918:2984   */\n      tag_72\n      jump\t// in\n    tag_107:\n        /* \"#utility.yul\":2911:2984   */\n      swap2\n      pop\n        /* \"#utility.yul\":2993:3086   */\n      tag_108\n        /* \"#utility.yul\":3082:3085   */\n      dup3\n        /* \"#utility.yul\":2993:3086   */\n      tag_75\n      jump\t// in\n    tag_108:\n        /* \"#utility.yul\":3111:3113   */\n      0x20\n        /* \"#utility.yul\":3106:3109   */\n      dup3\n        /* \"#utility.yul\":3102:3114   */\n      add\n        /* \"#utility.yul\":3095:3114   */\n      swap1\n      pop\n        /* \"#utility.yul\":2755:3120   */\n      swap2\n      swap1\n      pop\n      jump\t// out\n        /* \"#utility.yul\":3126:3545   */\n    tag_51:\n        /* \"#utility.yul\":3292:3296   */\n      0x00\n        /* \"#utility.yul\":3330:3332   */\n      0x20\n        /* \"#utility.yul\":3319:3328   */\n      dup3\n        /* \"#utility.yul\":3315:3333   */\n      add\n        /* \"#utility.yul\":3307:3333   */\n      swap1\n      pop\n        /* \"#utility.yul\":3379:3388   */\n      dup2\n        /* \"#utility.yul\":3373:3377   */\n      dup2\n        /* \"#utility.yul\":3369:3389   */\n      sub\n        /* \"#utility.yul\":3365:3366   */\n      0x00\n        /* \"#utility.yul\":3354:3363   */\n      dup4\n        /* \"#utility.yul\":3350:3367   */\n      add\n        /* \"#utility.yul\":3343:3390   */\n      mstore\n        /* \"#utility.yul\":3407:3538   */\n      tag_110\n        /* \"#utility.yul\":3533:3537   */\n      dup2\n        /* \"#utility.yul\":3407:3538   */\n      tag_76\n      jump\t// in\n    tag_110:\n        /* \"#utility.yul\":3399:3538   */\n      swap1\n      pop\n        /* \"#utility.yul\":3126:3545   */\n      swap2\n      swap1\n      pop\n      jump\t// out\n        /* \"#utility.yul\":3551:3715   */\n    tag_77:\n        /* \"#utility.yul\":3691:3707   */\n      0x416d6f756e7420746f6f206c6f77000000000000000000000000000000000000\n        /* \"#utility.yul\":3687:3688   */\n      0x00\n        /* \"#utility.yul\":3679:3685   */\n      dup3\n        /* \"#utility.yul\":3675:3689   */\n      add\n        /* \"#utility.yul\":3668:3708   */\n      mstore\n        /* \"#utility.yul\":3551:3715   */\n      pop\n      jump\t// out\n        /* \"#utility.yul\":3721:4087   */\n    tag_78:\n        /* \"#utility.yul\":3863:3866   */\n      0x00\n        /* \"#utility.yul\":3884:3951   */\n      tag_113\n        /* \"#utility.yul\":3948:3950   */\n      0x0e\n        /* \"#utility.yul\":3943:3946   */\n      dup4\n        /* \"#utility.yul\":3884:3951   */\n      tag_72\n      jump\t// in\n    tag_113:\n        /* \"#utility.yul\":3877:3951   */\n      swap2\n      pop\n        /* \"#utility.yul\":3960:4053   */\n      tag_114\n        /* \"#utility.yul\":4049:4052   */\n      dup3\n        /* \"#utility.yul\":3960:4053   */\n      tag_77\n      jump\t// in\n    tag_114:\n        /* \"#utility.yul\":4078:4080   */\n      0x20\n        /* \"#utility.yul\":4073:4076   */\n      dup3\n        /* \"#utility.yul\":4069:4081   */\n      add\n        /* \"#utility.yul\":4062:4081   */\n      swap1\n      pop\n        /* \"#utility.yul\":3721:4087   */\n      swap2\n      swap1\n      pop\n      jump\t// out\n        /* \"#utility.yul\":4093:4512   */\n    tag_61:\n        /* \"#utility.yul\":4259:4263   */\n      0x00\n        /* \"#utility.yul\":4297:4299   */\n      0x20\n        /* \"#utility.yul\":4286:4295   */\n      dup3\n        /* \"#utility.yul\":4282:4300   */\n      add\n        /* \"#utility.yul\":4274:4300   */\n      swap1\n      pop\n        /* \"#utility.yul\":4346:4355   */\n      dup2\n        /* \"#utility.yul\":4340:4344   */\n      dup2\n        /* \"#utility.yul\":4336:4356   */\n      sub\n        /* \"#utility.yul\":4332:4333   */\n      0x00\n        /* \"#utility.yul\":4321:4330   */\n      dup4\n        /* \"#utility.yul\":4317:4334   */\n      add\n        /* \"#utility.yul\":4310:4357   */\n      mstore\n        /* \"#utility.yul\":4374:4505   */\n      tag_116\n        /* \"#utility.yul\":4500:4504   */\n      dup2\n        /* \"#utility.yul\":4374:4505   */\n      tag_78\n      jump\t// in\n    tag_116:\n        /* \"#utility.yul\":4366:4505   */\n      swap1\n      pop\n        /* \"#utility.yul\":4093:4512   */\n      swap2\n      swap1\n      pop\n      jump\t// out\n        /* \"#utility.yul\":4518:4698   */\n    tag_79:\n        /* \"#utility.yul\":4566:4643   */\n      0x4e487b7100000000000000000000000000000000000000000000000000000000\n        /* \"#utility.yul\":4563:4564   */\n      0x00\n        /* \"#utility.yul\":4556:4644   */\n      mstore\n        /* \"#utility.yul\":4663:4667   */\n      0x11\n        /* \"#utility.yul\":4660:4661   */\n      0x04\n        /* \"#utility.yul\":4653:4668   */\n      mstore\n        /* \"#utility.yul\":4687:4691   */\n      0x24\n        /* \"#utility.yul\":4684:4685   */\n      0x00\n        /* \"#utility.yul\":4677:4692   */\n      revert\n        /* \"#utility.yul\":4704:4895   */\n    tag_64:\n        /* \"#utility.yul\":4744:4747   */\n      0x00\n        /* \"#utility.yul\":4763:4783   */\n      tag_119\n        /* \"#utility.yul\":4781:4782   */\n      dup3\n        /* \"#utility.yul\":4763:4783   */\n      tag_70\n      jump\t// in\n    tag_119:\n        /* \"#utility.yul\":4758:4783   */\n      swap2\n      pop\n        /* \"#utility.yul\":4797:4817   */\n      tag_120\n        /* \"#utility.yul\":4815:4816   */\n      dup4\n        /* \"#utility.yul\":4797:4817   */\n      tag_70\n      jump\t// in\n    tag_120:\n        /* \"#utility.yul\":4792:4817   */\n      swap3\n      pop\n        /* \"#utility.yul\":4840:4841   */\n      dup3\n        /* \"#utility.yul\":4837:4838   */\n      dup3\n        /* \"#utility.yul\":4833:4842   */\n      add\n        /* \"#utility.yul\":4826:4842   */\n      swap1\n      pop\n        /* \"#utility.yul\":4861:4864   */\n      dup1\n        /* \"#utility.yul\":4858:4859   */\n      dup3\n        /* \"#utility.yul\":4855:4865   */\n      gt\n        /* \"#utility.yul\":4852:4888   */\n      iszero\n      tag_121\n      jumpi\n        /* \"#utility.yul\":4868:4886   */\n      tag_122\n      tag_79\n      jump\t// in\n    tag_122:\n        /* \"#utility.yul\":4852:4888   */\n    tag_121:\n        /* \"#utility.yul\":4704:4895   */\n      swap3\n      swap2\n      pop\n      pop\n      jump\t// out\n\n    auxdata: 0xa2646970667358221220eaadbc709317f9cae3a23f02d68399f0c72b372bbadef31ac180d3eef70b619964736f6c634300081a0033\n}\n",
				"bytecode": {
					"linkReferences": {},
					"object": "6080604052348015600e575f80fd5b50335f806101000a81548173ffffffffffffffffffffffffffffffffffffffff021916908373ffffffffffffffffffffffffffffffffffffffff1602179055505f8060146101000a81548160ff021916908315150217905550610763806100745f395ff3fe60806040526004361061006f575f3560e01c8063853828b61161004d578063853828b6146100c95780638da5cb5b146100df578063b69ef8a814610109578063d0e30db0146101335761006f565b80633f4ba83a146100735780635c975abb146100895780638456cb59146100b3575b5f80fd5b34801561007e575f80fd5b5061008761013d565b005b348015610094575f80fd5b5061009d6101e5565b6040516100aa91906104e3565b60405180910390f35b3480156100be575f80fd5b506100c76101f7565b005b3480156100d4575f80fd5b506100dd6102a0565b005b3480156100ea575f80fd5b506100f36103ea565b604051610100919061053b565b60405180910390f35b348015610114575f80fd5b5061011d61040d565b60405161012a919061056c565b60405180910390f35b61013b610413565b005b5f8054906101000a900473ffffffffffffffffffffffffffffffffffffffff1673ffffffffffffffffffffffffffffffffffffffff163373ffffffffffffffffffffffffffffffffffffffff16146101ca576040517f08c379a00000000000000000000000000000000000000000000000000000000081526004016101c1906105df565b60405180910390fd5b5f8060146101000a81548160ff021916908315150217905550565b5f60149054906101000a900460ff1681565b5f8054906101000a900473ffffffffffffffffffffffffffffffffffffffff1673ffffffffffffffffffffffffffffffffffffffff163373ffffffffffffffffffffffffffffffffffffffff1614610284576040517f08c379a000000000000000000000000000000000000000000000000000000000815260040161027b906105df565b60405180910390fd5b60015f60146101000a81548160ff021916908315150217905550565b5f8054906101000a900473ffffffffffffffffffffffffffffffffffffffff1673ffffffffffffffffffffffffffffffffffffffff163373ffffffffffffffffffffffffffffffffffffffff161461032d576040517f08c379a0000000000000000000000000000000000000000000000000000000008152600401610324906105df565b60405180910390fd5b5f60149054906101000a900460ff161561037c576040517f08c379a000000000000000000000000000000000000000000000000000000000815260040161037390610647565b60405180910390fd5b5f8054906101000a900473ffffffffffffffffffffffffffffffffffffffff1673ffffffffffffffffffffffffffffffffffffffff166108fc60015490811502906040515f60405180830381858888f193505050501580156103e0573d5f803e3d5ffd5b505f600181905550565b5f8054906101000a900473ffffffffffffffffffffffffffffffffffffffff1681565b60015481565b5f60149054906101000a900460ff1615610462576040517f08c379a000000000000000000000000000000000000000000000000000000000815260040161045990610647565b60405180910390fd5b670de0b6b3a7640000803410156104ae576040517f08c379a00000000000000000000000000000000000000000000000000000000081526004016104a5906106af565b60405180910390fd5b3460015f8282546104bf91906106fa565b9250508190555050565b5f8115159050919050565b6104dd816104c9565b82525050565b5f6020820190506104f65f8301846104d4565b92915050565b5f73ffffffffffffffffffffffffffffffffffffffff82169050919050565b5f610525826104fc565b9050919050565b6105358161051b565b82525050565b5f60208201905061054e5f83018461052c565b92915050565b5f819050919050565b61056681610554565b82525050565b5f60208201905061057f5f83018461055d565b92915050565b5f82825260208201905092915050565b7f4f6e6c79206f776e6572000000000000000000000000000000000000000000005f82015250565b5f6105c9600a83610585565b91506105d482610595565b602082019050919050565b5f6020820190508181035f8301526105f6816105bd565b9050919050565b7f50617573656400000000000000000000000000000000000000000000000000005f82015250565b5f610631600683610585565b915061063c826105fd565b602082019050919050565b5f6020820190508181035f83015261065e81610625565b9050919050565b7f416d6f756e7420746f6f206c6f770000000000000000000000000000000000005f82015250565b5f610699600e83610585565b91506106a482610665565b602082019050919050565b5f6020820190508181035f8301526106c68161068d565b9050919050565b7f4e487b71000000000000000000000000000000000000000000000000000000005f52601160045260245ffd5b5f61070482610554565b915061070f83610554565b9250828201905080821115610727576107266106cd565b5b9291505056fea2646970667358221220eaadbc709317f9cae3a23f02d68399f0c72b372bbadef31ac180d3eef70b619964736f6c634300081a0033",
					"opcodes": "PUSH1 0x80 PUSH1 0x40 MSTORE CALLVALUE DUP1 ISZERO PUSH1 0xE JUMPI PUSH0 DUP1 REVERT JUMPDEST POP CALLER PUSH0 DUP1 PUSH2 0x100 EXP DUP2 SLOAD DUP2 PUSH20 0xFFFFFFFFFFFFFFFFFFFFFFFFFFFFFFFFFFFFFFFF MUL NOT AND SWAP1 DUP4 PUSH20 0xFFFFFFFFFFFFFFFFFFFFFFFFFFFFFFFFFFFFFFFF AND MUL OR SWAP1 SSTORE POP PUSH0 DUP1 PUSH1 0x14 PUSH2 0x100 EXP DUP2 SLOAD DUP2 PUSH1 0xFF MUL NOT AND SWAP1 DUP4 ISZERO ISZERO MUL OR SWAP1 SSTORE POP PUSH2 0x763 DUP1 PUSH2 0x74 PUSH0 CODECOPY PUSH0 RETURN INVALID PUSH1 0x80 PUSH1 0x40 MSTORE PUSH1 0x4 CALLDATASIZE LT PUSH2 0x6F JUMPI PUSH0 CALLDATALOAD PUSH1 0xE0 SHR DUP1 PUSH4 0x853828B6 GT PUSH2 0x4D JUMPI DUP1 PUSH4 0x853828B6 EQ PUSH2 0xC9 JUMPI DUP1 PUSH4 0x8DA5CB5B EQ PUSH2 0xDF JUMPI DUP1 PUSH4 0xB69EF8A8 EQ PUSH2 0x109 JUMPI DUP1 PUSH4 0xD0E30DB0 EQ PUSH2 0x133 JUMPI PUSH2 0x6F JUMP JUMPDEST DUP1 PUSH4 0x3F4BA83A EQ PUSH2 0x73 JUMPI DUP1 PUSH4 0x5C975ABB EQ PUSH2 0x89 JUMPI DUP1 PUSH4 0x8456CB59 EQ PUSH2 0xB3 JUMPI JUMPDEST PUSH0 DUP1 REVERT JUMPDEST CALLVALUE DUP1 ISZERO PUSH2 0x7E JUMPI PUSH0 DUP1 REVERT JUMPDEST POP PUSH2 0x87 PUSH2 0x13D JUMP JUMPDEST STOP JUMPDEST CALLVALUE DUP1 ISZERO PUSH2 0x94 JUMPI PUSH0 DUP1 REVERT JUMPDEST POP PUSH2 0x9D PUSH2 0x1E5 JUMP JUMPDEST PUSH1 0x40 MLOAD PUSH2 0xAA SWAP2 SWAP1 PUSH2 0x4E3 JUMP JUMPDEST PUSH1 0x40 MLOAD DUP1 SWAP2 SUB SWAP1 RETURN JUMPDEST CALLVALUE DUP1 ISZERO PUSH2 0xBE JUMPI PUSH0 DUP1 REVERT JUMPDEST POP PUSH2 0xC7 PUSH2 0x1F7 JUMP JUMPDEST STOP JUMPDEST CALLVALUE DUP1 ISZERO PUSH2 0xD4 JUMPI PUSH0 DUP1 REVERT JUMPDEST POP PUSH2 0xDD PUSH2 0x2A0 JUMP JUMPDEST STOP JUMPDEST CALLVALUE DUP1 ISZERO PUSH2 0xEA JUMPI PUSH0 DUP1 REVERT JUMPDEST POP PUSH2 0xF3 PUSH2 0x3EA JUMP JUMPDEST PUSH1 0x40 MLOAD PUSH2 0x100 SWAP2 SWAP1 PUSH2 0x53B JUMP JUMPDEST PUSH1 0x40 MLOAD DUP1 SWAP2 SUB SWAP1 RETURN JUMPDEST CALLVALUE DUP1 ISZERO PUSH2 0x114 JUMPI PUSH0 DUP1 REVERT JUMPDEST POP PUSH2 0x11D PUSH2 0x40D JUMP JUMPDEST PUSH1 0x40 MLOAD PUSH2 0x12A SWAP2 SWAP1 PUSH2 0x56C JUMP JUMPDEST PUSH1 0x40 MLOAD DUP1 SWAP2 SUB SWAP1 RETURN JUMPDEST PUSH2 0x13B PUSH2 0x413 JUMP JUMPDEST STOP JUMPDEST PUSH0 DUP1 SLOAD SWAP1 PUSH2 0x100 EXP SWAP1 DIV PUSH20 0xFFFFFFFFFFFFFFFFFFFFFFFFFFFFFFFFFFFFFFFF AND PUSH20 0xFFFFFFFFFFFFFFFFFFFFFFFFFFFFFFFFFFFFFFFF AND CALLER PUSH20 0xFFFFFFFFFFFFFFFFFFFFFFFFFFFFFFFFFFFFFFFF AND EQ PUSH2 0x1CA JUMPI PUSH1 0x40 MLOAD PUSH32 0x8C379A000000000000000000000000000000000000000000000000000000000 DUP2 MSTORE PUSH1 0x4 ADD PUSH2 0x1C1 SWAP1 PUSH2 0x5DF JUMP JUMPDEST PUSH1 0x40 MLOAD DUP1 SWAP2 SUB SWAP1 REVERT JUMPDEST PUSH0 DUP1 PUSH1 0x14 PUSH2 0x100 EXP DUP2 SLOAD DUP2 PUSH1 0xFF MUL NOT AND SWAP1 DUP4 ISZERO ISZERO MUL OR SWAP1 SSTORE POP JUMP JUMPDEST PUSH0 PUSH1 0x14 SWAP1 SLOAD SWAP1 PUSH2 0x100 EXP SWAP1 DIV PUSH1 0xFF AND DUP2 JUMP JUMPDEST PUSH0 DUP1 SLOAD SWAP1 PUSH2 0x100 EXP SWAP1 DIV PUSH20 0xFFFFFFFFFFFFFFFFFFFFFFFFFFFFFFFFFFFFFFFF AND PUSH20 0xFFFFFFFFFFFFFFFFFFFFFFFFFFFFFFFFFFFFFFFF AND CALLER PUSH20 0xFFFFFFFFFFFFFFFFFFFFFFFFFFFFFFFFFFFFFFFF AND EQ PUSH2 0x284 JUMPI PUSH1 0x40 MLOAD PUSH32 0x8C379A000000000000000000000000000000000000000000000000000000000 DUP2 MSTORE PUSH1 0x4 ADD PUSH2 0x27B SWAP1 PUSH2 0x5DF JUMP JUMPDEST PUSH1 0x40 MLOAD DUP1 SWAP2 SUB SWAP1 REVERT JUMPDEST PUSH1 0x1 PUSH0 PUSH1 0x14 PUSH2 0x100 EXP DUP2 SLOAD DUP2 PUSH1 0xFF MUL NOT AND SWAP1 DUP4 ISZERO ISZERO MUL OR SWAP1 SSTORE POP JUMP JUMPDEST PUSH0 DUP1 SLOAD SWAP1 PUSH2 0x100 EXP SWAP1 DIV PUSH20 0xFFFFFFFFFFFFFFFFFFFFFFFFFFFFFFFFFFFFFFFF AND PUSH20 0xFFFFFFFFFFFFFFFFFFFFFFFFFFFFFFFFFFFFFFFF AND CALLER PUSH20 0xFFFFFFFFFFFFFFFFFFFFFFFFFFFFFFFFFFFFFFFF AND EQ PUSH2 0x32D JUMPI PUSH1 0x40 MLOAD PUSH32 0x8C379A000000000000000000000000000000000000000000000000000000000 DUP2 MSTORE PUSH1 0x4 ADD PUSH2 0x324 SWAP1 PUSH2 0x5DF JUMP JUMPDEST PUSH1 0x40 MLOAD DUP1 SWAP2 SUB SWAP1 REVERT JUMPDEST PUSH0 PUSH1 0x14 SWAP1 SLOAD SWAP1 PUSH2 0x100 EXP SWAP1 DIV PUSH1 0xFF AND ISZERO PUSH2 0x37C JUMPI PUSH1 0x40 MLOAD PUSH32 0x8C379A000000000000000000000000000000000000000000000000000000000 DUP2 MSTORE PUSH1 0x4 ADD PUSH2 0x373 SWAP1 PUSH2 0x647 JUMP JUMPDEST PUSH1 0x40 MLOAD DUP1 SWAP2 SUB SWAP1 REVERT JUMPDEST PUSH0 DUP1 SLOAD SWAP1 PUSH2 0x100 EXP SWAP1 DIV PUSH20 0xFFFFFFFFFFFFFFFFFFFFFFFFFFFFFFFFFFFFFFFF AND PUSH20 0xFFFFFFFFFFFFFFFFFFFFFFFFFFFFFFFFFFFFFFFF AND PUSH2 0x8FC PUSH1 0x1 SLOAD SWAP1 DUP2 ISZERO MUL SWAP1 PUSH1 0x40 MLOAD PUSH0 PUSH1 0x40 MLOAD DUP1 DUP4 SUB DUP2 DUP6 DUP9 DUP9 CALL SWAP4 POP POP POP POP ISZERO DUP1 ISZERO PUSH2 0x3E0 JUMPI RETURNDATASIZE PUSH0 DUP1 RETURNDATACOPY RETURNDATASIZE PUSH0 REVERT JUMPDEST POP PUSH0 PUSH1 0x1 DUP2 SWAP1 SSTORE POP JUMP JUMPDEST PUSH0 DUP1 SLOAD SWAP1 PUSH2 0x100 EXP SWAP1 DIV PUSH20 0xFFFFFFFFFFFFFFFFFFFFFFFFFFFFFFFFFFFFFFFF AND DUP2 JUMP JUMPDEST PUSH1 0x1 SLOAD DUP2 JUMP JUMPDEST PUSH0 PUSH1 0x14 SWAP1 SLOAD SWAP1 PUSH2 0x100 EXP SWAP1 DIV PUSH1 0xFF AND ISZERO PUSH2 0x462 JUMPI PUSH1 0x40 MLOAD PUSH32 0x8C379A000000000000000000000000000000000000000000000000000000000 DUP2 MSTORE PUSH1 0x4 ADD PUSH2 0x459 SWAP1 PUSH2 0x647 JUMP JUMPDEST PUSH1 0x40 MLOAD DUP1 SWAP2 SUB SWAP1 REVERT JUMPDEST PUSH8 0xDE0B6B3A7640000 DUP1 CALLVALUE LT ISZERO PUSH2 0x4AE JUMPI PUSH1 0x40 MLOAD PUSH32 0x8C379A000000000000000000000000000000000000000000000000000000000 DUP2 MSTORE PUSH1 0x4 ADD PUSH2 0x4A5 SWAP1 PUSH2 0x6AF JUMP JUMPDEST PUSH1 0x40 MLOAD DUP1 SWAP2 SUB SWAP1 REVERT JUMPDEST CALLVALUE PUSH1 0x1 PUSH0 DUP3 DUP3 SLOAD PUSH2 0x4BF SWAP2 SWAP1 PUSH2 0x6FA JUMP JUMPDEST SWAP3 POP POP DUP2 SWAP1 SSTORE POP POP JUMP JUMPDEST PUSH0 DUP2 ISZERO ISZERO SWAP1 POP SWAP2 SWAP1 POP JUMP JUMPDEST PUSH2 0x4DD DUP2 PUSH2 0x4C9 JUMP JUMPDEST DUP3 MSTORE POP POP JUMP JUMPDEST PUSH0 PUSH1 0x20 DUP3 ADD SWAP1 POP PUSH2 0x4F6 PUSH0 DUP4 ADD DUP5 PUSH2 0x4D4 JUMP JUMPDEST SWAP3 SWAP2 POP POP JUMP JUMPDEST PUSH0 PUSH20 0xFFFFFFFFFFFFFFFFFFFFFFFFFFFFFFFFFFFFFFFF DUP3 AND SWAP1 POP SWAP2 SWAP1 POP JUMP JUMPDEST PUSH0 PUSH2 0x525 DUP3 PUSH2 0x4FC JUMP JUMPDEST SWAP1 POP SWAP2 SWAP1 POP JUMP JUMPDEST PUSH2 0x535 DUP2 PUSH2 0x51B JUMP JUMPDEST DUP3 MSTORE POP POP JUMP JUMPDEST PUSH0 PUSH1 0x20 DUP3 ADD SWAP1 POP PUSH2 0x54E PUSH0 DUP4 ADD DUP5 PUSH2 0x52C JUMP JUMPDEST SWAP3 SWAP2 POP POP JUMP JUMPDEST PUSH0 DUP2 SWAP1 POP SWAP2 SWAP1 POP JUMP JUMPDEST PUSH2 0x566 DUP2 PUSH2 0x554 JUMP JUMPDEST DUP3 MSTORE POP POP JUMP JUMPDEST PUSH0 PUSH1 0x20 DUP3 ADD SWAP1 POP PUSH2 0x57F PUSH0 DUP4 ADD DUP5 PUSH2 0x55D JUMP JUMPDEST SWAP3 SWAP2 POP POP JUMP JUMPDEST PUSH0 DUP3 DUP3 MSTORE PUSH1 0x20 DUP3 ADD SWAP1 POP SWAP3 SWAP2 POP POP JUMP JUMPDEST PUSH32 0x4F6E6C79206F776E657200000000000000000000000000000000000000000000 PUSH0 DUP3 ADD MSTORE POP JUMP JUMPDEST PUSH0 PUSH2 0x5C9 PUSH1 0xA DUP4 PUSH2 0x585 JUMP JUMPDEST SWAP2 POP PUSH2 0x5D4 DUP3 PUSH2 0x595 JUMP JUMPDEST PUSH1 0x20 DUP3 ADD SWAP1 POP SWAP2 SWAP1 POP JUMP JUMPDEST PUSH0 PUSH1 0x20 DUP3 ADD SWAP1 POP DUP2 DUP2 SUB PUSH0 DUP4 ADD MSTORE PUSH2 0x5F6 DUP2 PUSH2 0x5BD JUMP JUMPDEST SWAP1 POP SWAP2 SWAP1 POP JUMP JUMPDEST PUSH32 0x5061757365640000000000000000000000000000000000000000000000000000 PUSH0 DUP3 ADD MSTORE POP JUMP JUMPDEST PUSH0 PUSH2 0x631 PUSH1 0x6 DUP4 PUSH2 0x585 JUMP JUMPDEST SWAP2 POP PUSH2 0x63C DUP3 PUSH2 0x5FD JUMP JUMPDEST PUSH1 0x20 DUP3 ADD SWAP1 POP SWAP2 SWAP1 POP JUMP JUMPDEST PUSH0 PUSH1 0x20 DUP3 ADD SWAP1 POP DUP2 DUP2 SUB PUSH0 DUP4 ADD MSTORE PUSH2 0x65E DUP2 PUSH2 0x625 JUMP JUMPDEST SWAP1 POP SWAP2 SWAP1 POP JUMP JUMPDEST PUSH32 0x416D6F756E7420746F6F206C6F77000000000000000000000000000000000000 PUSH0 DUP3 ADD MSTORE POP JUMP JUMPDEST PUSH0 PUSH2 0x699 PUSH1 0xE DUP4 PUSH2 0x585 JUMP JUMPDEST SWAP2 POP PUSH2 0x6A4 DUP3 PUSH2 0x665 JUMP JUMPDEST PUSH1 0x20 DUP3 ADD SWAP1 POP SWAP2 SWAP1 POP JUMP JUMPDEST PUSH0 PUSH1 0x20 DUP3 ADD SWAP1 POP DUP2 DUP2 SUB PUSH0 DUP4 ADD MSTORE PUSH2 0x6C6 DUP2 PUSH2 0x68D JUMP JUMPDEST SWAP1 POP SWAP2 SWAP1 POP JUMP JUMPDEST PUSH32 0x4E487B7100000000000000000000000000000000000000000000000000000000 PUSH0 MSTORE PUSH1 0x11 PUSH1 0x4 MSTORE PUSH1 0x24 PUSH0 REVERT JUMPDEST PUSH0 PUSH2 0x704 DUP3 PUSH2 0x554 JUMP JUMPDEST SWAP2 POP PUSH2 0x70F DUP4 PUSH2 0x554 JUMP JUMPDEST SWAP3 POP DUP3 DUP3 ADD SWAP1 POP DUP1 DUP3 GT ISZERO PUSH2 0x727 JUMPI PUSH2 0x726 PUSH2 0x6CD JUMP JUMPDEST JUMPDEST SWAP3 SWAP2 POP POP JUMP INVALID LOG2 PUSH5 0x6970667358 0x22 SLT KECCAK256 0xEA 0xAD 0xBC PUSH17 0x9317F9CAE3A23F02D68399F0C72B372BBA 0xDE RETURN BYTE 0xC1 DUP1 0xD3 0xEE 0xF7 SIGNEXTEND PUSH2 0x9964 PUSH20 0x6F6C634300081A00330000000000000000000000 "
				},
				"gasEstimates": {
					"creation": {
						"codeDepositCost": "378200",
						"executionCost": "48997",
						"totalCost": "427197"
					},
					"external": {
						"balance()": "2469",
						"deposit()": "infinite",
						"owner()": "2527",
						"pause()": "26670",
						"paused()": "2539",
						"unpause()": "26626",
						"withdrawAll()": "infinite"
					}
				},
				"methodIdentifiers": {
					"balance()": "b69ef8a8",
					"deposit()": "d0e30db0",
					"owner()": "8da5cb5b",
					"pause()": "8456cb59",
					"paused()": "5c975abb",
					"unpause()": "3f4ba83a",
					"withdrawAll()": "853828b6"
				}
			},
			"storageLayout": {
				"storage": [
					{
						"astId": 3,
						"contract": "contracts/MultiModifierVault.sol:TipJarWithModifiers",
						"label": "owner",
						"offset": 0,
						"slot": "0",
						"type": "t_address"
					},
					{
						"astId": 5,
						"contract": "contracts/MultiModifierVault.sol:TipJarWithModifiers",
						"label": "paused",
						"offset": 20,
						"slot": "0",
						"type": "t_bool"
					},
					{
						"astId": 7,
						"contract": "contracts/MultiModifierVault.sol:TipJarWithModifiers",
						"label": "balance",
						"offset": 0,
						"slot": "1",
						"type": "t_uint256"
					}
				],
				"types": {
					"t_address": {
						"encoding": "inplace",
						"label": "address",
						"numberOfBytes": "20"
					},
					"t_bool": {
						"encoding": "inplace",
						"label": "bool",
						"numberOfBytes": "1"
					},
					"t_uint256": {
						"encoding": "inplace",
						"label": "uint256",
						"numberOfBytes": "32"
					}
				}
			},
			"userdoc": {
				"kind": "user",
				"methods": {},
				"version": 1
			}
		}
	}
}