{
	"contracts/008_TipJarWithModifiers.sol": {
		"TipJarWithModifiers": {
			"abi": [
				{
					"inputs": [],
					"stateMutability": "nonpayable",
					"type": "constructor"
				},
				{
					"anonymous": false,
					"inputs": [
						{
							"indexed": true,
							"internalType": "address",
							"name": "from",
							"type": "address"
						},
						{
							"indexed": false,
							"internalType": "uint256",
							"name": "amount",
							"type": "uint256"
						},
						{
							"indexed": false,
							"internalType": "string",
							"name": "message",
							"type": "string"
						}
					],
					"name": "Tipped",
					"type": "event"
				},
				{
					"anonymous": false,
					"inputs": [
						{
							"indexed": true,
							"internalType": "address",
							"name": "by",
							"type": "address"
						},
						{
							"indexed": false,
							"internalType": "uint256",
							"name": "amount",
							"type": "uint256"
						}
					],
					"name": "Withdrawn",
					"type": "event"
				},
				{
					"inputs": [],
					"name": "getBalance",
					"outputs": [
						{
							"internalType": "uint256",
							"name": "",
							"type": "uint256"
						}
					],
					"stateMutability": "view",
					"type": "function"
				},
				{
					"inputs": [
						{
							"internalType": "uint256",
							"name": "index",
							"type": "uint256"
						}
					],
					"name": "getTip",
					"outputs": [
						{
							"internalType": "address",
							"name": "",
							"type": "address"
						},
						{
							"internalType": "uint256",
							"name": "",
							"type": "uint256"
						},
						{
							"internalType": "string",
							"name": "",
							"type": "string"
						}
					],
					"stateMutability": "view",
					"type": "function"
				},
				{
					"inputs": [],
					"name": "getTipsCount",
					"outputs": [
						{
							"internalType": "uint256",
							"name": "",
							"type": "uint256"
						}
					],
					"stateMutability": "view",
					"type": "function"
				},
				{
					"inputs": [],
					"name": "owner",
					"outputs": [
						{
							"internalType": "address",
							"name": "",
							"type": "address"
						}
					],
					"stateMutability": "view",
					"type": "function"
				},
				{
					"inputs": [],
					"name": "pauseTips",
					"outputs": [],
					"stateMutability": "nonpayable",
					"type": "function"
				},
				{
					"inputs": [],
					"name": "paused",
					"outputs": [
						{
							"internalType": "bool",
							"name": "",
							"type": "bool"
						}
					],
					"stateMutability": "view",
					"type": "function"
				},
				{
					"inputs": [],
					"name": "resumeTips",
					"outputs": [],
					"stateMutability": "nonpayable",
					"type": "function"
				},
				{
					"inputs": [
						{
							"internalType": "string",
							"name": "_message",
							"type": "string"
						}
					],
					"name": "sendTip",
					"outputs": [],
					"stateMutability": "payable",
					"type": "function"
				},
				{
					"inputs": [
						{
							"internalType": "uint256",
							"name": "",
							"type": "uint256"
						}
					],
					"name": "tips",
					"outputs": [
						{
							"internalType": "address",
							"name": "sender",
							"type": "address"
						},
						{
							"internalType": "uint256",
							"name": "amount",
							"type": "uint256"
						},
						{
							"internalType": "string",
							"name": "message",
							"type": "string"
						}
					],
					"stateMutability": "view",
					"type": "function"
				},
				{
					"inputs": [],
					"name": "withdraw",
					"outputs": [],
					"stateMutability": "nonpayable",
					"type": "function"
				}
			],
			"devdoc": {
				"kind": "dev",
				"methods": {},
				"version": 1
			},
			"evm": {
				"assembly": "    /* \"contracts/008_TipJarWithModifiers.sol\":99:1886  contract TipJarWithModifiers {... */\n  mstore(0x40, 0x80)\n    /* \"contracts/008_TipJarWithModifiers.sol\":183:188  false */\n  0x00\n    /* \"contracts/008_TipJarWithModifiers.sol\":162:188  bool public paused = false */\n  dup1\n  exp(0x0100, 0x14)\n  dup2\n  sload\n  dup2\n  0xff\n  mul\n  not\n  and\n  swap1\n  dup4\n  iszero\n  iszero\n  mul\n  or\n  swap1\n  sstore\n  pop\n    /* \"contracts/008_TipJarWithModifiers.sol\":842:893  constructor() {... */\n  callvalue\n  dup1\n  iszero\n  tag_1\n  jumpi\n  0x00\n  dup1\n  revert\ntag_1:\n  pop\n    /* \"contracts/008_TipJarWithModifiers.sol\":875:885  msg.sender */\n  caller\n    /* \"contracts/008_TipJarWithModifiers.sol\":867:872  owner */\n  0x00\n  dup1\n    /* \"contracts/008_TipJarWithModifiers.sol\":867:885  owner = msg.sender */\n  0x0100\n  exp\n  dup2\n  sload\n  dup2\n  0xffffffffffffffffffffffffffffffffffffffff\n  mul\n  not\n  and\n  swap1\n  dup4\n  0xffffffffffffffffffffffffffffffffffffffff\n  and\n  mul\n  or\n  swap1\n  sstore\n  pop\n    /* \"contracts/008_TipJarWithModifiers.sol\":99:1886  contract TipJarWithModifiers {... */\n  dataSize(sub_0)\n  dup1\n  dataOffset(sub_0)\n  0x00\n  codecopy\n  0x00\n  return\nstop\n\nsub_0: assembly {\n        /* \"contracts/008_TipJarWithModifiers.sol\":99:1886  contract TipJarWithModifiers {... */\n      mstore(0x40, 0x80)\n      jumpi(tag_1, lt(calldatasize, 0x04))\n      shr(0xe0, calldataload(0x00))\n      dup1\n      0x7f5154b4\n      gt\n      tag_12\n      jumpi\n      dup1\n      0x7f5154b4\n      eq\n      tag_7\n      jumpi\n      dup1\n      0x8da5cb5b\n      eq\n      tag_8\n      jumpi\n      dup1\n      0xa12247b0\n      eq\n      tag_9\n      jumpi\n      dup1\n      0xa5c68c59\n      eq\n      tag_10\n      jumpi\n      dup1\n      0xc7a9abc0\n      eq\n      tag_11\n      jumpi\n      jump(tag_1)\n    tag_12:\n      dup1\n      0x12065fe0\n      eq\n      tag_2\n      jumpi\n      dup1\n      0x143dee97\n      eq\n      tag_3\n      jumpi\n      dup1\n      0x3ccfd60b\n      eq\n      tag_4\n      jumpi\n      dup1\n      0x5b703f5c\n      eq\n      tag_5\n      jumpi\n      dup1\n      0x5c975abb\n      eq\n      tag_6\n      jumpi\n    tag_1:\n      0x00\n      dup1\n      revert\n        /* \"contracts/008_TipJarWithModifiers.sol\":1166:1262  function getBalance() public view returns (uint) {... */\n    tag_2:\n      callvalue\n      dup1\n      iszero\n      tag_13\n      jumpi\n      0x00\n      dup1\n      revert\n    tag_13:\n      pop\n      tag_14\n      tag_15\n      jump\t// in\n    tag_14:\n      mload(0x40)\n      tag_16\n      swap2\n      swap1\n      tag_17\n      jump\t// in\n    tag_16:\n      mload(0x40)\n      dup1\n      swap2\n      sub\n      swap1\n      return\n        /* \"contracts/008_TipJarWithModifiers.sol\":1811:1883  function resumeTips() public onlyOwner {... */\n    tag_3:\n      callvalue\n      dup1\n      iszero\n      tag_18\n      jumpi\n      0x00\n      dup1\n      revert\n    tag_18:\n      pop\n      tag_19\n      tag_20\n      jump\t// in\n    tag_19:\n      stop\n        /* \"contracts/008_TipJarWithModifiers.sol\":1270:1448  function withdraw() public onlyOwner {... */\n    tag_4:\n      callvalue\n      dup1\n      iszero\n      tag_21\n      jumpi\n      0x00\n      dup1\n      revert\n    tag_21:\n      pop\n      tag_22\n      tag_23\n      jump\t// in\n    tag_22:\n      stop\n        /* \"contracts/008_TipJarWithModifiers.sol\":1552:1725  function getTip(uint index) public view returns (address, uint, string memory) {... */\n    tag_5:\n      callvalue\n      dup1\n      iszero\n      tag_24\n      jumpi\n      0x00\n      dup1\n      revert\n    tag_24:\n      pop\n      tag_25\n      0x04\n      dup1\n      calldatasize\n      sub\n      dup2\n      add\n      swap1\n      tag_26\n      swap2\n      swap1\n      tag_27\n      jump\t// in\n    tag_26:\n      tag_28\n      jump\t// in\n    tag_25:\n      mload(0x40)\n      tag_29\n      swap4\n      swap3\n      swap2\n      swap1\n      tag_30\n      jump\t// in\n    tag_29:\n      mload(0x40)\n      dup1\n      swap2\n      sub\n      swap1\n      return\n        /* \"contracts/008_TipJarWithModifiers.sol\":162:188  bool public paused = false */\n    tag_6:\n      callvalue\n      dup1\n      iszero\n      tag_31\n      jumpi\n      0x00\n      dup1\n      revert\n    tag_31:\n      pop\n      tag_32\n      tag_33\n      jump\t// in\n    tag_32:\n      mload(0x40)\n      tag_34\n      swap2\n      swap1\n      tag_35\n      jump\t// in\n    tag_34:\n      mload(0x40)\n      dup1\n      swap2\n      sub\n      swap1\n      return\n        /* \"contracts/008_TipJarWithModifiers.sol\":901:1158  function sendTip(string memory _message) ... */\n    tag_7:\n      tag_36\n      0x04\n      dup1\n      calldatasize\n      sub\n      dup2\n      add\n      swap1\n      tag_37\n      swap2\n      swap1\n      tag_38\n      jump\t// in\n    tag_37:\n      tag_39\n      jump\t// in\n    tag_36:\n      stop\n        /* \"contracts/008_TipJarWithModifiers.sol\":135:155  address public owner */\n    tag_8:\n      callvalue\n      dup1\n      iszero\n      tag_40\n      jumpi\n      0x00\n      dup1\n      revert\n    tag_40:\n      pop\n      tag_41\n      tag_42\n      jump\t// in\n    tag_41:\n      mload(0x40)\n      tag_43\n      swap2\n      swap1\n      tag_44\n      jump\t// in\n    tag_43:\n      mload(0x40)\n      dup1\n      swap2\n      sub\n      swap1\n      return\n        /* \"contracts/008_TipJarWithModifiers.sol\":1456:1544  function getTipsCount() public view returns (uint) {... */\n    tag_9:\n      callvalue\n      dup1\n      iszero\n      tag_45\n      jumpi\n      0x00\n      dup1\n      revert\n    tag_45:\n      pop\n      tag_46\n      tag_47\n      jump\t// in\n    tag_46:\n      mload(0x40)\n      tag_48\n      swap2\n      swap1\n      tag_17\n      jump\t// in\n    tag_48:\n      mload(0x40)\n      dup1\n      swap2\n      sub\n      swap1\n      return\n        /* \"contracts/008_TipJarWithModifiers.sol\":296:313  Tip[] public tips */\n    tag_10:\n      callvalue\n      dup1\n      iszero\n      tag_49\n      jumpi\n      0x00\n      dup1\n      revert\n    tag_49:\n      pop\n      tag_50\n      0x04\n      dup1\n      calldatasize\n      sub\n      dup2\n      add\n      swap1\n      tag_51\n      swap2\n      swap1\n      tag_27\n      jump\t// in\n    tag_51:\n      tag_52\n      jump\t// in\n    tag_50:\n      mload(0x40)\n      tag_53\n      swap4\n      swap3\n      swap2\n      swap1\n      tag_30\n      jump\t// in\n    tag_53:\n      mload(0x40)\n      dup1\n      swap2\n      sub\n      swap1\n      return\n        /* \"contracts/008_TipJarWithModifiers.sol\":1733:1803  function pauseTips() public onlyOwner {... */\n    tag_11:\n      callvalue\n      dup1\n      iszero\n      tag_54\n      jumpi\n      0x00\n      dup1\n      revert\n    tag_54:\n      pop\n      tag_55\n      tag_56\n      jump\t// in\n    tag_55:\n      stop\n        /* \"contracts/008_TipJarWithModifiers.sol\":1166:1262  function getBalance() public view returns (uint) {... */\n    tag_15:\n        /* \"contracts/008_TipJarWithModifiers.sol\":1209:1213  uint */\n      0x00\n        /* \"contracts/008_TipJarWithModifiers.sol\":1233:1254  address(this).balance */\n      selfbalance\n        /* \"contracts/008_TipJarWithModifiers.sol\":1226:1254  return address(this).balance */\n      swap1\n      pop\n        /* \"contracts/008_TipJarWithModifiers.sol\":1166:1262  function getBalance() public view returns (uint) {... */\n      swap1\n      jump\t// out\n        /* \"contracts/008_TipJarWithModifiers.sol\":1811:1883  function resumeTips() public onlyOwner {... */\n    tag_20:\n        /* \"contracts/008_TipJarWithModifiers.sol\":546:551  owner */\n      0x00\n      dup1\n      sload\n      swap1\n      0x0100\n      exp\n      swap1\n      div\n      0xffffffffffffffffffffffffffffffffffffffff\n      and\n        /* \"contracts/008_TipJarWithModifiers.sol\":532:551  msg.sender == owner */\n      0xffffffffffffffffffffffffffffffffffffffff\n      and\n        /* \"contracts/008_TipJarWithModifiers.sol\":532:542  msg.sender */\n      caller\n        /* \"contracts/008_TipJarWithModifiers.sol\":532:551  msg.sender == owner */\n      0xffffffffffffffffffffffffffffffffffffffff\n      and\n      eq\n        /* \"contracts/008_TipJarWithModifiers.sol\":524:590  require(msg.sender == owner, \"Only owner can perform this action\") */\n      tag_59\n      jumpi\n      mload(0x40)\n      0x08c379a000000000000000000000000000000000000000000000000000000000\n      dup2\n      mstore\n      0x04\n      add\n      tag_60\n      swap1\n      tag_61\n      jump\t// in\n    tag_60:\n      mload(0x40)\n      dup1\n      swap2\n      sub\n      swap1\n      revert\n    tag_59:\n        /* \"contracts/008_TipJarWithModifiers.sol\":1870:1875  false */\n      0x00\n        /* \"contracts/008_TipJarWithModifiers.sol\":1861:1867  paused */\n      dup1\n      0x14\n        /* \"contracts/008_TipJarWithModifiers.sol\":1861:1875  paused = false */\n      0x0100\n      exp\n      dup2\n      sload\n      dup2\n      0xff\n      mul\n      not\n      and\n      swap1\n      dup4\n      iszero\n      iszero\n      mul\n      or\n      swap1\n      sstore\n      pop\n        /* \"contracts/008_TipJarWithModifiers.sol\":1811:1883  function resumeTips() public onlyOwner {... */\n      jump\t// out\n        /* \"contracts/008_TipJarWithModifiers.sol\":1270:1448  function withdraw() public onlyOwner {... */\n    tag_23:\n        /* \"contracts/008_TipJarWithModifiers.sol\":546:551  owner */\n      0x00\n      dup1\n      sload\n      swap1\n      0x0100\n      exp\n      swap1\n      div\n      0xffffffffffffffffffffffffffffffffffffffff\n      and\n        /* \"contracts/008_TipJarWithModifiers.sol\":532:551  msg.sender == owner */\n      0xffffffffffffffffffffffffffffffffffffffff\n      and\n        /* \"contracts/008_TipJarWithModifiers.sol\":532:542  msg.sender */\n      caller\n        /* \"contracts/008_TipJarWithModifiers.sol\":532:551  msg.sender == owner */\n      0xffffffffffffffffffffffffffffffffffffffff\n      and\n      eq\n        /* \"contracts/008_TipJarWithModifiers.sol\":524:590  require(msg.sender == owner, \"Only owner can perform this action\") */\n      tag_64\n      jumpi\n      mload(0x40)\n      0x08c379a000000000000000000000000000000000000000000000000000000000\n      dup2\n      mstore\n      0x04\n      add\n      tag_65\n      swap1\n      tag_61\n      jump\t// in\n    tag_65:\n      mload(0x40)\n      dup1\n      swap2\n      sub\n      swap1\n      revert\n    tag_64:\n        /* \"contracts/008_TipJarWithModifiers.sol\":1318:1329  uint amount */\n      0x00\n        /* \"contracts/008_TipJarWithModifiers.sol\":1332:1353  address(this).balance */\n      selfbalance\n        /* \"contracts/008_TipJarWithModifiers.sol\":1318:1353  uint amount = address(this).balance */\n      swap1\n      pop\n        /* \"contracts/008_TipJarWithModifiers.sol\":1372:1377  owner */\n      0x00\n      dup1\n      sload\n      swap1\n      0x0100\n      exp\n      swap1\n      div\n      0xffffffffffffffffffffffffffffffffffffffff\n      and\n        /* \"contracts/008_TipJarWithModifiers.sol\":1364:1387  payable(owner).transfer */\n      0xffffffffffffffffffffffffffffffffffffffff\n      and\n        /* \"contracts/008_TipJarWithModifiers.sol\":1364:1395  payable(owner).transfer(amount) */\n      0x08fc\n        /* \"contracts/008_TipJarWithModifiers.sol\":1388:1394  amount */\n      dup3\n        /* \"contracts/008_TipJarWithModifiers.sol\":1364:1395  payable(owner).transfer(amount) */\n      swap1\n      dup2\n      iszero\n      mul\n      swap1\n      mload(0x40)\n      0x00\n      mload(0x40)\n      dup1\n      dup4\n      sub\n      dup2\n      dup6\n      dup9\n      dup9\n      call\n      swap4\n      pop\n      pop\n      pop\n      pop\n      iszero\n      dup1\n      iszero\n      tag_68\n      jumpi\n      returndatasize\n      0x00\n      dup1\n      returndatacopy\n      revert(0x00, returndatasize)\n    tag_68:\n      pop\n        /* \"contracts/008_TipJarWithModifiers.sol\":1421:1431  msg.sender */\n      caller\n        /* \"contracts/008_TipJarWithModifiers.sol\":1411:1440  Withdrawn(msg.sender, amount) */\n      0xffffffffffffffffffffffffffffffffffffffff\n      and\n      0x7084f5476618d8e60b11ef0d7d3f06914655adb8793e28ff7f018d4c76d505d5\n        /* \"contracts/008_TipJarWithModifiers.sol\":1433:1439  amount */\n      dup3\n        /* \"contracts/008_TipJarWithModifiers.sol\":1411:1440  Withdrawn(msg.sender, amount) */\n      mload(0x40)\n      tag_69\n      swap2\n      swap1\n      tag_17\n      jump\t// in\n    tag_69:\n      mload(0x40)\n      dup1\n      swap2\n      sub\n      swap1\n      log2\n        /* \"contracts/008_TipJarWithModifiers.sol\":1307:1448  {... */\n      pop\n        /* \"contracts/008_TipJarWithModifiers.sol\":1270:1448  function withdraw() public onlyOwner {... */\n      jump\t// out\n        /* \"contracts/008_TipJarWithModifiers.sol\":1552:1725  function getTip(uint index) public view returns (address, uint, string memory) {... */\n    tag_28:\n        /* \"contracts/008_TipJarWithModifiers.sol\":1601:1608  address */\n      0x00\n        /* \"contracts/008_TipJarWithModifiers.sol\":1610:1614  uint */\n      dup1\n        /* \"contracts/008_TipJarWithModifiers.sol\":1616:1629  string memory */\n      0x60\n        /* \"contracts/008_TipJarWithModifiers.sol\":1642:1654  Tip memory t */\n      0x00\n        /* \"contracts/008_TipJarWithModifiers.sol\":1657:1661  tips */\n      0x01\n        /* \"contracts/008_TipJarWithModifiers.sol\":1662:1667  index */\n      dup6\n        /* \"contracts/008_TipJarWithModifiers.sol\":1657:1668  tips[index] */\n      dup2\n      sload\n      dup2\n      lt\n      tag_71\n      jumpi\n      tag_72\n      tag_73\n      jump\t// in\n    tag_72:\n    tag_71:\n      swap1\n      0x00\n      mstore\n      keccak256(0x00, 0x20)\n      swap1\n      0x03\n      mul\n      add\n        /* \"contracts/008_TipJarWithModifiers.sol\":1642:1668  Tip memory t = tips[index] */\n      mload(0x40)\n      dup1\n      0x60\n      add\n      0x40\n      mstore\n      swap1\n      dup2\n      0x00\n      dup3\n      add\n      0x00\n      swap1\n      sload\n      swap1\n      0x0100\n      exp\n      swap1\n      div\n      0xffffffffffffffffffffffffffffffffffffffff\n      and\n      0xffffffffffffffffffffffffffffffffffffffff\n      and\n      0xffffffffffffffffffffffffffffffffffffffff\n      and\n      dup2\n      mstore\n      0x20\n      add\n      0x01\n      dup3\n      add\n      sload\n      dup2\n      mstore\n      0x20\n      add\n      0x02\n      dup3\n      add\n      dup1\n      sload\n      tag_75\n      swap1\n      tag_76\n      jump\t// in\n    tag_75:\n      dup1\n      0x1f\n      add\n      0x20\n      dup1\n      swap2\n      div\n      mul\n      0x20\n      add\n      mload(0x40)\n      swap1\n      dup2\n      add\n      0x40\n      mstore\n      dup1\n      swap3\n      swap2\n      swap1\n      dup2\n      dup2\n      mstore\n      0x20\n      add\n      dup3\n      dup1\n      sload\n      tag_77\n      swap1\n      tag_76\n      jump\t// in\n    tag_77:\n      dup1\n      iszero\n      tag_78\n      jumpi\n      dup1\n      0x1f\n      lt\n      tag_79\n      jumpi\n      0x0100\n      dup1\n      dup4\n      sload\n      div\n      mul\n      dup4\n      mstore\n      swap2\n      0x20\n      add\n      swap2\n      jump(tag_78)\n    tag_79:\n      dup3\n      add\n      swap2\n      swap1\n      0x00\n      mstore\n      keccak256(0x00, 0x20)\n      swap1\n    tag_80:\n      dup2\n      sload\n      dup2\n      mstore\n      swap1\n      0x01\n      add\n      swap1\n      0x20\n      add\n      dup1\n      dup4\n      gt\n      tag_80\n      jumpi\n      dup3\n      swap1\n      sub\n      0x1f\n      and\n      dup3\n      add\n      swap2\n    tag_78:\n      pop\n      pop\n      pop\n      pop\n      pop\n      dup2\n      mstore\n      pop\n      pop\n      swap1\n      pop\n        /* \"contracts/008_TipJarWithModifiers.sol\":1687:1688  t */\n      dup1\n        /* \"contracts/008_TipJarWithModifiers.sol\":1687:1695  t.sender */\n      0x00\n      add\n      mload\n        /* \"contracts/008_TipJarWithModifiers.sol\":1697:1698  t */\n      dup2\n        /* \"contracts/008_TipJarWithModifiers.sol\":1697:1705  t.amount */\n      0x20\n      add\n      mload\n        /* \"contracts/008_TipJarWithModifiers.sol\":1707:1708  t */\n      dup3\n        /* \"contracts/008_TipJarWithModifiers.sol\":1707:1716  t.message */\n      0x40\n      add\n      mload\n        /* \"contracts/008_TipJarWithModifiers.sol\":1679:1717  return (t.sender, t.amount, t.message) */\n      swap4\n      pop\n      swap4\n      pop\n      swap4\n      pop\n      pop\n        /* \"contracts/008_TipJarWithModifiers.sol\":1552:1725  function getTip(uint index) public view returns (address, uint, string memory) {... */\n      swap2\n      swap4\n      swap1\n      swap3\n      pop\n      jump\t// out\n        /* \"contracts/008_TipJarWithModifiers.sol\":162:188  bool public paused = false */\n    tag_33:\n      0x00\n      0x14\n      swap1\n      sload\n      swap1\n      0x0100\n      exp\n      swap1\n      div\n      0xff\n      and\n      dup2\n      jump\t// out\n        /* \"contracts/008_TipJarWithModifiers.sol\":901:1158  function sendTip(string memory _message) ... */\n    tag_39:\n        /* \"contracts/008_TipJarWithModifiers.sol\":776:782  paused */\n      0x00\n      0x14\n      swap1\n      sload\n      swap1\n      0x0100\n      exp\n      swap1\n      div\n      0xff\n      and\n        /* \"contracts/008_TipJarWithModifiers.sol\":775:782  !paused */\n      iszero\n        /* \"contracts/008_TipJarWithModifiers.sol\":767:814  require(!paused, \"Tipping is currently paused\") */\n      tag_82\n      jumpi\n      mload(0x40)\n      0x08c379a000000000000000000000000000000000000000000000000000000000\n      dup2\n      mstore\n      0x04\n      add\n      tag_83\n      swap1\n      tag_84\n      jump\t// in\n    tag_83:\n      mload(0x40)\n      dup1\n      swap2\n      sub\n      swap1\n      revert\n    tag_82:\n        /* \"contracts/008_TipJarWithModifiers.sol\":1018:1029  0.001 ether */\n      0x038d7ea4c68000\n        /* \"contracts/008_TipJarWithModifiers.sol\":677:681  _min */\n      dup1\n        /* \"contracts/008_TipJarWithModifiers.sol\":664:673  msg.value */\n      callvalue\n        /* \"contracts/008_TipJarWithModifiers.sol\":664:681  msg.value >= _min */\n      lt\n      iszero\n        /* \"contracts/008_TipJarWithModifiers.sol\":656:703  require(msg.value >= _min, \"Tip is too small!\") */\n      tag_86\n      jumpi\n      mload(0x40)\n      0x08c379a000000000000000000000000000000000000000000000000000000000\n      dup2\n      mstore\n      0x04\n      add\n      tag_87\n      swap1\n      tag_88\n      jump\t// in\n    tag_87:\n      mload(0x40)\n      dup1\n      swap2\n      sub\n      swap1\n      revert\n    tag_86:\n        /* \"contracts/008_TipJarWithModifiers.sol\":1048:1052  tips */\n      0x01\n        /* \"contracts/008_TipJarWithModifiers.sol\":1058:1094  Tip(msg.sender, msg.value, _message) */\n      mload(0x40)\n      dup1\n      0x60\n      add\n      0x40\n      mstore\n      dup1\n        /* \"contracts/008_TipJarWithModifiers.sol\":1062:1072  msg.sender */\n      caller\n        /* \"contracts/008_TipJarWithModifiers.sol\":1058:1094  Tip(msg.sender, msg.value, _message) */\n      0xffffffffffffffffffffffffffffffffffffffff\n      and\n      dup2\n      mstore\n      0x20\n      add\n        /* \"contracts/008_TipJarWithModifiers.sol\":1074:1083  msg.value */\n      callvalue\n        /* \"contracts/008_TipJarWithModifiers.sol\":1058:1094  Tip(msg.sender, msg.value, _message) */\n      dup2\n      mstore\n      0x20\n      add\n        /* \"contracts/008_TipJarWithModifiers.sol\":1085:1093  _message */\n      dup5\n        /* \"contracts/008_TipJarWithModifiers.sol\":1058:1094  Tip(msg.sender, msg.value, _message) */\n      dup2\n      mstore\n      pop\n        /* \"contracts/008_TipJarWithModifiers.sol\":1048:1095  tips.push(Tip(msg.sender, msg.value, _message)) */\n      swap1\n      dup1\n      0x01\n      dup2\n      sload\n      add\n      dup1\n      dup3\n      sstore\n      dup1\n      swap2\n      pop\n      pop\n      0x01\n      swap1\n      sub\n      swap1\n      0x00\n      mstore\n      keccak256(0x00, 0x20)\n      swap1\n      0x03\n      mul\n      add\n      0x00\n      swap1\n      swap2\n      swap1\n      swap2\n      swap1\n      swap2\n      pop\n      0x00\n      dup3\n      add\n      mload\n      dup2\n      0x00\n      add\n      exp(0x0100, 0x00)\n      dup2\n      sload\n      dup2\n      0xffffffffffffffffffffffffffffffffffffffff\n      mul\n      not\n      and\n      swap1\n      dup4\n      0xffffffffffffffffffffffffffffffffffffffff\n      and\n      mul\n      or\n      swap1\n      sstore\n      pop\n      0x20\n      dup3\n      add\n      mload\n      dup2\n      0x01\n      add\n      sstore\n      0x40\n      dup3\n      add\n      mload\n      dup2\n      0x02\n      add\n      swap1\n      dup2\n      tag_91\n      swap2\n      swap1\n      tag_92\n      jump\t// in\n    tag_91:\n      pop\n      pop\n      pop\n        /* \"contracts/008_TipJarWithModifiers.sol\":1118:1128  msg.sender */\n      caller\n        /* \"contracts/008_TipJarWithModifiers.sol\":1111:1150  Tipped(msg.sender, msg.value, _message) */\n      0xffffffffffffffffffffffffffffffffffffffff\n      and\n      0x4f629a5f1c8e7fc616770a8d34896b447f3457037c40a23347478746309d73c2\n        /* \"contracts/008_TipJarWithModifiers.sol\":1130:1139  msg.value */\n      callvalue\n        /* \"contracts/008_TipJarWithModifiers.sol\":1141:1149  _message */\n      dup5\n        /* \"contracts/008_TipJarWithModifiers.sol\":1111:1150  Tipped(msg.sender, msg.value, _message) */\n      mload(0x40)\n      tag_93\n      swap3\n      swap2\n      swap1\n      tag_94\n      jump\t// in\n    tag_93:\n      mload(0x40)\n      dup1\n      swap2\n      sub\n      swap1\n      log2\n        /* \"contracts/008_TipJarWithModifiers.sol\":825:826  _ */\n      pop\n        /* \"contracts/008_TipJarWithModifiers.sol\":901:1158  function sendTip(string memory _message) ... */\n      pop\n      jump\t// out\n        /* \"contracts/008_TipJarWithModifiers.sol\":135:155  address public owner */\n    tag_42:\n      0x00\n      dup1\n      sload\n      swap1\n      0x0100\n      exp\n      swap1\n      div\n      0xffffffffffffffffffffffffffffffffffffffff\n      and\n      dup2\n      jump\t// out\n        /* \"contracts/008_TipJarWithModifiers.sol\":1456:1544  function getTipsCount() public view returns (uint) {... */\n    tag_47:\n        /* \"contracts/008_TipJarWithModifiers.sol\":1501:1505  uint */\n      0x00\n        /* \"contracts/008_TipJarWithModifiers.sol\":1525:1529  tips */\n      0x01\n        /* \"contracts/008_TipJarWithModifiers.sol\":1525:1536  tips.length */\n      dup1\n      sload\n      swap1\n      pop\n        /* \"contracts/008_TipJarWithModifiers.sol\":1518:1536  return tips.length */\n      swap1\n      pop\n        /* \"contracts/008_TipJarWithModifiers.sol\":1456:1544  function getTipsCount() public view returns (uint) {... */\n      swap1\n      jump\t// out\n        /* \"contracts/008_TipJarWithModifiers.sol\":296:313  Tip[] public tips */\n    tag_52:\n      0x01\n      dup2\n      dup2\n      sload\n      dup2\n      lt\n      tag_96\n      jumpi\n      0x00\n      dup1\n      revert\n    tag_96:\n      swap1\n      0x00\n      mstore\n      keccak256(0x00, 0x20)\n      swap1\n      0x03\n      mul\n      add\n      0x00\n      swap2\n      pop\n      swap1\n      pop\n      dup1\n      0x00\n      add\n      0x00\n      swap1\n      sload\n      swap1\n      0x0100\n      exp\n      swap1\n      div\n      0xffffffffffffffffffffffffffffffffffffffff\n      and\n      swap1\n      dup1\n      0x01\n      add\n      sload\n      swap1\n      dup1\n      0x02\n      add\n      dup1\n      sload\n      tag_98\n      swap1\n      tag_76\n      jump\t// in\n    tag_98:\n      dup1\n      0x1f\n      add\n      0x20\n      dup1\n      swap2\n      div\n      mul\n      0x20\n      add\n      mload(0x40)\n      swap1\n      dup2\n      add\n      0x40\n      mstore\n      dup1\n      swap3\n      swap2\n      swap1\n      dup2\n      dup2\n      mstore\n      0x20\n      add\n      dup3\n      dup1\n      sload\n      tag_99\n      swap1\n      tag_76\n      jump\t// in\n    tag_99:\n      dup1\n      iszero\n      tag_100\n      jumpi\n      dup1\n      0x1f\n      lt\n      tag_101\n      jumpi\n      0x0100\n      dup1\n      dup4\n      sload\n      div\n      mul\n      dup4\n      mstore\n      swap2\n      0x20\n      add\n      swap2\n      jump(tag_100)\n    tag_101:\n      dup3\n      add\n      swap2\n      swap1\n      0x00\n      mstore\n      keccak256(0x00, 0x20)\n      swap1\n    tag_102:\n      dup2\n      sload\n      dup2\n      mstore\n      swap1\n      0x01\n      add\n      swap1\n      0x20\n      add\n      dup1\n      dup4\n      gt\n      tag_102\n      jumpi\n      dup3\n      swap1\n      sub\n      0x1f\n      and\n      dup3\n      add\n      swap2\n    tag_100:\n      pop\n      pop\n      pop\n      pop\n      pop\n      swap1\n      pop\n      dup4\n      jump\t// out\n        /* \"contracts/008_TipJarWithModifiers.sol\":1733:1803  function pauseTips() public onlyOwner {... */\n    tag_56:\n        /* \"contracts/008_TipJarWithModifiers.sol\":546:551  owner */\n      0x00\n      dup1\n      sload\n      swap1\n      0x0100\n      exp\n      swap1\n      div\n      0xffffffffffffffffffffffffffffffffffffffff\n      and\n        /* \"contracts/008_TipJarWithModifiers.sol\":532:551  msg.sender == owner */\n      0xffffffffffffffffffffffffffffffffffffffff\n      and\n        /* \"contracts/008_TipJarWithModifiers.sol\":532:542  msg.sender */\n      caller\n        /* \"contracts/008_TipJarWithModifiers.sol\":532:551  msg.sender == owner */\n      0xffffffffffffffffffffffffffffffffffffffff\n      and\n      eq\n        /* \"contracts/008_TipJarWithModifiers.sol\":524:590  require(msg.sender == owner, \"Only owner can perform this action\") */\n      tag_104\n      jumpi\n      mload(0x40)\n      0x08c379a000000000000000000000000000000000000000000000000000000000\n      dup2\n      mstore\n      0x04\n      add\n      tag_105\n      swap1\n      tag_61\n      jump\t// in\n    tag_105:\n      mload(0x40)\n      dup1\n      swap2\n      sub\n      swap1\n      revert\n    tag_104:\n        /* \"contracts/008_TipJarWithModifiers.sol\":1791:1795  true */\n      0x01\n        /* \"contracts/008_TipJarWithModifiers.sol\":1782:1788  paused */\n      0x00\n      0x14\n        /* \"contracts/008_TipJarWithModifiers.sol\":1782:1795  paused = true */\n      0x0100\n      exp\n      dup2\n      sload\n      dup2\n      0xff\n      mul\n      not\n      and\n      swap1\n      dup4\n      iszero\n      iszero\n      mul\n      or\n      swap1\n      sstore\n      pop\n        /* \"contracts/008_TipJarWithModifiers.sol\":1733:1803  function pauseTips() public onlyOwner {... */\n      jump\t// out\n        /* \"#utility.yul\":7:84   */\n    tag_107:\n        /* \"#utility.yul\":44:51   */\n      0x00\n        /* \"#utility.yul\":73:78   */\n      dup2\n        /* \"#utility.yul\":62:78   */\n      swap1\n      pop\n        /* \"#utility.yul\":7:84   */\n      swap2\n      swap1\n      pop\n      jump\t// out\n        /* \"#utility.yul\":90:208   */\n    tag_108:\n        /* \"#utility.yul\":177:201   */\n      tag_158\n        /* \"#utility.yul\":195:200   */\n      dup2\n        /* \"#utility.yul\":177:201   */\n      tag_107\n      jump\t// in\n    tag_158:\n        /* \"#utility.yul\":172:175   */\n      dup3\n        /* \"#utility.yul\":165:202   */\n      mstore\n        /* \"#utility.yul\":90:208   */\n      pop\n      pop\n      jump\t// out\n        /* \"#utility.yul\":214:436   */\n    tag_17:\n        /* \"#utility.yul\":307:311   */\n      0x00\n        /* \"#utility.yul\":345:347   */\n      0x20\n        /* \"#utility.yul\":334:343   */\n      dup3\n        /* \"#utility.yul\":330:348   */\n      add\n        /* \"#utility.yul\":322:348   */\n      swap1\n      pop\n        /* \"#utility.yul\":358:429   */\n      tag_160\n        /* \"#utility.yul\":426:427   */\n      0x00\n        /* \"#utility.yul\":415:424   */\n      dup4\n        /* \"#utility.yul\":411:428   */\n      add\n        /* \"#utility.yul\":402:408   */\n      dup5\n        /* \"#utility.yul\":358:429   */\n      tag_108\n      jump\t// in\n    tag_160:\n        /* \"#utility.yul\":214:436   */\n      swap3\n      swap2\n      pop\n      pop\n      jump\t// out\n        /* \"#utility.yul\":442:517   */\n    tag_109:\n        /* \"#utility.yul\":475:481   */\n      0x00\n        /* \"#utility.yul\":508:510   */\n      0x40\n        /* \"#utility.yul\":502:511   */\n      mload\n        /* \"#utility.yul\":492:511   */\n      swap1\n      pop\n        /* \"#utility.yul\":442:517   */\n      swap1\n      jump\t// out\n        /* \"#utility.yul\":523:640   */\n    tag_110:\n        /* \"#utility.yul\":632:633   */\n      0x00\n        /* \"#utility.yul\":629:630   */\n      dup1\n        /* \"#utility.yul\":622:634   */\n      revert\n        /* \"#utility.yul\":646:763   */\n    tag_111:\n        /* \"#utility.yul\":755:756   */\n      0x00\n        /* \"#utility.yul\":752:753   */\n      dup1\n        /* \"#utility.yul\":745:757   */\n      revert\n        /* \"#utility.yul\":769:891   */\n    tag_112:\n        /* \"#utility.yul\":842:866   */\n      tag_165\n        /* \"#utility.yul\":860:865   */\n      dup2\n        /* \"#utility.yul\":842:866   */\n      tag_107\n      jump\t// in\n    tag_165:\n        /* \"#utility.yul\":835:840   */\n      dup2\n        /* \"#utility.yul\":832:867   */\n      eq\n        /* \"#utility.yul\":822:885   */\n      tag_166\n      jumpi\n        /* \"#utility.yul\":881:882   */\n      0x00\n        /* \"#utility.yul\":878:879   */\n      dup1\n        /* \"#utility.yul\":871:883   */\n      revert\n        /* \"#utility.yul\":822:885   */\n    tag_166:\n        /* \"#utility.yul\":769:891   */\n      pop\n      jump\t// out\n        /* \"#utility.yul\":897:1036   */\n    tag_113:\n        /* \"#utility.yul\":943:948   */\n      0x00\n        /* \"#utility.yul\":981:987   */\n      dup2\n        /* \"#utility.yul\":968:988   */\n      calldataload\n        /* \"#utility.yul\":959:988   */\n      swap1\n      pop\n        /* \"#utility.yul\":997:1030   */\n      tag_168\n        /* \"#utility.yul\":1024:1029   */\n      dup2\n        /* \"#utility.yul\":997:1030   */\n      tag_112\n      jump\t// in\n    tag_168:\n        /* \"#utility.yul\":897:1036   */\n      swap3\n      swap2\n      pop\n      pop\n      jump\t// out\n        /* \"#utility.yul\":1042:1371   */\n    tag_27:\n        /* \"#utility.yul\":1101:1107   */\n      0x00\n        /* \"#utility.yul\":1150:1152   */\n      0x20\n        /* \"#utility.yul\":1138:1147   */\n      dup3\n        /* \"#utility.yul\":1129:1136   */\n      dup5\n        /* \"#utility.yul\":1125:1148   */\n      sub\n        /* \"#utility.yul\":1121:1153   */\n      slt\n        /* \"#utility.yul\":1118:1237   */\n      iszero\n      tag_170\n      jumpi\n        /* \"#utility.yul\":1156:1235   */\n      tag_171\n      tag_110\n      jump\t// in\n    tag_171:\n        /* \"#utility.yul\":1118:1237   */\n    tag_170:\n        /* \"#utility.yul\":1276:1277   */\n      0x00\n        /* \"#utility.yul\":1301:1354   */\n      tag_172\n        /* \"#utility.yul\":1346:1353   */\n      dup5\n        /* \"#utility.yul\":1337:1343   */\n      dup3\n        /* \"#utility.yul\":1326:1335   */\n      dup6\n        /* \"#utility.yul\":1322:1344   */\n      add\n        /* \"#utility.yul\":1301:1354   */\n      tag_113\n      jump\t// in\n    tag_172:\n        /* \"#utility.yul\":1291:1354   */\n      swap2\n      pop\n        /* \"#utility.yul\":1247:1364   */\n      pop\n        /* \"#utility.yul\":1042:1371   */\n      swap3\n      swap2\n      pop\n      pop\n      jump\t// out\n        /* \"#utility.yul\":1377:1503   */\n    tag_114:\n        /* \"#utility.yul\":1414:1421   */\n      0x00\n        /* \"#utility.yul\":1454:1496   */\n      0xffffffffffffffffffffffffffffffffffffffff\n        /* \"#utility.yul\":1447:1452   */\n      dup3\n        /* \"#utility.yul\":1443:1497   */\n      and\n        /* \"#utility.yul\":1432:1497   */\n      swap1\n      pop\n        /* \"#utility.yul\":1377:1503   */\n      swap2\n      swap1\n      pop\n      jump\t// out\n        /* \"#utility.yul\":1509:1605   */\n    tag_115:\n        /* \"#utility.yul\":1546:1553   */\n      0x00\n        /* \"#utility.yul\":1575:1599   */\n      tag_175\n        /* \"#utility.yul\":1593:1598   */\n      dup3\n        /* \"#utility.yul\":1575:1599   */\n      tag_114\n      jump\t// in\n    tag_175:\n        /* \"#utility.yul\":1564:1599   */\n      swap1\n      pop\n        /* \"#utility.yul\":1509:1605   */\n      swap2\n      swap1\n      pop\n      jump\t// out\n        /* \"#utility.yul\":1611:1729   */\n    tag_116:\n        /* \"#utility.yul\":1698:1722   */\n      tag_177\n        /* \"#utility.yul\":1716:1721   */\n      dup2\n        /* \"#utility.yul\":1698:1722   */\n      tag_115\n      jump\t// in\n    tag_177:\n        /* \"#utility.yul\":1693:1696   */\n      dup3\n        /* \"#utility.yul\":1686:1723   */\n      mstore\n        /* \"#utility.yul\":1611:1729   */\n      pop\n      pop\n      jump\t// out\n        /* \"#utility.yul\":1735:1834   */\n    tag_117:\n        /* \"#utility.yul\":1787:1793   */\n      0x00\n        /* \"#utility.yul\":1821:1826   */\n      dup2\n        /* \"#utility.yul\":1815:1827   */\n      mload\n        /* \"#utility.yul\":1805:1827   */\n      swap1\n      pop\n        /* \"#utility.yul\":1735:1834   */\n      swap2\n      swap1\n      pop\n      jump\t// out\n        /* \"#utility.yul\":1840:2009   */\n    tag_118:\n        /* \"#utility.yul\":1924:1935   */\n      0x00\n        /* \"#utility.yul\":1958:1964   */\n      dup3\n        /* \"#utility.yul\":1953:1956   */\n      dup3\n        /* \"#utility.yul\":1946:1965   */\n      mstore\n        /* \"#utility.yul\":1998:2002   */\n      0x20\n        /* \"#utility.yul\":1993:1996   */\n      dup3\n        /* \"#utility.yul\":1989:2003   */\n      add\n        /* \"#utility.yul\":1974:2003   */\n      swap1\n      pop\n        /* \"#utility.yul\":1840:2009   */\n      swap3\n      swap2\n      pop\n      pop\n      jump\t// out\n        /* \"#utility.yul\":2015:2154   */\n    tag_119:\n        /* \"#utility.yul\":2104:2110   */\n      dup3\n        /* \"#utility.yul\":2099:2102   */\n      dup2\n        /* \"#utility.yul\":2094:2097   */\n      dup4\n        /* \"#utility.yul\":2088:2111   */\n      mcopy\n        /* \"#utility.yul\":2145:2146   */\n      0x00\n        /* \"#utility.yul\":2136:2142   */\n      dup4\n        /* \"#utility.yul\":2131:2134   */\n      dup4\n        /* \"#utility.yul\":2127:2143   */\n      add\n        /* \"#utility.yul\":2120:2147   */\n      mstore\n        /* \"#utility.yul\":2015:2154   */\n      pop\n      pop\n      pop\n      jump\t// out\n        /* \"#utility.yul\":2160:2262   */\n    tag_120:\n        /* \"#utility.yul\":2201:2207   */\n      0x00\n        /* \"#utility.yul\":2252:2254   */\n      0x1f\n        /* \"#utility.yul\":2248:2255   */\n      not\n        /* \"#utility.yul\":2243:2245   */\n      0x1f\n        /* \"#utility.yul\":2236:2241   */\n      dup4\n        /* \"#utility.yul\":2232:2246   */\n      add\n        /* \"#utility.yul\":2228:2256   */\n      and\n        /* \"#utility.yul\":2218:2256   */\n      swap1\n      pop\n        /* \"#utility.yul\":2160:2262   */\n      swap2\n      swap1\n      pop\n      jump\t// out\n        /* \"#utility.yul\":2268:2645   */\n    tag_121:\n        /* \"#utility.yul\":2356:2359   */\n      0x00\n        /* \"#utility.yul\":2384:2423   */\n      tag_183\n        /* \"#utility.yul\":2417:2422   */\n      dup3\n        /* \"#utility.yul\":2384:2423   */\n      tag_117\n      jump\t// in\n    tag_183:\n        /* \"#utility.yul\":2439:2510   */\n      tag_184\n        /* \"#utility.yul\":2503:2509   */\n      dup2\n        /* \"#utility.yul\":2498:2501   */\n      dup6\n        /* \"#utility.yul\":2439:2510   */\n      tag_118\n      jump\t// in\n    tag_184:\n        /* \"#utility.yul\":2432:2510   */\n      swap4\n      pop\n        /* \"#utility.yul\":2519:2584   */\n      tag_185\n        /* \"#utility.yul\":2577:2583   */\n      dup2\n        /* \"#utility.yul\":2572:2575   */\n      dup6\n        /* \"#utility.yul\":2565:2569   */\n      0x20\n        /* \"#utility.yul\":2558:2563   */\n      dup7\n        /* \"#utility.yul\":2554:2570   */\n      add\n        /* \"#utility.yul\":2519:2584   */\n      tag_119\n      jump\t// in\n    tag_185:\n        /* \"#utility.yul\":2609:2638   */\n      tag_186\n        /* \"#utility.yul\":2631:2637   */\n      dup2\n        /* \"#utility.yul\":2609:2638   */\n      tag_120\n      jump\t// in\n    tag_186:\n        /* \"#utility.yul\":2604:2607   */\n      dup5\n        /* \"#utility.yul\":2600:2639   */\n      add\n        /* \"#utility.yul\":2593:2639   */\n      swap2\n      pop\n        /* \"#utility.yul\":2360:2645   */\n      pop\n        /* \"#utility.yul\":2268:2645   */\n      swap3\n      swap2\n      pop\n      pop\n      jump\t// out\n        /* \"#utility.yul\":2651:3184   */\n    tag_30:\n        /* \"#utility.yul\":2820:2824   */\n      0x00\n        /* \"#utility.yul\":2858:2860   */\n      0x60\n        /* \"#utility.yul\":2847:2856   */\n      dup3\n        /* \"#utility.yul\":2843:2861   */\n      add\n        /* \"#utility.yul\":2835:2861   */\n      swap1\n      pop\n        /* \"#utility.yul\":2871:2942   */\n      tag_188\n        /* \"#utility.yul\":2939:2940   */\n      0x00\n        /* \"#utility.yul\":2928:2937   */\n      dup4\n        /* \"#utility.yul\":2924:2941   */\n      add\n        /* \"#utility.yul\":2915:2921   */\n      dup7\n        /* \"#utility.yul\":2871:2942   */\n      tag_116\n      jump\t// in\n    tag_188:\n        /* \"#utility.yul\":2952:3024   */\n      tag_189\n        /* \"#utility.yul\":3020:3022   */\n      0x20\n        /* \"#utility.yul\":3009:3018   */\n      dup4\n        /* \"#utility.yul\":3005:3023   */\n      add\n        /* \"#utility.yul\":2996:3002   */\n      dup6\n        /* \"#utility.yul\":2952:3024   */\n      tag_108\n      jump\t// in\n    tag_189:\n        /* \"#utility.yul\":3071:3080   */\n      dup2\n        /* \"#utility.yul\":3065:3069   */\n      dup2\n        /* \"#utility.yul\":3061:3081   */\n      sub\n        /* \"#utility.yul\":3056:3058   */\n      0x40\n        /* \"#utility.yul\":3045:3054   */\n      dup4\n        /* \"#utility.yul\":3041:3059   */\n      add\n        /* \"#utility.yul\":3034:3082   */\n      mstore\n        /* \"#utility.yul\":3099:3177   */\n      tag_190\n        /* \"#utility.yul\":3172:3176   */\n      dup2\n        /* \"#utility.yul\":3163:3169   */\n      dup5\n        /* \"#utility.yul\":3099:3177   */\n      tag_121\n      jump\t// in\n    tag_190:\n        /* \"#utility.yul\":3091:3177   */\n      swap1\n      pop\n        /* \"#utility.yul\":2651:3184   */\n      swap5\n      swap4\n      pop\n      pop\n      pop\n      pop\n      jump\t// out\n        /* \"#utility.yul\":3190:3280   */\n    tag_122:\n        /* \"#utility.yul\":3224:3231   */\n      0x00\n        /* \"#utility.yul\":3267:3272   */\n      dup2\n        /* \"#utility.yul\":3260:3273   */\n      iszero\n        /* \"#utility.yul\":3253:3274   */\n      iszero\n        /* \"#utility.yul\":3242:3274   */\n      swap1\n      pop\n        /* \"#utility.yul\":3190:3280   */\n      swap2\n      swap1\n      pop\n      jump\t// out\n        /* \"#utility.yul\":3286:3395   */\n    tag_123:\n        /* \"#utility.yul\":3367:3388   */\n      tag_193\n        /* \"#utility.yul\":3382:3387   */\n      dup2\n        /* \"#utility.yul\":3367:3388   */\n      tag_122\n      jump\t// in\n    tag_193:\n        /* \"#utility.yul\":3362:3365   */\n      dup3\n        /* \"#utility.yul\":3355:3389   */\n      mstore\n        /* \"#utility.yul\":3286:3395   */\n      pop\n      pop\n      jump\t// out\n        /* \"#utility.yul\":3401:3611   */\n    tag_35:\n        /* \"#utility.yul\":3488:3492   */\n      0x00\n        /* \"#utility.yul\":3526:3528   */\n      0x20\n        /* \"#utility.yul\":3515:3524   */\n      dup3\n        /* \"#utility.yul\":3511:3529   */\n      add\n        /* \"#utility.yul\":3503:3529   */\n      swap1\n      pop\n        /* \"#utility.yul\":3539:3604   */\n      tag_195\n        /* \"#utility.yul\":3601:3602   */\n      0x00\n        /* \"#utility.yul\":3590:3599   */\n      dup4\n        /* \"#utility.yul\":3586:3603   */\n      add\n        /* \"#utility.yul\":3577:3583   */\n      dup5\n        /* \"#utility.yul\":3539:3604   */\n      tag_123\n      jump\t// in\n    tag_195:\n        /* \"#utility.yul\":3401:3611   */\n      swap3\n      swap2\n      pop\n      pop\n      jump\t// out\n        /* \"#utility.yul\":3617:3734   */\n    tag_124:\n        /* \"#utility.yul\":3726:3727   */\n      0x00\n        /* \"#utility.yul\":3723:3724   */\n      dup1\n        /* \"#utility.yul\":3716:3728   */\n      revert\n        /* \"#utility.yul\":3740:3857   */\n    tag_125:\n        /* \"#utility.yul\":3849:3850   */\n      0x00\n        /* \"#utility.yul\":3846:3847   */\n      dup1\n        /* \"#utility.yul\":3839:3851   */\n      revert\n        /* \"#utility.yul\":3863:4043   */\n    tag_126:\n        /* \"#utility.yul\":3911:3988   */\n      0x4e487b7100000000000000000000000000000000000000000000000000000000\n        /* \"#utility.yul\":3908:3909   */\n      0x00\n        /* \"#utility.yul\":3901:3989   */\n      mstore\n        /* \"#utility.yul\":4008:4012   */\n      0x41\n        /* \"#utility.yul\":4005:4006   */\n      0x04\n        /* \"#utility.yul\":3998:4013   */\n      mstore\n        /* \"#utility.yul\":4032:4036   */\n      0x24\n        /* \"#utility.yul\":4029:4030   */\n      0x00\n        /* \"#utility.yul\":4022:4037   */\n      revert\n        /* \"#utility.yul\":4049:4330   */\n    tag_127:\n        /* \"#utility.yul\":4132:4159   */\n      tag_200\n        /* \"#utility.yul\":4154:4158   */\n      dup3\n        /* \"#utility.yul\":4132:4159   */\n      tag_120\n      jump\t// in\n    tag_200:\n        /* \"#utility.yul\":4124:4130   */\n      dup2\n        /* \"#utility.yul\":4120:4160   */\n      add\n        /* \"#utility.yul\":4262:4268   */\n      dup2\n        /* \"#utility.yul\":4250:4260   */\n      dup2\n        /* \"#utility.yul\":4247:4269   */\n      lt\n        /* \"#utility.yul\":4226:4244   */\n      0xffffffffffffffff\n        /* \"#utility.yul\":4214:4224   */\n      dup3\n        /* \"#utility.yul\":4211:4245   */\n      gt\n        /* \"#utility.yul\":4208:4270   */\n      or\n        /* \"#utility.yul\":4205:4293   */\n      iszero\n      tag_201\n      jumpi\n        /* \"#utility.yul\":4273:4291   */\n      tag_202\n      tag_126\n      jump\t// in\n    tag_202:\n        /* \"#utility.yul\":4205:4293   */\n    tag_201:\n        /* \"#utility.yul\":4313:4323   */\n      dup1\n        /* \"#utility.yul\":4309:4311   */\n      0x40\n        /* \"#utility.yul\":4302:4324   */\n      mstore\n        /* \"#utility.yul\":4092:4330   */\n      pop\n        /* \"#utility.yul\":4049:4330   */\n      pop\n      pop\n      jump\t// out\n        /* \"#utility.yul\":4336:4465   */\n    tag_128:\n        /* \"#utility.yul\":4370:4376   */\n      0x00\n        /* \"#utility.yul\":4397:4417   */\n      tag_204\n      tag_109\n      jump\t// in\n    tag_204:\n        /* \"#utility.yul\":4387:4417   */\n      swap1\n      pop\n        /* \"#utility.yul\":4426:4459   */\n      tag_205\n        /* \"#utility.yul\":4454:4458   */\n      dup3\n        /* \"#utility.yul\":4446:4452   */\n      dup3\n        /* \"#utility.yul\":4426:4459   */\n      tag_127\n      jump\t// in\n    tag_205:\n        /* \"#utility.yul\":4336:4465   */\n      swap2\n      swap1\n      pop\n      jump\t// out\n        /* \"#utility.yul\":4471:4779   */\n    tag_129:\n        /* \"#utility.yul\":4533:4537   */\n      0x00\n        /* \"#utility.yul\":4623:4641   */\n      0xffffffffffffffff\n        /* \"#utility.yul\":4615:4621   */\n      dup3\n        /* \"#utility.yul\":4612:4642   */\n      gt\n        /* \"#utility.yul\":4609:4665   */\n      iszero\n      tag_207\n      jumpi\n        /* \"#utility.yul\":4645:4663   */\n      tag_208\n      tag_126\n      jump\t// in\n    tag_208:\n        /* \"#utility.yul\":4609:4665   */\n    tag_207:\n        /* \"#utility.yul\":4683:4712   */\n      tag_209\n        /* \"#utility.yul\":4705:4711   */\n      dup3\n        /* \"#utility.yul\":4683:4712   */\n      tag_120\n      jump\t// in\n    tag_209:\n        /* \"#utility.yul\":4675:4712   */\n      swap1\n      pop\n        /* \"#utility.yul\":4767:4771   */\n      0x20\n        /* \"#utility.yul\":4761:4765   */\n      dup2\n        /* \"#utility.yul\":4757:4772   */\n      add\n        /* \"#utility.yul\":4749:4772   */\n      swap1\n      pop\n        /* \"#utility.yul\":4471:4779   */\n      swap2\n      swap1\n      pop\n      jump\t// out\n        /* \"#utility.yul\":4785:4933   */\n    tag_130:\n        /* \"#utility.yul\":4883:4889   */\n      dup3\n        /* \"#utility.yul\":4878:4881   */\n      dup2\n        /* \"#utility.yul\":4873:4876   */\n      dup4\n        /* \"#utility.yul\":4860:4890   */\n      calldatacopy\n        /* \"#utility.yul\":4924:4925   */\n      0x00\n        /* \"#utility.yul\":4915:4921   */\n      dup4\n        /* \"#utility.yul\":4910:4913   */\n      dup4\n        /* \"#utility.yul\":4906:4922   */\n      add\n        /* \"#utility.yul\":4899:4926   */\n      mstore\n        /* \"#utility.yul\":4785:4933   */\n      pop\n      pop\n      pop\n      jump\t// out\n        /* \"#utility.yul\":4939:5364   */\n    tag_131:\n        /* \"#utility.yul\":5017:5022   */\n      0x00\n        /* \"#utility.yul\":5042:5108   */\n      tag_212\n        /* \"#utility.yul\":5058:5107   */\n      tag_213\n        /* \"#utility.yul\":5100:5106   */\n      dup5\n        /* \"#utility.yul\":5058:5107   */\n      tag_129\n      jump\t// in\n    tag_213:\n        /* \"#utility.yul\":5042:5108   */\n      tag_128\n      jump\t// in\n    tag_212:\n        /* \"#utility.yul\":5033:5108   */\n      swap1\n      pop\n        /* \"#utility.yul\":5131:5137   */\n      dup3\n        /* \"#utility.yul\":5124:5129   */\n      dup2\n        /* \"#utility.yul\":5117:5138   */\n      mstore\n        /* \"#utility.yul\":5169:5173   */\n      0x20\n        /* \"#utility.yul\":5162:5167   */\n      dup2\n        /* \"#utility.yul\":5158:5174   */\n      add\n        /* \"#utility.yul\":5207:5210   */\n      dup5\n        /* \"#utility.yul\":5198:5204   */\n      dup5\n        /* \"#utility.yul\":5193:5196   */\n      dup5\n        /* \"#utility.yul\":5189:5205   */\n      add\n        /* \"#utility.yul\":5186:5211   */\n      gt\n        /* \"#utility.yul\":5183:5295   */\n      iszero\n      tag_214\n      jumpi\n        /* \"#utility.yul\":5214:5293   */\n      tag_215\n      tag_125\n      jump\t// in\n    tag_215:\n        /* \"#utility.yul\":5183:5295   */\n    tag_214:\n        /* \"#utility.yul\":5304:5358   */\n      tag_216\n        /* \"#utility.yul\":5351:5357   */\n      dup5\n        /* \"#utility.yul\":5346:5349   */\n      dup3\n        /* \"#utility.yul\":5341:5344   */\n      dup6\n        /* \"#utility.yul\":5304:5358   */\n      tag_130\n      jump\t// in\n    tag_216:\n        /* \"#utility.yul\":5023:5364   */\n      pop\n        /* \"#utility.yul\":4939:5364   */\n      swap4\n      swap3\n      pop\n      pop\n      pop\n      jump\t// out\n        /* \"#utility.yul\":5384:5724   */\n    tag_132:\n        /* \"#utility.yul\":5440:5445   */\n      0x00\n        /* \"#utility.yul\":5489:5492   */\n      dup3\n        /* \"#utility.yul\":5482:5486   */\n      0x1f\n        /* \"#utility.yul\":5474:5480   */\n      dup4\n        /* \"#utility.yul\":5470:5487   */\n      add\n        /* \"#utility.yul\":5466:5493   */\n      slt\n        /* \"#utility.yul\":5456:5578   */\n      tag_218\n      jumpi\n        /* \"#utility.yul\":5497:5576   */\n      tag_219\n      tag_124\n      jump\t// in\n    tag_219:\n        /* \"#utility.yul\":5456:5578   */\n    tag_218:\n        /* \"#utility.yul\":5614:5620   */\n      dup2\n        /* \"#utility.yul\":5601:5621   */\n      calldataload\n        /* \"#utility.yul\":5639:5718   */\n      tag_220\n        /* \"#utility.yul\":5714:5717   */\n      dup5\n        /* \"#utility.yul\":5706:5712   */\n      dup3\n        /* \"#utility.yul\":5699:5703   */\n      0x20\n        /* \"#utility.yul\":5691:5697   */\n      dup7\n        /* \"#utility.yul\":5687:5704   */\n      add\n        /* \"#utility.yul\":5639:5718   */\n      tag_131\n      jump\t// in\n    tag_220:\n        /* \"#utility.yul\":5630:5718   */\n      swap2\n      pop\n        /* \"#utility.yul\":5446:5724   */\n      pop\n        /* \"#utility.yul\":5384:5724   */\n      swap3\n      swap2\n      pop\n      pop\n      jump\t// out\n        /* \"#utility.yul\":5730:6239   */\n    tag_38:\n        /* \"#utility.yul\":5799:5805   */\n      0x00\n        /* \"#utility.yul\":5848:5850   */\n      0x20\n        /* \"#utility.yul\":5836:5845   */\n      dup3\n        /* \"#utility.yul\":5827:5834   */\n      dup5\n        /* \"#utility.yul\":5823:5846   */\n      sub\n        /* \"#utility.yul\":5819:5851   */\n      slt\n        /* \"#utility.yul\":5816:5935   */\n      iszero\n      tag_222\n      jumpi\n        /* \"#utility.yul\":5854:5933   */\n      tag_223\n      tag_110\n      jump\t// in\n    tag_223:\n        /* \"#utility.yul\":5816:5935   */\n    tag_222:\n        /* \"#utility.yul\":6002:6003   */\n      0x00\n        /* \"#utility.yul\":5991:6000   */\n      dup3\n        /* \"#utility.yul\":5987:6004   */\n      add\n        /* \"#utility.yul\":5974:6005   */\n      calldataload\n        /* \"#utility.yul\":6032:6050   */\n      0xffffffffffffffff\n        /* \"#utility.yul\":6024:6030   */\n      dup2\n        /* \"#utility.yul\":6021:6051   */\n      gt\n        /* \"#utility.yul\":6018:6135   */\n      iszero\n      tag_224\n      jumpi\n        /* \"#utility.yul\":6054:6133   */\n      tag_225\n      tag_111\n      jump\t// in\n    tag_225:\n        /* \"#utility.yul\":6018:6135   */\n    tag_224:\n        /* \"#utility.yul\":6159:6222   */\n      tag_226\n        /* \"#utility.yul\":6214:6221   */\n      dup5\n        /* \"#utility.yul\":6205:6211   */\n      dup3\n        /* \"#utility.yul\":6194:6203   */\n      dup6\n        /* \"#utility.yul\":6190:6212   */\n      add\n        /* \"#utility.yul\":6159:6222   */\n      tag_132\n      jump\t// in\n    tag_226:\n        /* \"#utility.yul\":6149:6222   */\n      swap2\n      pop\n        /* \"#utility.yul\":5945:6232   */\n      pop\n        /* \"#utility.yul\":5730:6239   */\n      swap3\n      swap2\n      pop\n      pop\n      jump\t// out\n        /* \"#utility.yul\":6245:6467   */\n    tag_44:\n        /* \"#utility.yul\":6338:6342   */\n      0x00\n        /* \"#utility.yul\":6376:6378   */\n      0x20\n        /* \"#utility.yul\":6365:6374   */\n      dup3\n        /* \"#utility.yul\":6361:6379   */\n      add\n        /* \"#utility.yul\":6353:6379   */\n      swap1\n      pop\n        /* \"#utility.yul\":6389:6460   */\n      tag_228\n        /* \"#utility.yul\":6457:6458   */\n      0x00\n        /* \"#utility.yul\":6446:6455   */\n      dup4\n        /* \"#utility.yul\":6442:6459   */\n      add\n        /* \"#utility.yul\":6433:6439   */\n      dup5\n        /* \"#utility.yul\":6389:6460   */\n      tag_116\n      jump\t// in\n    tag_228:\n        /* \"#utility.yul\":6245:6467   */\n      swap3\n      swap2\n      pop\n      pop\n      jump\t// out\n        /* \"#utility.yul\":6473:6694   */\n    tag_133:\n        /* \"#utility.yul\":6613:6647   */\n      0x4f6e6c79206f776e65722063616e20706572666f726d20746869732061637469\n        /* \"#utility.yul\":6609:6610   */\n      0x00\n        /* \"#utility.yul\":6601:6607   */\n      dup3\n        /* \"#utility.yul\":6597:6611   */\n      add\n        /* \"#utility.yul\":6590:6648   */\n      mstore\n        /* \"#utility.yul\":6682:6686   */\n      0x6f6e000000000000000000000000000000000000000000000000000000000000\n        /* \"#utility.yul\":6677:6679   */\n      0x20\n        /* \"#utility.yul\":6669:6675   */\n      dup3\n        /* \"#utility.yul\":6665:6680   */\n      add\n        /* \"#utility.yul\":6658:6687   */\n      mstore\n        /* \"#utility.yul\":6473:6694   */\n      pop\n      jump\t// out\n        /* \"#utility.yul\":6700:7066   */\n    tag_134:\n        /* \"#utility.yul\":6842:6845   */\n      0x00\n        /* \"#utility.yul\":6863:6930   */\n      tag_231\n        /* \"#utility.yul\":6927:6929   */\n      0x22\n        /* \"#utility.yul\":6922:6925   */\n      dup4\n        /* \"#utility.yul\":6863:6930   */\n      tag_118\n      jump\t// in\n    tag_231:\n        /* \"#utility.yul\":6856:6930   */\n      swap2\n      pop\n        /* \"#utility.yul\":6939:7032   */\n      tag_232\n        /* \"#utility.yul\":7028:7031   */\n      dup3\n        /* \"#utility.yul\":6939:7032   */\n      tag_133\n      jump\t// in\n    tag_232:\n        /* \"#utility.yul\":7057:7059   */\n      0x40\n        /* \"#utility.yul\":7052:7055   */\n      dup3\n        /* \"#utility.yul\":7048:7060   */\n      add\n        /* \"#utility.yul\":7041:7060   */\n      swap1\n      pop\n        /* \"#utility.yul\":6700:7066   */\n      swap2\n      swap1\n      pop\n      jump\t// out\n        /* \"#utility.yul\":7072:7491   */\n    tag_61:\n        /* \"#utility.yul\":7238:7242   */\n      0x00\n        /* \"#utility.yul\":7276:7278   */\n      0x20\n        /* \"#utility.yul\":7265:7274   */\n      dup3\n        /* \"#utility.yul\":7261:7279   */\n      add\n        /* \"#utility.yul\":7253:7279   */\n      swap1\n      pop\n        /* \"#utility.yul\":7325:7334   */\n      dup2\n        /* \"#utility.yul\":7319:7323   */\n      dup2\n        /* \"#utility.yul\":7315:7335   */\n      sub\n        /* \"#utility.yul\":7311:7312   */\n      0x00\n        /* \"#utility.yul\":7300:7309   */\n      dup4\n        /* \"#utility.yul\":7296:7313   */\n      add\n        /* \"#utility.yul\":7289:7336   */\n      mstore\n        /* \"#utility.yul\":7353:7484   */\n      tag_234\n        /* \"#utility.yul\":7479:7483   */\n      dup2\n        /* \"#utility.yul\":7353:7484   */\n      tag_134\n      jump\t// in\n    tag_234:\n        /* \"#utility.yul\":7345:7484   */\n      swap1\n      pop\n        /* \"#utility.yul\":7072:7491   */\n      swap2\n      swap1\n      pop\n      jump\t// out\n        /* \"#utility.yul\":7497:7677   */\n    tag_73:\n        /* \"#utility.yul\":7545:7622   */\n      0x4e487b7100000000000000000000000000000000000000000000000000000000\n        /* \"#utility.yul\":7542:7543   */\n      0x00\n        /* \"#utility.yul\":7535:7623   */\n      mstore\n        /* \"#utility.yul\":7642:7646   */\n      0x32\n        /* \"#utility.yul\":7639:7640   */\n      0x04\n        /* \"#utility.yul\":7632:7647   */\n      mstore\n        /* \"#utility.yul\":7666:7670   */\n      0x24\n        /* \"#utility.yul\":7663:7664   */\n      0x00\n        /* \"#utility.yul\":7656:7671   */\n      revert\n        /* \"#utility.yul\":7683:7863   */\n    tag_135:\n        /* \"#utility.yul\":7731:7808   */\n      0x4e487b7100000000000000000000000000000000000000000000000000000000\n        /* \"#utility.yul\":7728:7729   */\n      0x00\n        /* \"#utility.yul\":7721:7809   */\n      mstore\n        /* \"#utility.yul\":7828:7832   */\n      0x22\n        /* \"#utility.yul\":7825:7826   */\n      0x04\n        /* \"#utility.yul\":7818:7833   */\n      mstore\n        /* \"#utility.yul\":7852:7856   */\n      0x24\n        /* \"#utility.yul\":7849:7850   */\n      0x00\n        /* \"#utility.yul\":7842:7857   */\n      revert\n        /* \"#utility.yul\":7869:8189   */\n    tag_76:\n        /* \"#utility.yul\":7913:7919   */\n      0x00\n        /* \"#utility.yul\":7950:7951   */\n      0x02\n        /* \"#utility.yul\":7944:7948   */\n      dup3\n        /* \"#utility.yul\":7940:7952   */\n      div\n        /* \"#utility.yul\":7930:7952   */\n      swap1\n      pop\n        /* \"#utility.yul\":7997:7998   */\n      0x01\n        /* \"#utility.yul\":7991:7995   */\n      dup3\n        /* \"#utility.yul\":7987:7999   */\n      and\n        /* \"#utility.yul\":8018:8036   */\n      dup1\n        /* \"#utility.yul\":8008:8089   */\n      tag_238\n      jumpi\n        /* \"#utility.yul\":8074:8078   */\n      0x7f\n        /* \"#utility.yul\":8066:8072   */\n      dup3\n        /* \"#utility.yul\":8062:8079   */\n      and\n        /* \"#utility.yul\":8052:8079   */\n      swap2\n      pop\n        /* \"#utility.yul\":8008:8089   */\n    tag_238:\n        /* \"#utility.yul\":8136:8138   */\n      0x20\n        /* \"#utility.yul\":8128:8134   */\n      dup3\n        /* \"#utility.yul\":8125:8139   */\n      lt\n        /* \"#utility.yul\":8105:8123   */\n      dup2\n        /* \"#utility.yul\":8102:8140   */\n      sub\n        /* \"#utility.yul\":8099:8183   */\n      tag_239\n      jumpi\n        /* \"#utility.yul\":8155:8173   */\n      tag_240\n      tag_135\n      jump\t// in\n    tag_240:\n        /* \"#utility.yul\":8099:8183   */\n    tag_239:\n        /* \"#utility.yul\":7920:8189   */\n      pop\n        /* \"#utility.yul\":7869:8189   */\n      swap2\n      swap1\n      pop\n      jump\t// out\n        /* \"#utility.yul\":8195:8372   */\n    tag_136:\n        /* \"#utility.yul\":8335:8364   */\n      0x54697070696e672069732063757272656e746c79207061757365640000000000\n        /* \"#utility.yul\":8331:8332   */\n      0x00\n        /* \"#utility.yul\":8323:8329   */\n      dup3\n        /* \"#utility.yul\":8319:8333   */\n      add\n        /* \"#utility.yul\":8312:8365   */\n      mstore\n        /* \"#utility.yul\":8195:8372   */\n      pop\n      jump\t// out\n        /* \"#utility.yul\":8378:8744   */\n    tag_137:\n        /* \"#utility.yul\":8520:8523   */\n      0x00\n        /* \"#utility.yul\":8541:8608   */\n      tag_243\n        /* \"#utility.yul\":8605:8607   */\n      0x1b\n        /* \"#utility.yul\":8600:8603   */\n      dup4\n        /* \"#utility.yul\":8541:8608   */\n      tag_118\n      jump\t// in\n    tag_243:\n        /* \"#utility.yul\":8534:8608   */\n      swap2\n      pop\n        /* \"#utility.yul\":8617:8710   */\n      tag_244\n        /* \"#utility.yul\":8706:8709   */\n      dup3\n        /* \"#utility.yul\":8617:8710   */\n      tag_136\n      jump\t// in\n    tag_244:\n        /* \"#utility.yul\":8735:8737   */\n      0x20\n        /* \"#utility.yul\":8730:8733   */\n      dup3\n        /* \"#utility.yul\":8726:8738   */\n      add\n        /* \"#utility.yul\":8719:8738   */\n      swap1\n      pop\n        /* \"#utility.yul\":8378:8744   */\n      swap2\n      swap1\n      pop\n      jump\t// out\n        /* \"#utility.yul\":8750:9169   */\n    tag_84:\n        /* \"#utility.yul\":8916:8920   */\n      0x00\n        /* \"#utility.yul\":8954:8956   */\n      0x20\n        /* \"#utility.yul\":8943:8952   */\n      dup3\n        /* \"#utility.yul\":8939:8957   */\n      add\n        /* \"#utility.yul\":8931:8957   */\n      swap1\n      pop\n        /* \"#utility.yul\":9003:9012   */\n      dup2\n        /* \"#utility.yul\":8997:9001   */\n      dup2\n        /* \"#utility.yul\":8993:9013   */\n      sub\n        /* \"#utility.yul\":8989:8990   */\n      0x00\n        /* \"#utility.yul\":8978:8987   */\n      dup4\n        /* \"#utility.yul\":8974:8991   */\n      add\n        /* \"#utility.yul\":8967:9014   */\n      mstore\n        /* \"#utility.yul\":9031:9162   */\n      tag_246\n        /* \"#utility.yul\":9157:9161   */\n      dup2\n        /* \"#utility.yul\":9031:9162   */\n      tag_137\n      jump\t// in\n    tag_246:\n        /* \"#utility.yul\":9023:9162   */\n      swap1\n      pop\n        /* \"#utility.yul\":8750:9169   */\n      swap2\n      swap1\n      pop\n      jump\t// out\n        /* \"#utility.yul\":9175:9342   */\n    tag_138:\n        /* \"#utility.yul\":9315:9334   */\n      0x54697020697320746f6f20736d616c6c21000000000000000000000000000000\n        /* \"#utility.yul\":9311:9312   */\n      0x00\n        /* \"#utility.yul\":9303:9309   */\n      dup3\n        /* \"#utility.yul\":9299:9313   */\n      add\n        /* \"#utility.yul\":9292:9335   */\n      mstore\n        /* \"#utility.yul\":9175:9342   */\n      pop\n      jump\t// out\n        /* \"#utility.yul\":9348:9714   */\n    tag_139:\n        /* \"#utility.yul\":9490:9493   */\n      0x00\n        /* \"#utility.yul\":9511:9578   */\n      tag_249\n        /* \"#utility.yul\":9575:9577   */\n      0x11\n        /* \"#utility.yul\":9570:9573   */\n      dup4\n        /* \"#utility.yul\":9511:9578   */\n      tag_118\n      jump\t// in\n    tag_249:\n        /* \"#utility.yul\":9504:9578   */\n      swap2\n      pop\n        /* \"#utility.yul\":9587:9680   */\n      tag_250\n        /* \"#utility.yul\":9676:9679   */\n      dup3\n        /* \"#utility.yul\":9587:9680   */\n      tag_138\n      jump\t// in\n    tag_250:\n        /* \"#utility.yul\":9705:9707   */\n      0x20\n        /* \"#utility.yul\":9700:9703   */\n      dup3\n        /* \"#utility.yul\":9696:9708   */\n      add\n        /* \"#utility.yul\":9689:9708   */\n      swap1\n      pop\n        /* \"#utility.yul\":9348:9714   */\n      swap2\n      swap1\n      pop\n      jump\t// out\n        /* \"#utility.yul\":9720:10139   */\n    tag_88:\n        /* \"#utility.yul\":9886:9890   */\n      0x00\n        /* \"#utility.yul\":9924:9926   */\n      0x20\n        /* \"#utility.yul\":9913:9922   */\n      dup3\n        /* \"#utility.yul\":9909:9927   */\n      add\n        /* \"#utility.yul\":9901:9927   */\n      swap1\n      pop\n        /* \"#utility.yul\":9973:9982   */\n      dup2\n        /* \"#utility.yul\":9967:9971   */\n      dup2\n        /* \"#utility.yul\":9963:9983   */\n      sub\n        /* \"#utility.yul\":9959:9960   */\n      0x00\n        /* \"#utility.yul\":9948:9957   */\n      dup4\n        /* \"#utility.yul\":9944:9961   */\n      add\n        /* \"#utility.yul\":9937:9984   */\n      mstore\n        /* \"#utility.yul\":10001:10132   */\n      tag_252\n        /* \"#utility.yul\":10127:10131   */\n      dup2\n        /* \"#utility.yul\":10001:10132   */\n      tag_139\n      jump\t// in\n    tag_252:\n        /* \"#utility.yul\":9993:10132   */\n      swap1\n      pop\n        /* \"#utility.yul\":9720:10139   */\n      swap2\n      swap1\n      pop\n      jump\t// out\n        /* \"#utility.yul\":10145:10286   */\n    tag_140:\n        /* \"#utility.yul\":10194:10198   */\n      0x00\n        /* \"#utility.yul\":10217:10220   */\n      dup2\n        /* \"#utility.yul\":10209:10220   */\n      swap1\n      pop\n        /* \"#utility.yul\":10240:10243   */\n      dup2\n        /* \"#utility.yul\":10237:10238   */\n      0x00\n        /* \"#utility.yul\":10230:10244   */\n      mstore\n        /* \"#utility.yul\":10274:10278   */\n      0x20\n        /* \"#utility.yul\":10271:10272   */\n      0x00\n        /* \"#utility.yul\":10261:10279   */\n      keccak256\n        /* \"#utility.yul\":10253:10279   */\n      swap1\n      pop\n        /* \"#utility.yul\":10145:10286   */\n      swap2\n      swap1\n      pop\n      jump\t// out\n        /* \"#utility.yul\":10292:10385   */\n    tag_141:\n        /* \"#utility.yul\":10329:10335   */\n      0x00\n        /* \"#utility.yul\":10376:10378   */\n      0x20\n        /* \"#utility.yul\":10371:10373   */\n      0x1f\n        /* \"#utility.yul\":10364:10369   */\n      dup4\n        /* \"#utility.yul\":10360:10374   */\n      add\n        /* \"#utility.yul\":10356:10379   */\n      div\n        /* \"#utility.yul\":10346:10379   */\n      swap1\n      pop\n        /* \"#utility.yul\":10292:10385   */\n      swap2\n      swap1\n      pop\n      jump\t// out\n        /* \"#utility.yul\":10391:10498   */\n    tag_142:\n        /* \"#utility.yul\":10435:10443   */\n      0x00\n        /* \"#utility.yul\":10485:10490   */\n      dup3\n        /* \"#utility.yul\":10479:10483   */\n      dup3\n        /* \"#utility.yul\":10475:10491   */\n      shl\n        /* \"#utility.yul\":10454:10491   */\n      swap1\n      pop\n        /* \"#utility.yul\":10391:10498   */\n      swap3\n      swap2\n      pop\n      pop\n      jump\t// out\n        /* \"#utility.yul\":10504:10897   */\n    tag_143:\n        /* \"#utility.yul\":10573:10579   */\n      0x00\n        /* \"#utility.yul\":10623:10624   */\n      0x08\n        /* \"#utility.yul\":10611:10621   */\n      dup4\n        /* \"#utility.yul\":10607:10625   */\n      mul\n        /* \"#utility.yul\":10646:10743   */\n      tag_257\n        /* \"#utility.yul\":10676:10742   */\n      0xffffffffffffffffffffffffffffffffffffffffffffffffffffffffffffffff\n        /* \"#utility.yul\":10665:10674   */\n      dup3\n        /* \"#utility.yul\":10646:10743   */\n      tag_142\n      jump\t// in\n    tag_257:\n        /* \"#utility.yul\":10764:10803   */\n      tag_258\n        /* \"#utility.yul\":10794:10802   */\n      dup7\n        /* \"#utility.yul\":10783:10792   */\n      dup4\n        /* \"#utility.yul\":10764:10803   */\n      tag_142\n      jump\t// in\n    tag_258:\n        /* \"#utility.yul\":10752:10803   */\n      swap6\n      pop\n        /* \"#utility.yul\":10836:10840   */\n      dup1\n        /* \"#utility.yul\":10832:10841   */\n      not\n        /* \"#utility.yul\":10825:10830   */\n      dup5\n        /* \"#utility.yul\":10821:10842   */\n      and\n        /* \"#utility.yul\":10812:10842   */\n      swap4\n      pop\n        /* \"#utility.yul\":10885:10889   */\n      dup1\n        /* \"#utility.yul\":10875:10883   */\n      dup7\n        /* \"#utility.yul\":10871:10890   */\n      and\n        /* \"#utility.yul\":10864:10869   */\n      dup5\n        /* \"#utility.yul\":10861:10891   */\n      or\n        /* \"#utility.yul\":10851:10891   */\n      swap3\n      pop\n        /* \"#utility.yul\":10580:10897   */\n      pop\n      pop\n        /* \"#utility.yul\":10504:10897   */\n      swap4\n      swap3\n      pop\n      pop\n      pop\n      jump\t// out\n        /* \"#utility.yul\":10903:10963   */\n    tag_144:\n        /* \"#utility.yul\":10931:10934   */\n      0x00\n        /* \"#utility.yul\":10952:10957   */\n      dup2\n        /* \"#utility.yul\":10945:10957   */\n      swap1\n      pop\n        /* \"#utility.yul\":10903:10963   */\n      swap2\n      swap1\n      pop\n      jump\t// out\n        /* \"#utility.yul\":10969:11111   */\n    tag_145:\n        /* \"#utility.yul\":11019:11028   */\n      0x00\n        /* \"#utility.yul\":11052:11105   */\n      tag_261\n        /* \"#utility.yul\":11070:11104   */\n      tag_262\n        /* \"#utility.yul\":11079:11103   */\n      tag_263\n        /* \"#utility.yul\":11097:11102   */\n      dup5\n        /* \"#utility.yul\":11079:11103   */\n      tag_107\n      jump\t// in\n    tag_263:\n        /* \"#utility.yul\":11070:11104   */\n      tag_144\n      jump\t// in\n    tag_262:\n        /* \"#utility.yul\":11052:11105   */\n      tag_107\n      jump\t// in\n    tag_261:\n        /* \"#utility.yul\":11039:11105   */\n      swap1\n      pop\n        /* \"#utility.yul\":10969:11111   */\n      swap2\n      swap1\n      pop\n      jump\t// out\n        /* \"#utility.yul\":11117:11192   */\n    tag_146:\n        /* \"#utility.yul\":11160:11163   */\n      0x00\n        /* \"#utility.yul\":11181:11186   */\n      dup2\n        /* \"#utility.yul\":11174:11186   */\n      swap1\n      pop\n        /* \"#utility.yul\":11117:11192   */\n      swap2\n      swap1\n      pop\n      jump\t// out\n        /* \"#utility.yul\":11198:11467   */\n    tag_147:\n        /* \"#utility.yul\":11308:11347   */\n      tag_266\n        /* \"#utility.yul\":11339:11346   */\n      dup4\n        /* \"#utility.yul\":11308:11347   */\n      tag_145\n      jump\t// in\n    tag_266:\n        /* \"#utility.yul\":11369:11460   */\n      tag_267\n        /* \"#utility.yul\":11418:11459   */\n      tag_268\n        /* \"#utility.yul\":11442:11458   */\n      dup3\n        /* \"#utility.yul\":11418:11459   */\n      tag_146\n      jump\t// in\n    tag_268:\n        /* \"#utility.yul\":11410:11416   */\n      dup5\n        /* \"#utility.yul\":11403:11407   */\n      dup5\n        /* \"#utility.yul\":11397:11408   */\n      sload\n        /* \"#utility.yul\":11369:11460   */\n      tag_143\n      jump\t// in\n    tag_267:\n        /* \"#utility.yul\":11363:11367   */\n      dup3\n        /* \"#utility.yul\":11356:11461   */\n      sstore\n        /* \"#utility.yul\":11274:11467   */\n      pop\n        /* \"#utility.yul\":11198:11467   */\n      pop\n      pop\n      pop\n      jump\t// out\n        /* \"#utility.yul\":11473:11546   */\n    tag_148:\n        /* \"#utility.yul\":11518:11521   */\n      0x00\n        /* \"#utility.yul\":11473:11546   */\n      swap1\n      jump\t// out\n        /* \"#utility.yul\":11552:11741   */\n    tag_149:\n        /* \"#utility.yul\":11629:11661   */\n      tag_271\n      tag_148\n      jump\t// in\n    tag_271:\n        /* \"#utility.yul\":11670:11735   */\n      tag_272\n        /* \"#utility.yul\":11728:11734   */\n      dup2\n        /* \"#utility.yul\":11720:11726   */\n      dup5\n        /* \"#utility.yul\":11714:11718   */\n      dup5\n        /* \"#utility.yul\":11670:11735   */\n      tag_147\n      jump\t// in\n    tag_272:\n        /* \"#utility.yul\":11605:11741   */\n      pop\n        /* \"#utility.yul\":11552:11741   */\n      pop\n      pop\n      jump\t// out\n        /* \"#utility.yul\":11747:11933   */\n    tag_150:\n        /* \"#utility.yul\":11807:11927   */\n    tag_274:\n        /* \"#utility.yul\":11824:11827   */\n      dup2\n        /* \"#utility.yul\":11817:11822   */\n      dup2\n        /* \"#utility.yul\":11814:11828   */\n      lt\n        /* \"#utility.yul\":11807:11927   */\n      iszero\n      tag_276\n      jumpi\n        /* \"#utility.yul\":11878:11917   */\n      tag_277\n        /* \"#utility.yul\":11915:11916   */\n      0x00\n        /* \"#utility.yul\":11908:11913   */\n      dup3\n        /* \"#utility.yul\":11878:11917   */\n      tag_149\n      jump\t// in\n    tag_277:\n        /* \"#utility.yul\":11851:11852   */\n      0x01\n        /* \"#utility.yul\":11844:11849   */\n      dup2\n        /* \"#utility.yul\":11840:11853   */\n      add\n        /* \"#utility.yul\":11831:11853   */\n      swap1\n      pop\n        /* \"#utility.yul\":11807:11927   */\n      jump(tag_274)\n    tag_276:\n        /* \"#utility.yul\":11747:11933   */\n      pop\n      pop\n      jump\t// out\n        /* \"#utility.yul\":11939:12482   */\n    tag_151:\n        /* \"#utility.yul\":12040:12042   */\n      0x1f\n        /* \"#utility.yul\":12035:12038   */\n      dup3\n        /* \"#utility.yul\":12032:12043   */\n      gt\n        /* \"#utility.yul\":12029:12475   */\n      iszero\n      tag_279\n      jumpi\n        /* \"#utility.yul\":12074:12112   */\n      tag_280\n        /* \"#utility.yul\":12106:12111   */\n      dup2\n        /* \"#utility.yul\":12074:12112   */\n      tag_140\n      jump\t// in\n    tag_280:\n        /* \"#utility.yul\":12158:12187   */\n      tag_281\n        /* \"#utility.yul\":12176:12186   */\n      dup5\n        /* \"#utility.yul\":12158:12187   */\n      tag_141\n      jump\t// in\n    tag_281:\n        /* \"#utility.yul\":12148:12156   */\n      dup2\n        /* \"#utility.yul\":12144:12188   */\n      add\n        /* \"#utility.yul\":12341:12343   */\n      0x20\n        /* \"#utility.yul\":12329:12339   */\n      dup6\n        /* \"#utility.yul\":12326:12344   */\n      lt\n        /* \"#utility.yul\":12323:12372   */\n      iszero\n      tag_282\n      jumpi\n        /* \"#utility.yul\":12362:12370   */\n      dup2\n        /* \"#utility.yul\":12347:12370   */\n      swap1\n      pop\n        /* \"#utility.yul\":12323:12372   */\n    tag_282:\n        /* \"#utility.yul\":12385:12465   */\n      tag_283\n        /* \"#utility.yul\":12441:12463   */\n      tag_284\n        /* \"#utility.yul\":12459:12462   */\n      dup6\n        /* \"#utility.yul\":12441:12463   */\n      tag_141\n      jump\t// in\n    tag_284:\n        /* \"#utility.yul\":12431:12439   */\n      dup4\n        /* \"#utility.yul\":12427:12464   */\n      add\n        /* \"#utility.yul\":12414:12425   */\n      dup3\n        /* \"#utility.yul\":12385:12465   */\n      tag_150\n      jump\t// in\n    tag_283:\n        /* \"#utility.yul\":12044:12475   */\n      pop\n      pop\n        /* \"#utility.yul\":12029:12475   */\n    tag_279:\n        /* \"#utility.yul\":11939:12482   */\n      pop\n      pop\n      pop\n      jump\t// out\n        /* \"#utility.yul\":12488:12605   */\n    tag_152:\n        /* \"#utility.yul\":12542:12550   */\n      0x00\n        /* \"#utility.yul\":12592:12597   */\n      dup3\n        /* \"#utility.yul\":12586:12590   */\n      dup3\n        /* \"#utility.yul\":12582:12598   */\n      shr\n        /* \"#utility.yul\":12561:12598   */\n      swap1\n      pop\n        /* \"#utility.yul\":12488:12605   */\n      swap3\n      swap2\n      pop\n      pop\n      jump\t// out\n        /* \"#utility.yul\":12611:12780   */\n    tag_153:\n        /* \"#utility.yul\":12655:12661   */\n      0x00\n        /* \"#utility.yul\":12688:12739   */\n      tag_287\n        /* \"#utility.yul\":12736:12737   */\n      0x00\n        /* \"#utility.yul\":12732:12738   */\n      not\n        /* \"#utility.yul\":12724:12729   */\n      dup5\n        /* \"#utility.yul\":12721:12722   */\n      0x08\n        /* \"#utility.yul\":12717:12730   */\n      mul\n        /* \"#utility.yul\":12688:12739   */\n      tag_152\n      jump\t// in\n    tag_287:\n        /* \"#utility.yul\":12684:12740   */\n      not\n        /* \"#utility.yul\":12769:12773   */\n      dup1\n        /* \"#utility.yul\":12763:12767   */\n      dup4\n        /* \"#utility.yul\":12759:12774   */\n      and\n        /* \"#utility.yul\":12749:12774   */\n      swap2\n      pop\n        /* \"#utility.yul\":12662:12780   */\n      pop\n        /* \"#utility.yul\":12611:12780   */\n      swap3\n      swap2\n      pop\n      pop\n      jump\t// out\n        /* \"#utility.yul\":12785:13080   */\n    tag_154:\n        /* \"#utility.yul\":12861:12865   */\n      0x00\n        /* \"#utility.yul\":13007:13036   */\n      tag_289\n        /* \"#utility.yul\":13032:13035   */\n      dup4\n        /* \"#utility.yul\":13026:13030   */\n      dup4\n        /* \"#utility.yul\":13007:13036   */\n      tag_153\n      jump\t// in\n    tag_289:\n        /* \"#utility.yul\":12999:13036   */\n      swap2\n      pop\n        /* \"#utility.yul\":13069:13072   */\n      dup3\n        /* \"#utility.yul\":13066:13067   */\n      0x02\n        /* \"#utility.yul\":13062:13073   */\n      mul\n        /* \"#utility.yul\":13056:13060   */\n      dup3\n        /* \"#utility.yul\":13053:13074   */\n      or\n        /* \"#utility.yul\":13045:13074   */\n      swap1\n      pop\n        /* \"#utility.yul\":12785:13080   */\n      swap3\n      swap2\n      pop\n      pop\n      jump\t// out\n        /* \"#utility.yul\":13085:14480   */\n    tag_92:\n        /* \"#utility.yul\":13202:13239   */\n      tag_291\n        /* \"#utility.yul\":13235:13238   */\n      dup3\n        /* \"#utility.yul\":13202:13239   */\n      tag_117\n      jump\t// in\n    tag_291:\n        /* \"#utility.yul\":13304:13322   */\n      0xffffffffffffffff\n        /* \"#utility.yul\":13296:13302   */\n      dup2\n        /* \"#utility.yul\":13293:13323   */\n      gt\n        /* \"#utility.yul\":13290:13346   */\n      iszero\n      tag_292\n      jumpi\n        /* \"#utility.yul\":13326:13344   */\n      tag_293\n      tag_126\n      jump\t// in\n    tag_293:\n        /* \"#utility.yul\":13290:13346   */\n    tag_292:\n        /* \"#utility.yul\":13370:13408   */\n      tag_294\n        /* \"#utility.yul\":13402:13406   */\n      dup3\n        /* \"#utility.yul\":13396:13407   */\n      sload\n        /* \"#utility.yul\":13370:13408   */\n      tag_76\n      jump\t// in\n    tag_294:\n        /* \"#utility.yul\":13455:13522   */\n      tag_295\n        /* \"#utility.yul\":13515:13521   */\n      dup3\n        /* \"#utility.yul\":13507:13513   */\n      dup3\n        /* \"#utility.yul\":13501:13505   */\n      dup6\n        /* \"#utility.yul\":13455:13522   */\n      tag_151\n      jump\t// in\n    tag_295:\n        /* \"#utility.yul\":13549:13550   */\n      0x00\n        /* \"#utility.yul\":13573:13577   */\n      0x20\n        /* \"#utility.yul\":13560:13577   */\n      swap1\n      pop\n        /* \"#utility.yul\":13605:13607   */\n      0x1f\n        /* \"#utility.yul\":13597:13603   */\n      dup4\n        /* \"#utility.yul\":13594:13608   */\n      gt\n        /* \"#utility.yul\":13622:13623   */\n      0x01\n        /* \"#utility.yul\":13617:14235   */\n      dup2\n      eq\n      tag_297\n      jumpi\n        /* \"#utility.yul\":14279:14280   */\n      0x00\n        /* \"#utility.yul\":14296:14302   */\n      dup5\n        /* \"#utility.yul\":14293:14370   */\n      iszero\n      tag_298\n      jumpi\n        /* \"#utility.yul\":14345:14354   */\n      dup3\n        /* \"#utility.yul\":14340:14343   */\n      dup8\n        /* \"#utility.yul\":14336:14355   */\n      add\n        /* \"#utility.yul\":14330:14356   */\n      mload\n        /* \"#utility.yul\":14321:14356   */\n      swap1\n      pop\n        /* \"#utility.yul\":14293:14370   */\n    tag_298:\n        /* \"#utility.yul\":14396:14463   */\n      tag_299\n        /* \"#utility.yul\":14456:14462   */\n      dup6\n        /* \"#utility.yul\":14449:14454   */\n      dup3\n        /* \"#utility.yul\":14396:14463   */\n      tag_154\n      jump\t// in\n    tag_299:\n        /* \"#utility.yul\":14390:14394   */\n      dup7\n        /* \"#utility.yul\":14383:14464   */\n      sstore\n        /* \"#utility.yul\":14252:14474   */\n      pop\n        /* \"#utility.yul\":13587:14474   */\n      jump(tag_296)\n        /* \"#utility.yul\":13617:14235   */\n    tag_297:\n        /* \"#utility.yul\":13669:13673   */\n      0x1f\n        /* \"#utility.yul\":13665:13674   */\n      not\n        /* \"#utility.yul\":13657:13663   */\n      dup5\n        /* \"#utility.yul\":13653:13675   */\n      and\n        /* \"#utility.yul\":13703:13740   */\n      tag_300\n        /* \"#utility.yul\":13735:13739   */\n      dup7\n        /* \"#utility.yul\":13703:13740   */\n      tag_140\n      jump\t// in\n    tag_300:\n        /* \"#utility.yul\":13762:13763   */\n      0x00\n        /* \"#utility.yul\":13776:13984   */\n    tag_301:\n        /* \"#utility.yul\":13790:13797   */\n      dup3\n        /* \"#utility.yul\":13787:13788   */\n      dup2\n        /* \"#utility.yul\":13784:13798   */\n      lt\n        /* \"#utility.yul\":13776:13984   */\n      iszero\n      tag_303\n      jumpi\n        /* \"#utility.yul\":13869:13878   */\n      dup5\n        /* \"#utility.yul\":13864:13867   */\n      dup10\n        /* \"#utility.yul\":13860:13879   */\n      add\n        /* \"#utility.yul\":13854:13880   */\n      mload\n        /* \"#utility.yul\":13846:13852   */\n      dup3\n        /* \"#utility.yul\":13839:13881   */\n      sstore\n        /* \"#utility.yul\":13920:13921   */\n      0x01\n        /* \"#utility.yul\":13912:13918   */\n      dup3\n        /* \"#utility.yul\":13908:13922   */\n      add\n        /* \"#utility.yul\":13898:13922   */\n      swap2\n      pop\n        /* \"#utility.yul\":13967:13969   */\n      0x20\n        /* \"#utility.yul\":13956:13965   */\n      dup6\n        /* \"#utility.yul\":13952:13970   */\n      add\n        /* \"#utility.yul\":13939:13970   */\n      swap5\n      pop\n        /* \"#utility.yul\":13813:13817   */\n      0x20\n        /* \"#utility.yul\":13810:13811   */\n      dup2\n        /* \"#utility.yul\":13806:13818   */\n      add\n        /* \"#utility.yul\":13801:13818   */\n      swap1\n      pop\n        /* \"#utility.yul\":13776:13984   */\n      jump(tag_301)\n    tag_303:\n        /* \"#utility.yul\":14012:14018   */\n      dup7\n        /* \"#utility.yul\":14003:14010   */\n      dup4\n        /* \"#utility.yul\":14000:14019   */\n      lt\n        /* \"#utility.yul\":13997:14176   */\n      iszero\n      tag_304\n      jumpi\n        /* \"#utility.yul\":14070:14079   */\n      dup5\n        /* \"#utility.yul\":14065:14068   */\n      dup10\n        /* \"#utility.yul\":14061:14080   */\n      add\n        /* \"#utility.yul\":14055:14081   */\n      mload\n        /* \"#utility.yul\":14113:14161   */\n      tag_305\n        /* \"#utility.yul\":14155:14159   */\n      0x1f\n        /* \"#utility.yul\":14147:14153   */\n      dup10\n        /* \"#utility.yul\":14143:14160   */\n      and\n        /* \"#utility.yul\":14132:14141   */\n      dup3\n        /* \"#utility.yul\":14113:14161   */\n      tag_153\n      jump\t// in\n    tag_305:\n        /* \"#utility.yul\":14105:14111   */\n      dup4\n        /* \"#utility.yul\":14098:14162   */\n      sstore\n        /* \"#utility.yul\":14020:14176   */\n      pop\n        /* \"#utility.yul\":13997:14176   */\n    tag_304:\n        /* \"#utility.yul\":14222:14223   */\n      0x01\n        /* \"#utility.yul\":14218:14219   */\n      0x02\n        /* \"#utility.yul\":14210:14216   */\n      dup9\n        /* \"#utility.yul\":14206:14220   */\n      mul\n        /* \"#utility.yul\":14202:14224   */\n      add\n        /* \"#utility.yul\":14196:14200   */\n      dup9\n        /* \"#utility.yul\":14189:14225   */\n      sstore\n        /* \"#utility.yul\":13624:14235   */\n      pop\n      pop\n      pop\n        /* \"#utility.yul\":13587:14474   */\n    tag_296:\n      pop\n        /* \"#utility.yul\":13177:14480   */\n      pop\n      pop\n      pop\n        /* \"#utility.yul\":13085:14480   */\n      pop\n      pop\n      jump\t// out\n        /* \"#utility.yul\":14486:14909   */\n    tag_94:\n        /* \"#utility.yul\":14627:14631   */\n      0x00\n        /* \"#utility.yul\":14665:14667   */\n      0x40\n        /* \"#utility.yul\":14654:14663   */\n      dup3\n        /* \"#utility.yul\":14650:14668   */\n      add\n        /* \"#utility.yul\":14642:14668   */\n      swap1\n      pop\n        /* \"#utility.yul\":14678:14749   */\n      tag_307\n        /* \"#utility.yul\":14746:14747   */\n      0x00\n        /* \"#utility.yul\":14735:14744   */\n      dup4\n        /* \"#utility.yul\":14731:14748   */\n      add\n        /* \"#utility.yul\":14722:14728   */\n      dup6\n        /* \"#utility.yul\":14678:14749   */\n      tag_108\n      jump\t// in\n    tag_307:\n        /* \"#utility.yul\":14796:14805   */\n      dup2\n        /* \"#utility.yul\":14790:14794   */\n      dup2\n        /* \"#utility.yul\":14786:14806   */\n      sub\n        /* \"#utility.yul\":14781:14783   */\n      0x20\n        /* \"#utility.yul\":14770:14779   */\n      dup4\n        /* \"#utility.yul\":14766:14784   */\n      add\n        /* \"#utility.yul\":14759:14807   */\n      mstore\n        /* \"#utility.yul\":14824:14902   */\n      tag_308\n        /* \"#utility.yul\":14897:14901   */\n      dup2\n        /* \"#utility.yul\":14888:14894   */\n      dup5\n        /* \"#utility.yul\":14824:14902   */\n      tag_121\n      jump\t// in\n    tag_308:\n        /* \"#utility.yul\":14816:14902   */\n      swap1\n      pop\n        /* \"#utility.yul\":14486:14909   */\n      swap4\n      swap3\n      pop\n      pop\n      pop\n      jump\t// out\n\n    auxdata: 0xa264697066735822122035673f0a6f719799b8ea449a77ed6429f4a7f0a288a838b7c99092fc4312ed7f64736f6c634300081a0033\n}\n",
				"bytecode": {
					"linkReferences": {},
					"object": "60806040525f8060146101000a81548160ff0219169083151502179055503480156027575f80fd5b50335f806101000a81548173ffffffffffffffffffffffffffffffffffffffff021916908373ffffffffffffffffffffffffffffffffffffffff1602179055506110b0806100745f395ff3fe608060405260043610610090575f3560e01c80637f5154b4116100585780637f5154b4146101525780638da5cb5b1461016e578063a12247b014610198578063a5c68c59146101c2578063c7a9abc01461020057610090565b806312065fe014610094578063143dee97146100be5780633ccfd60b146100d45780635b703f5c146100ea5780635c975abb14610128575b5f80fd5b34801561009f575f80fd5b506100a8610216565b6040516100b591906108cf565b60405180910390f35b3480156100c9575f80fd5b506100d261021d565b005b3480156100df575f80fd5b506100e86102c5565b005b3480156100f5575f80fd5b50610110600480360381019061010b9190610923565b61040a565b60405161011f939291906109fd565b60405180910390f35b348015610133575f80fd5b5061013c610546565b6040516101499190610a53565b60405180910390f35b61016c60048036038101906101679190610b98565b610558565b005b348015610179575f80fd5b50610182610705565b60405161018f9190610bdf565b60405180910390f35b3480156101a3575f80fd5b506101ac610728565b6040516101b991906108cf565b60405180910390f35b3480156101cd575f80fd5b506101e860048036038101906101e39190610923565b610734565b6040516101f7939291906109fd565b60405180910390f35b34801561020b575f80fd5b5061021461080e565b005b5f47905090565b5f8054906101000a900473ffffffffffffffffffffffffffffffffffffffff1673ffffffffffffffffffffffffffffffffffffffff163373ffffffffffffffffffffffffffffffffffffffff16146102aa576040517f08c379a00000000000000000000000000000000000000000000000000000000081526004016102a190610c68565b60405180910390fd5b5f8060146101000a81548160ff021916908315150217905550565b5f8054906101000a900473ffffffffffffffffffffffffffffffffffffffff1673ffffffffffffffffffffffffffffffffffffffff163373ffffffffffffffffffffffffffffffffffffffff1614610352576040517f08c379a000000000000000000000000000000000000000000000000000000000815260040161034990610c68565b60405180910390fd5b5f4790505f8054906101000a900473ffffffffffffffffffffffffffffffffffffffff1673ffffffffffffffffffffffffffffffffffffffff166108fc8290811502906040515f60405180830381858888f193505050501580156103b8573d5f803e3d5ffd5b503373ffffffffffffffffffffffffffffffffffffffff167f7084f5476618d8e60b11ef0d7d3f06914655adb8793e28ff7f018d4c76d505d5826040516103ff91906108cf565b60405180910390a250565b5f8060605f6001858154811061042357610422610c86565b5b905f5260205f2090600302016040518060600160405290815f82015f9054906101000a900473ffffffffffffffffffffffffffffffffffffffff1673ffffffffffffffffffffffffffffffffffffffff1673ffffffffffffffffffffffffffffffffffffffff168152602001600182015481526020016002820180546104a890610ce0565b80601f01602080910402602001604051908101604052809291908181526020018280546104d490610ce0565b801561051f5780601f106104f65761010080835404028352916020019161051f565b820191905f5260205f20905b81548152906001019060200180831161050257829003601f168201915b5050505050815250509050805f015181602001518260400151935093509350509193909250565b5f60149054906101000a900460ff1681565b5f60149054906101000a900460ff16156105a7576040517f08c379a000000000000000000000000000000000000000000000000000000000815260040161059e90610d5a565b60405180910390fd5b66038d7ea4c68000803410156105f2576040517f08c379a00000000000000000000000000000000000000000000000000000000081526004016105e990610dc2565b60405180910390fd5b600160405180606001604052803373ffffffffffffffffffffffffffffffffffffffff16815260200134815260200184815250908060018154018082558091505060019003905f5260205f2090600302015f909190919091505f820151815f015f6101000a81548173ffffffffffffffffffffffffffffffffffffffff021916908373ffffffffffffffffffffffffffffffffffffffff1602179055506020820151816001015560408201518160020190816106ae9190610f7d565b5050503373ffffffffffffffffffffffffffffffffffffffff167f4f629a5f1c8e7fc616770a8d34896b447f3457037c40a23347478746309d73c234846040516106f992919061104c565b60405180910390a25050565b5f8054906101000a900473ffffffffffffffffffffffffffffffffffffffff1681565b5f600180549050905090565b60018181548110610743575f80fd5b905f5260205f2090600302015f91509050805f015f9054906101000a900473ffffffffffffffffffffffffffffffffffffffff169080600101549080600201805461078d90610ce0565b80601f01602080910402602001604051908101604052809291908181526020018280546107b990610ce0565b80156108045780601f106107db57610100808354040283529160200191610804565b820191905f5260205f20905b8154815290600101906020018083116107e757829003601f168201915b5050505050905083565b5f8054906101000a900473ffffffffffffffffffffffffffffffffffffffff1673ffffffffffffffffffffffffffffffffffffffff163373ffffffffffffffffffffffffffffffffffffffff161461089b576040517f08c379a000000000000000000000000000000000000000000000000000000000815260040161089290610c68565b60405180910390fd5b60015f60146101000a81548160ff021916908315150217905550565b5f819050919050565b6108c9816108b7565b82525050565b5f6020820190506108e25f8301846108c0565b92915050565b5f604051905090565b5f80fd5b5f80fd5b610902816108b7565b811461090c575f80fd5b50565b5f8135905061091d816108f9565b92915050565b5f60208284031215610938576109376108f1565b5b5f6109458482850161090f565b91505092915050565b5f73ffffffffffffffffffffffffffffffffffffffff82169050919050565b5f6109778261094e565b9050919050565b6109878161096d565b82525050565b5f81519050919050565b5f82825260208201905092915050565b8281835e5f83830152505050565b5f601f19601f8301169050919050565b5f6109cf8261098d565b6109d98185610997565b93506109e98185602086016109a7565b6109f2816109b5565b840191505092915050565b5f606082019050610a105f83018661097e565b610a1d60208301856108c0565b8181036040830152610a2f81846109c5565b9050949350505050565b5f8115159050919050565b610a4d81610a39565b82525050565b5f602082019050610a665f830184610a44565b92915050565b5f80fd5b5f80fd5b7f4e487b71000000000000000000000000000000000000000000000000000000005f52604160045260245ffd5b610aaa826109b5565b810181811067ffffffffffffffff82111715610ac957610ac8610a74565b5b80604052505050565b5f610adb6108e8565b9050610ae78282610aa1565b919050565b5f67ffffffffffffffff821115610b0657610b05610a74565b5b610b0f826109b5565b9050602081019050919050565b828183375f83830152505050565b5f610b3c610b3784610aec565b610ad2565b905082815260208101848484011115610b5857610b57610a70565b5b610b63848285610b1c565b509392505050565b5f82601f830112610b7f57610b7e610a6c565b5b8135610b8f848260208601610b2a565b91505092915050565b5f60208284031215610bad57610bac6108f1565b5b5f82013567ffffffffffffffff811115610bca57610bc96108f5565b5b610bd684828501610b6b565b91505092915050565b5f602082019050610bf25f83018461097e565b92915050565b7f4f6e6c79206f776e65722063616e20706572666f726d207468697320616374695f8201527f6f6e000000000000000000000000000000000000000000000000000000000000602082015250565b5f610c52602283610997565b9150610c5d82610bf8565b604082019050919050565b5f6020820190508181035f830152610c7f81610c46565b9050919050565b7f4e487b71000000000000000000000000000000000000000000000000000000005f52603260045260245ffd5b7f4e487b71000000000000000000000000000000000000000000000000000000005f52602260045260245ffd5b5f6002820490506001821680610cf757607f821691505b602082108103610d0a57610d09610cb3565b5b50919050565b7f54697070696e672069732063757272656e746c792070617573656400000000005f82015250565b5f610d44601b83610997565b9150610d4f82610d10565b602082019050919050565b5f6020820190508181035f830152610d7181610d38565b9050919050565b7f54697020697320746f6f20736d616c6c210000000000000000000000000000005f82015250565b5f610dac601183610997565b9150610db782610d78565b602082019050919050565b5f6020820190508181035f830152610dd981610da0565b9050919050565b5f819050815f5260205f209050919050565b5f6020601f8301049050919050565b5f82821b905092915050565b5f60088302610e3c7fffffffffffffffffffffffffffffffffffffffffffffffffffffffffffffffff82610e01565b610e468683610e01565b95508019841693508086168417925050509392505050565b5f819050919050565b5f610e81610e7c610e77846108b7565b610e5e565b6108b7565b9050919050565b5f819050919050565b610e9a83610e67565b610eae610ea682610e88565b848454610e0d565b825550505050565b5f90565b610ec2610eb6565b610ecd818484610e91565b505050565b5b81811015610ef057610ee55f82610eba565b600181019050610ed3565b5050565b601f821115610f3557610f0681610de0565b610f0f84610df2565b81016020851015610f1e578190505b610f32610f2a85610df2565b830182610ed2565b50505b505050565b5f82821c905092915050565b5f610f555f1984600802610f3a565b1980831691505092915050565b5f610f6d8383610f46565b9150826002028217905092915050565b610f868261098d565b67ffffffffffffffff811115610f9f57610f9e610a74565b5b610fa98254610ce0565b610fb4828285610ef4565b5f60209050601f831160018114610fe5575f8415610fd3578287015190505b610fdd8582610f62565b865550611044565b601f198416610ff386610de0565b5f5b8281101561101a57848901518255600182019150602085019450602081019050610ff5565b868310156110375784890151611033601f891682610f46565b8355505b6001600288020188555050505b505050505050565b5f60408201905061105f5f8301856108c0565b818103602083015261107181846109c5565b9050939250505056fea264697066735822122035673f0a6f719799b8ea449a77ed6429f4a7f0a288a838b7c99092fc4312ed7f64736f6c634300081a0033",
					"opcodes": "PUSH1 0x80 PUSH1 0x40 MSTORE PUSH0 DUP1 PUSH1 0x14 PUSH2 0x100 EXP DUP2 SLOAD DUP2 PUSH1 0xFF MUL NOT AND SWAP1 DUP4 ISZERO ISZERO MUL OR SWAP1 SSTORE POP CALLVALUE DUP1 ISZERO PUSH1 0x27 JUMPI PUSH0 DUP1 REVERT JUMPDEST POP CALLER PUSH0 DUP1 PUSH2 0x100 EXP DUP2 SLOAD DUP2 PUSH20 0xFFFFFFFFFFFFFFFFFFFFFFFFFFFFFFFFFFFFFFFF MUL NOT AND SWAP1 DUP4 PUSH20 0xFFFFFFFFFFFFFFFFFFFFFFFFFFFFFFFFFFFFFFFF AND MUL OR SWAP1 SSTORE POP PUSH2 0x10B0 DUP1 PUSH2 0x74 PUSH0 CODECOPY PUSH0 RETURN INVALID PUSH1 0x80 PUSH1 0x40 MSTORE PUSH1 0x4 CALLDATASIZE LT PUSH2 0x90 JUMPI PUSH0 CALLDATALOAD PUSH1 0xE0 SHR DUP1 PUSH4 0x7F5154B4 GT PUSH2 0x58 JUMPI DUP1 PUSH4 0x7F5154B4 EQ PUSH2 0x152 JUMPI DUP1 PUSH4 0x8DA5CB5B EQ PUSH2 0x16E JUMPI DUP1 PUSH4 0xA12247B0 EQ PUSH2 0x198 JUMPI DUP1 PUSH4 0xA5C68C59 EQ PUSH2 0x1C2 JUMPI DUP1 PUSH4 0xC7A9ABC0 EQ PUSH2 0x200 JUMPI PUSH2 0x90 JUMP JUMPDEST DUP1 PUSH4 0x12065FE0 EQ PUSH2 0x94 JUMPI DUP1 PUSH4 0x143DEE97 EQ PUSH2 0xBE JUMPI DUP1 PUSH4 0x3CCFD60B EQ PUSH2 0xD4 JUMPI DUP1 PUSH4 0x5B703F5C EQ PUSH2 0xEA JUMPI DUP1 PUSH4 0x5C975ABB EQ PUSH2 0x128 JUMPI JUMPDEST PUSH0 DUP1 REVERT JUMPDEST CALLVALUE DUP1 ISZERO PUSH2 0x9F JUMPI PUSH0 DUP1 REVERT JUMPDEST POP PUSH2 0xA8 PUSH2 0x216 JUMP JUMPDEST PUSH1 0x40 MLOAD PUSH2 0xB5 SWAP2 SWAP1 PUSH2 0x8CF JUMP JUMPDEST PUSH1 0x40 MLOAD DUP1 SWAP2 SUB SWAP1 RETURN JUMPDEST CALLVALUE DUP1 ISZERO PUSH2 0xC9 JUMPI PUSH0 DUP1 REVERT JUMPDEST POP PUSH2 0xD2 PUSH2 0x21D JUMP JUMPDEST STOP JUMPDEST CALLVALUE DUP1 ISZERO PUSH2 0xDF JUMPI PUSH0 DUP1 REVERT JUMPDEST POP PUSH2 0xE8 PUSH2 0x2C5 JUMP JUMPDEST STOP JUMPDEST CALLVALUE DUP1 ISZERO PUSH2 0xF5 JUMPI PUSH0 DUP1 REVERT JUMPDEST POP PUSH2 0x110 PUSH1 0x4 DUP1 CALLDATASIZE SUB DUP2 ADD SWAP1 PUSH2 0x10B SWAP2 SWAP1 PUSH2 0x923 JUMP JUMPDEST PUSH2 0x40A JUMP JUMPDEST PUSH1 0x40 MLOAD PUSH2 0x11F SWAP4 SWAP3 SWAP2 SWAP1 PUSH2 0x9FD JUMP JUMPDEST PUSH1 0x40 MLOAD DUP1 SWAP2 SUB SWAP1 RETURN JUMPDEST CALLVALUE DUP1 ISZERO PUSH2 0x133 JUMPI PUSH0 DUP1 REVERT JUMPDEST POP PUSH2 0x13C PUSH2 0x546 JUMP JUMPDEST PUSH1 0x40 MLOAD PUSH2 0x149 SWAP2 SWAP1 PUSH2 0xA53 JUMP JUMPDEST PUSH1 0x40 MLOAD DUP1 SWAP2 SUB SWAP1 RETURN JUMPDEST PUSH2 0x16C PUSH1 0x4 DUP1 CALLDATASIZE SUB DUP2 ADD SWAP1 PUSH2 0x167 SWAP2 SWAP1 PUSH2 0xB98 JUMP JUMPDEST PUSH2 0x558 JUMP JUMPDEST STOP JUMPDEST CALLVALUE DUP1 ISZERO PUSH2 0x179 JUMPI PUSH0 DUP1 REVERT JUMPDEST POP PUSH2 0x182 PUSH2 0x705 JUMP JUMPDEST PUSH1 0x40 MLOAD PUSH2 0x18F SWAP2 SWAP1 PUSH2 0xBDF JUMP JUMPDEST PUSH1 0x40 MLOAD DUP1 SWAP2 SUB SWAP1 RETURN JUMPDEST CALLVALUE DUP1 ISZERO PUSH2 0x1A3 JUMPI PUSH0 DUP1 REVERT JUMPDEST POP PUSH2 0x1AC PUSH2 0x728 JUMP JUMPDEST PUSH1 0x40 MLOAD PUSH2 0x1B9 SWAP2 SWAP1 PUSH2 0x8CF JUMP JUMPDEST PUSH1 0x40 MLOAD DUP1 SWAP2 SUB SWAP1 RETURN JUMPDEST CALLVALUE DUP1 ISZERO PUSH2 0x1CD JUMPI PUSH0 DUP1 REVERT JUMPDEST POP PUSH2 0x1E8 PUSH1 0x4 DUP1 CALLDATASIZE SUB DUP2 ADD SWAP1 PUSH2 0x1E3 SWAP2 SWAP1 PUSH2 0x923 JUMP JUMPDEST PUSH2 0x734 JUMP JUMPDEST PUSH1 0x40 MLOAD PUSH2 0x1F7 SWAP4 SWAP3 SWAP2 SWAP1 PUSH2 0x9FD JUMP JUMPDEST PUSH1 0x40 MLOAD DUP1 SWAP2 SUB SWAP1 RETURN JUMPDEST CALLVALUE DUP1 ISZERO PUSH2 0x20B JUMPI PUSH0 DUP1 REVERT JUMPDEST POP PUSH2 0x214 PUSH2 0x80E JUMP JUMPDEST STOP JUMPDEST PUSH0 SELFBALANCE SWAP1 POP SWAP1 JUMP JUMPDEST PUSH0 DUP1 SLOAD SWAP1 PUSH2 0x100 EXP SWAP1 DIV PUSH20 0xFFFFFFFFFFFFFFFFFFFFFFFFFFFFFFFFFFFFFFFF AND PUSH20 0xFFFFFFFFFFFFFFFFFFFFFFFFFFFFFFFFFFFFFFFF AND CALLER PUSH20 0xFFFFFFFFFFFFFFFFFFFFFFFFFFFFFFFFFFFFFFFF AND EQ PUSH2 0x2AA JUMPI PUSH1 0x40 MLOAD PUSH32 0x8C379A000000000000000000000000000000000000000000000000000000000 DUP2 MSTORE PUSH1 0x4 ADD PUSH2 0x2A1 SWAP1 PUSH2 0xC68 JUMP JUMPDEST PUSH1 0x40 MLOAD DUP1 SWAP2 SUB SWAP1 REVERT JUMPDEST PUSH0 DUP1 PUSH1 0x14 PUSH2 0x100 EXP DUP2 SLOAD DUP2 PUSH1 0xFF MUL NOT AND SWAP1 DUP4 ISZERO ISZERO MUL OR SWAP1 SSTORE POP JUMP JUMPDEST PUSH0 DUP1 SLOAD SWAP1 PUSH2 0x100 EXP SWAP1 DIV PUSH20 0xFFFFFFFFFFFFFFFFFFFFFFFFFFFFFFFFFFFFFFFF AND PUSH20 0xFFFFFFFFFFFFFFFFFFFFFFFFFFFFFFFFFFFFFFFF AND CALLER PUSH20 0xFFFFFFFFFFFFFFFFFFFFFFFFFFFFFFFFFFFFFFFF AND EQ PUSH2 0x352 JUMPI PUSH1 0x40 MLOAD PUSH32 0x8C379A000000000000000000000000000000000000000000000000000000000 DUP2 MSTORE PUSH1 0x4 ADD PUSH2 0x349 SWAP1 PUSH2 0xC68 JUMP JUMPDEST PUSH1 0x40 MLOAD DUP1 SWAP2 SUB SWAP1 REVERT JUMPDEST PUSH0 SELFBALANCE SWAP1 POP PUSH0 DUP1 SLOAD SWAP1 PUSH2 0x100 EXP SWAP1 DIV PUSH20 0xFFFFFFFFFFFFFFFFFFFFFFFFFFFFFFFFFFFFFFFF AND PUSH20 0xFFFFFFFFFFFFFFFFFFFFFFFFFFFFFFFFFFFFFFFF AND PUSH2 0x8FC DUP3 SWAP1 DUP2 ISZERO MUL SWAP1 PUSH1 0x40 MLOAD PUSH0 PUSH1 0x40 MLOAD DUP1 DUP4 SUB DUP2 DUP6 DUP9 DUP9 CALL SWAP4 POP POP POP POP ISZERO DUP1 ISZERO PUSH2 0x3B8 JUMPI RETURNDATASIZE PUSH0 DUP1 RETURNDATACOPY RETURNDATASIZE PUSH0 REVERT JUMPDEST POP CALLER PUSH20 0xFFFFFFFFFFFFFFFFFFFFFFFFFFFFFFFFFFFFFFFF AND PUSH32 0x7084F5476618D8E60B11EF0D7D3F06914655ADB8793E28FF7F018D4C76D505D5 DUP3 PUSH1 0x40 MLOAD PUSH2 0x3FF SWAP2 SWAP1 PUSH2 0x8CF JUMP JUMPDEST PUSH1 0x40 MLOAD DUP1 SWAP2 SUB SWAP1 LOG2 POP JUMP JUMPDEST PUSH0 DUP1 PUSH1 0x60 PUSH0 PUSH1 0x1 DUP6 DUP2 SLOAD DUP2 LT PUSH2 0x423 JUMPI PUSH2 0x422 PUSH2 0xC86 JUMP JUMPDEST JUMPDEST SWAP1 PUSH0 MSTORE PUSH1 0x20 PUSH0 KECCAK256 SWAP1 PUSH1 0x3 MUL ADD PUSH1 0x40 MLOAD DUP1 PUSH1 0x60 ADD PUSH1 0x40 MSTORE SWAP1 DUP2 PUSH0 DUP3 ADD PUSH0 SWAP1 SLOAD SWAP1 PUSH2 0x100 EXP SWAP1 DIV PUSH20 0xFFFFFFFFFFFFFFFFFFFFFFFFFFFFFFFFFFFFFFFF AND PUSH20 0xFFFFFFFFFFFFFFFFFFFFFFFFFFFFFFFFFFFFFFFF AND PUSH20 0xFFFFFFFFFFFFFFFFFFFFFFFFFFFFFFFFFFFFFFFF AND DUP2 MSTORE PUSH1 0x20 ADD PUSH1 0x1 DUP3 ADD SLOAD DUP2 MSTORE PUSH1 0x20 ADD PUSH1 0x2 DUP3 ADD DUP1 SLOAD PUSH2 0x4A8 SWAP1 PUSH2 0xCE0 JUMP JUMPDEST DUP1 PUSH1 0x1F ADD PUSH1 0x20 DUP1 SWAP2 DIV MUL PUSH1 0x20 ADD PUSH1 0x40 MLOAD SWAP1 DUP2 ADD PUSH1 0x40 MSTORE DUP1 SWAP3 SWAP2 SWAP1 DUP2 DUP2 MSTORE PUSH1 0x20 ADD DUP3 DUP1 SLOAD PUSH2 0x4D4 SWAP1 PUSH2 0xCE0 JUMP JUMPDEST DUP1 ISZERO PUSH2 0x51F JUMPI DUP1 PUSH1 0x1F LT PUSH2 0x4F6 JUMPI PUSH2 0x100 DUP1 DUP4 SLOAD DIV MUL DUP4 MSTORE SWAP2 PUSH1 0x20 ADD SWAP2 PUSH2 0x51F JUMP JUMPDEST DUP3 ADD SWAP2 SWAP1 PUSH0 MSTORE PUSH1 0x20 PUSH0 KECCAK256 SWAP1 JUMPDEST DUP2 SLOAD DUP2 MSTORE SWAP1 PUSH1 0x1 ADD SWAP1 PUSH1 0x20 ADD DUP1 DUP4 GT PUSH2 0x502 JUMPI DUP3 SWAP1 SUB PUSH1 0x1F AND DUP3 ADD SWAP2 JUMPDEST POP POP POP POP POP DUP2 MSTORE POP POP SWAP1 POP DUP1 PUSH0 ADD MLOAD DUP2 PUSH1 0x20 ADD MLOAD DUP3 PUSH1 0x40 ADD MLOAD SWAP4 POP SWAP4 POP SWAP4 POP POP SWAP2 SWAP4 SWAP1 SWAP3 POP JUMP JUMPDEST PUSH0 PUSH1 0x14 SWAP1 SLOAD SWAP1 PUSH2 0x100 EXP SWAP1 DIV PUSH1 0xFF AND DUP2 JUMP JUMPDEST PUSH0 PUSH1 0x14 SWAP1 SLOAD SWAP1 PUSH2 0x100 EXP SWAP1 DIV PUSH1 0xFF AND ISZERO PUSH2 0x5A7 JUMPI PUSH1 0x40 MLOAD PUSH32 0x8C379A000000000000000000000000000000000000000000000000000000000 DUP2 MSTORE PUSH1 0x4 ADD PUSH2 0x59E SWAP1 PUSH2 0xD5A JUMP JUMPDEST PUSH1 0x40 MLOAD DUP1 SWAP2 SUB SWAP1 REVERT JUMPDEST PUSH7 0x38D7EA4C68000 DUP1 CALLVALUE LT ISZERO PUSH2 0x5F2 JUMPI PUSH1 0x40 MLOAD PUSH32 0x8C379A000000000000000000000000000000000000000000000000000000000 DUP2 MSTORE PUSH1 0x4 ADD PUSH2 0x5E9 SWAP1 PUSH2 0xDC2 JUMP JUMPDEST PUSH1 0x40 MLOAD DUP1 SWAP2 SUB SWAP1 REVERT JUMPDEST PUSH1 0x1 PUSH1 0x40 MLOAD DUP1 PUSH1 0x60 ADD PUSH1 0x40 MSTORE DUP1 CALLER PUSH20 0xFFFFFFFFFFFFFFFFFFFFFFFFFFFFFFFFFFFFFFFF AND DUP2 MSTORE PUSH1 0x20 ADD CALLVALUE DUP2 MSTORE PUSH1 0x20 ADD DUP5 DUP2 MSTORE POP SWAP1 DUP1 PUSH1 0x1 DUP2 SLOAD ADD DUP1 DUP3 SSTORE DUP1 SWAP2 POP POP PUSH1 0x1 SWAP1 SUB SWAP1 PUSH0 MSTORE PUSH1 0x20 PUSH0 KECCAK256 SWAP1 PUSH1 0x3 MUL ADD PUSH0 SWAP1 SWAP2 SWAP1 SWAP2 SWAP1 SWAP2 POP PUSH0 DUP3 ADD MLOAD DUP2 PUSH0 ADD PUSH0 PUSH2 0x100 EXP DUP2 SLOAD DUP2 PUSH20 0xFFFFFFFFFFFFFFFFFFFFFFFFFFFFFFFFFFFFFFFF MUL NOT AND SWAP1 DUP4 PUSH20 0xFFFFFFFFFFFFFFFFFFFFFFFFFFFFFFFFFFFFFFFF AND MUL OR SWAP1 SSTORE POP PUSH1 0x20 DUP3 ADD MLOAD DUP2 PUSH1 0x1 ADD SSTORE PUSH1 0x40 DUP3 ADD MLOAD DUP2 PUSH1 0x2 ADD SWAP1 DUP2 PUSH2 0x6AE SWAP2 SWAP1 PUSH2 0xF7D JUMP JUMPDEST POP POP POP CALLER PUSH20 0xFFFFFFFFFFFFFFFFFFFFFFFFFFFFFFFFFFFFFFFF AND PUSH32 0x4F629A5F1C8E7FC616770A8D34896B447F3457037C40A23347478746309D73C2 CALLVALUE DUP5 PUSH1 0x40 MLOAD PUSH2 0x6F9 SWAP3 SWAP2 SWAP1 PUSH2 0x104C JUMP JUMPDEST PUSH1 0x40 MLOAD DUP1 SWAP2 SUB SWAP1 LOG2 POP POP JUMP JUMPDEST PUSH0 DUP1 SLOAD SWAP1 PUSH2 0x100 EXP SWAP1 DIV PUSH20 0xFFFFFFFFFFFFFFFFFFFFFFFFFFFFFFFFFFFFFFFF AND DUP2 JUMP JUMPDEST PUSH0 PUSH1 0x1 DUP1 SLOAD SWAP1 POP SWAP1 POP SWAP1 JUMP JUMPDEST PUSH1 0x1 DUP2 DUP2 SLOAD DUP2 LT PUSH2 0x743 JUMPI PUSH0 DUP1 REVERT JUMPDEST SWAP1 PUSH0 MSTORE PUSH1 0x20 PUSH0 KECCAK256 SWAP1 PUSH1 0x3 MUL ADD PUSH0 SWAP2 POP SWAP1 POP DUP1 PUSH0 ADD PUSH0 SWAP1 SLOAD SWAP1 PUSH2 0x100 EXP SWAP1 DIV PUSH20 0xFFFFFFFFFFFFFFFFFFFFFFFFFFFFFFFFFFFFFFFF AND SWAP1 DUP1 PUSH1 0x1 ADD SLOAD SWAP1 DUP1 PUSH1 0x2 ADD DUP1 SLOAD PUSH2 0x78D SWAP1 PUSH2 0xCE0 JUMP JUMPDEST DUP1 PUSH1 0x1F ADD PUSH1 0x20 DUP1 SWAP2 DIV MUL PUSH1 0x20 ADD PUSH1 0x40 MLOAD SWAP1 DUP2 ADD PUSH1 0x40 MSTORE DUP1 SWAP3 SWAP2 SWAP1 DUP2 DUP2 MSTORE PUSH1 0x20 ADD DUP3 DUP1 SLOAD PUSH2 0x7B9 SWAP1 PUSH2 0xCE0 JUMP JUMPDEST DUP1 ISZERO PUSH2 0x804 JUMPI DUP1 PUSH1 0x1F LT PUSH2 0x7DB JUMPI PUSH2 0x100 DUP1 DUP4 SLOAD DIV MUL DUP4 MSTORE SWAP2 PUSH1 0x20 ADD SWAP2 PUSH2 0x804 JUMP JUMPDEST DUP3 ADD SWAP2 SWAP1 PUSH0 MSTORE PUSH1 0x20 PUSH0 KECCAK256 SWAP1 JUMPDEST DUP2 SLOAD DUP2 MSTORE SWAP1 PUSH1 0x1 ADD SWAP1 PUSH1 0x20 ADD DUP1 DUP4 GT PUSH2 0x7E7 JUMPI DUP3 SWAP1 SUB PUSH1 0x1F AND DUP3 ADD SWAP2 JUMPDEST POP POP POP POP POP SWAP1 POP DUP4 JUMP JUMPDEST PUSH0 DUP1 SLOAD SWAP1 PUSH2 0x100 EXP SWAP1 DIV PUSH20 0xFFFFFFFFFFFFFFFFFFFFFFFFFFFFFFFFFFFFFFFF AND PUSH20 0xFFFFFFFFFFFFFFFFFFFFFFFFFFFFFFFFFFFFFFFF AND CALLER PUSH20 0xFFFFFFFFFFFFFFFFFFFFFFFFFFFFFFFFFFFFFFFF AND EQ PUSH2 0x89B JUMPI PUSH1 0x40 MLOAD PUSH32 0x8C379A000000000000000000000000000000000000000000000000000000000 DUP2 MSTORE PUSH1 0x4 ADD PUSH2 0x892 SWAP1 PUSH2 0xC68 JUMP JUMPDEST PUSH1 0x40 MLOAD DUP1 SWAP2 SUB SWAP1 REVERT JUMPDEST PUSH1 0x1 PUSH0 PUSH1 0x14 PUSH2 0x100 EXP DUP2 SLOAD DUP2 PUSH1 0xFF MUL NOT AND SWAP1 DUP4 ISZERO ISZERO MUL OR SWAP1 SSTORE POP JUMP JUMPDEST PUSH0 DUP2 SWAP1 POP SWAP2 SWAP1 POP JUMP JUMPDEST PUSH2 0x8C9 DUP2 PUSH2 0x8B7 JUMP JUMPDEST DUP3 MSTORE POP POP JUMP JUMPDEST PUSH0 PUSH1 0x20 DUP3 ADD SWAP1 POP PUSH2 0x8E2 PUSH0 DUP4 ADD DUP5 PUSH2 0x8C0 JUMP JUMPDEST SWAP3 SWAP2 POP POP JUMP JUMPDEST PUSH0 PUSH1 0x40 MLOAD SWAP1 POP SWAP1 JUMP JUMPDEST PUSH0 DUP1 REVERT JUMPDEST PUSH0 DUP1 REVERT JUMPDEST PUSH2 0x902 DUP2 PUSH2 0x8B7 JUMP JUMPDEST DUP2 EQ PUSH2 0x90C JUMPI PUSH0 DUP1 REVERT JUMPDEST POP JUMP JUMPDEST PUSH0 DUP2 CALLDATALOAD SWAP1 POP PUSH2 0x91D DUP2 PUSH2 0x8F9 JUMP JUMPDEST SWAP3 SWAP2 POP POP JUMP JUMPDEST PUSH0 PUSH1 0x20 DUP3 DUP5 SUB SLT ISZERO PUSH2 0x938 JUMPI PUSH2 0x937 PUSH2 0x8F1 JUMP JUMPDEST JUMPDEST PUSH0 PUSH2 0x945 DUP5 DUP3 DUP6 ADD PUSH2 0x90F JUMP JUMPDEST SWAP2 POP POP SWAP3 SWAP2 POP POP JUMP JUMPDEST PUSH0 PUSH20 0xFFFFFFFFFFFFFFFFFFFFFFFFFFFFFFFFFFFFFFFF DUP3 AND SWAP1 POP SWAP2 SWAP1 POP JUMP JUMPDEST PUSH0 PUSH2 0x977 DUP3 PUSH2 0x94E JUMP JUMPDEST SWAP1 POP SWAP2 SWAP1 POP JUMP JUMPDEST PUSH2 0x987 DUP2 PUSH2 0x96D JUMP JUMPDEST DUP3 MSTORE POP POP JUMP JUMPDEST PUSH0 DUP2 MLOAD SWAP1 POP SWAP2 SWAP1 POP JUMP JUMPDEST PUSH0 DUP3 DUP3 MSTORE PUSH1 0x20 DUP3 ADD SWAP1 POP SWAP3 SWAP2 POP POP JUMP JUMPDEST DUP3 DUP2 DUP4 MCOPY PUSH0 DUP4 DUP4 ADD MSTORE POP POP POP JUMP JUMPDEST PUSH0 PUSH1 0x1F NOT PUSH1 0x1F DUP4 ADD AND SWAP1 POP SWAP2 SWAP1 POP JUMP JUMPDEST PUSH0 PUSH2 0x9CF DUP3 PUSH2 0x98D JUMP JUMPDEST PUSH2 0x9D9 DUP2 DUP6 PUSH2 0x997 JUMP JUMPDEST SWAP4 POP PUSH2 0x9E9 DUP2 DUP6 PUSH1 0x20 DUP7 ADD PUSH2 0x9A7 JUMP JUMPDEST PUSH2 0x9F2 DUP2 PUSH2 0x9B5 JUMP JUMPDEST DUP5 ADD SWAP2 POP POP SWAP3 SWAP2 POP POP JUMP JUMPDEST PUSH0 PUSH1 0x60 DUP3 ADD SWAP1 POP PUSH2 0xA10 PUSH0 DUP4 ADD DUP7 PUSH2 0x97E JUMP JUMPDEST PUSH2 0xA1D PUSH1 0x20 DUP4 ADD DUP6 PUSH2 0x8C0 JUMP JUMPDEST DUP2 DUP2 SUB PUSH1 0x40 DUP4 ADD MSTORE PUSH2 0xA2F DUP2 DUP5 PUSH2 0x9C5 JUMP JUMPDEST SWAP1 POP SWAP5 SWAP4 POP POP POP POP JUMP JUMPDEST PUSH0 DUP2 ISZERO ISZERO SWAP1 POP SWAP2 SWAP1 POP JUMP JUMPDEST PUSH2 0xA4D DUP2 PUSH2 0xA39 JUMP JUMPDEST DUP3 MSTORE POP POP JUMP JUMPDEST PUSH0 PUSH1 0x20 DUP3 ADD SWAP1 POP PUSH2 0xA66 PUSH0 DUP4 ADD DUP5 PUSH2 0xA44 JUMP JUMPDEST SWAP3 SWAP2 POP POP JUMP JUMPDEST PUSH0 DUP1 REVERT JUMPDEST PUSH0 DUP1 REVERT JUMPDEST PUSH32 0x4E487B7100000000000000000000000000000000000000000000000000000000 PUSH0 MSTORE PUSH1 0x41 PUSH1 0x4 MSTORE PUSH1 0x24 PUSH0 REVERT JUMPDEST PUSH2 0xAAA DUP3 PUSH2 0x9B5 JUMP JUMPDEST DUP2 ADD DUP2 DUP2 LT PUSH8 0xFFFFFFFFFFFFFFFF DUP3 GT OR ISZERO PUSH2 0xAC9 JUMPI PUSH2 0xAC8 PUSH2 0xA74 JUMP JUMPDEST JUMPDEST DUP1 PUSH1 0x40 MSTORE POP POP POP JUMP JUMPDEST PUSH0 PUSH2 0xADB PUSH2 0x8E8 JUMP JUMPDEST SWAP1 POP PUSH2 0xAE7 DUP3 DUP3 PUSH2 0xAA1 JUMP JUMPDEST SWAP2 SWAP1 POP JUMP JUMPDEST PUSH0 PUSH8 0xFFFFFFFFFFFFFFFF DUP3 GT ISZERO PUSH2 0xB06 JUMPI PUSH2 0xB05 PUSH2 0xA74 JUMP JUMPDEST JUMPDEST PUSH2 0xB0F DUP3 PUSH2 0x9B5 JUMP JUMPDEST SWAP1 POP PUSH1 0x20 DUP2 ADD SWAP1 POP SWAP2 SWAP1 POP JUMP JUMPDEST DUP3 DUP2 DUP4 CALLDATACOPY PUSH0 DUP4 DUP4 ADD MSTORE POP POP POP JUMP JUMPDEST PUSH0 PUSH2 0xB3C PUSH2 0xB37 DUP5 PUSH2 0xAEC JUMP JUMPDEST PUSH2 0xAD2 JUMP JUMPDEST SWAP1 POP DUP3 DUP2 MSTORE PUSH1 0x20 DUP2 ADD DUP5 DUP5 DUP5 ADD GT ISZERO PUSH2 0xB58 JUMPI PUSH2 0xB57 PUSH2 0xA70 JUMP JUMPDEST JUMPDEST PUSH2 0xB63 DUP5 DUP3 DUP6 PUSH2 0xB1C JUMP JUMPDEST POP SWAP4 SWAP3 POP POP POP JUMP JUMPDEST PUSH0 DUP3 PUSH1 0x1F DUP4 ADD SLT PUSH2 0xB7F JUMPI PUSH2 0xB7E PUSH2 0xA6C JUMP JUMPDEST JUMPDEST DUP2 CALLDATALOAD PUSH2 0xB8F DUP5 DUP3 PUSH1 0x20 DUP7 ADD PUSH2 0xB2A JUMP JUMPDEST SWAP2 POP POP SWAP3 SWAP2 POP POP JUMP JUMPDEST PUSH0 PUSH1 0x20 DUP3 DUP5 SUB SLT ISZERO PUSH2 0xBAD JUMPI PUSH2 0xBAC PUSH2 0x8F1 JUMP JUMPDEST JUMPDEST PUSH0 DUP3 ADD CALLDATALOAD PUSH8 0xFFFFFFFFFFFFFFFF DUP2 GT ISZERO PUSH2 0xBCA JUMPI PUSH2 0xBC9 PUSH2 0x8F5 JUMP JUMPDEST JUMPDEST PUSH2 0xBD6 DUP5 DUP3 DUP6 ADD PUSH2 0xB6B JUMP JUMPDEST SWAP2 POP POP SWAP3 SWAP2 POP POP JUMP JUMPDEST PUSH0 PUSH1 0x20 DUP3 ADD SWAP1 POP PUSH2 0xBF2 PUSH0 DUP4 ADD DUP5 PUSH2 0x97E JUMP JUMPDEST SWAP3 SWAP2 POP POP JUMP JUMPDEST PUSH32 0x4F6E6C79206F776E65722063616E20706572666F726D20746869732061637469 PUSH0 DUP3 ADD MSTORE PUSH32 0x6F6E000000000000000000000000000000000000000000000000000000000000 PUSH1 0x20 DUP3 ADD MSTORE POP JUMP JUMPDEST PUSH0 PUSH2 0xC52 PUSH1 0x22 DUP4 PUSH2 0x997 JUMP JUMPDEST SWAP2 POP PUSH2 0xC5D DUP3 PUSH2 0xBF8 JUMP JUMPDEST PUSH1 0x40 DUP3 ADD SWAP1 POP SWAP2 SWAP1 POP JUMP JUMPDEST PUSH0 PUSH1 0x20 DUP3 ADD SWAP1 POP DUP2 DUP2 SUB PUSH0 DUP4 ADD MSTORE PUSH2 0xC7F DUP2 PUSH2 0xC46 JUMP JUMPDEST SWAP1 POP SWAP2 SWAP1 POP JUMP JUMPDEST PUSH32 0x4E487B7100000000000000000000000000000000000000000000000000000000 PUSH0 MSTORE PUSH1 0x32 PUSH1 0x4 MSTORE PUSH1 0x24 PUSH0 REVERT JUMPDEST PUSH32 0x4E487B7100000000000000000000000000000000000000000000000000000000 PUSH0 MSTORE PUSH1 0x22 PUSH1 0x4 MSTORE PUSH1 0x24 PUSH0 REVERT JUMPDEST PUSH0 PUSH1 0x2 DUP3 DIV SWAP1 POP PUSH1 0x1 DUP3 AND DUP1 PUSH2 0xCF7 JUMPI PUSH1 0x7F DUP3 AND SWAP2 POP JUMPDEST PUSH1 0x20 DUP3 LT DUP2 SUB PUSH2 0xD0A JUMPI PUSH2 0xD09 PUSH2 0xCB3 JUMP JUMPDEST JUMPDEST POP SWAP2 SWAP1 POP JUMP JUMPDEST PUSH32 0x54697070696E672069732063757272656E746C79207061757365640000000000 PUSH0 DUP3 ADD MSTORE POP JUMP JUMPDEST PUSH0 PUSH2 0xD44 PUSH1 0x1B DUP4 PUSH2 0x997 JUMP JUMPDEST SWAP2 POP PUSH2 0xD4F DUP3 PUSH2 0xD10 JUMP JUMPDEST PUSH1 0x20 DUP3 ADD SWAP1 POP SWAP2 SWAP1 POP JUMP JUMPDEST PUSH0 PUSH1 0x20 DUP3 ADD SWAP1 POP DUP2 DUP2 SUB PUSH0 DUP4 ADD MSTORE PUSH2 0xD71 DUP2 PUSH2 0xD38 JUMP JUMPDEST SWAP1 POP SWAP2 SWAP1 POP JUMP JUMPDEST PUSH32 0x54697020697320746F6F20736D616C6C21000000000000000000000000000000 PUSH0 DUP3 ADD MSTORE POP JUMP JUMPDEST PUSH0 PUSH2 0xDAC PUSH1 0x11 DUP4 PUSH2 0x997 JUMP JUMPDEST SWAP2 POP PUSH2 0xDB7 DUP3 PUSH2 0xD78 JUMP JUMPDEST PUSH1 0x20 DUP3 ADD SWAP1 POP SWAP2 SWAP1 POP JUMP JUMPDEST PUSH0 PUSH1 0x20 DUP3 ADD SWAP1 POP DUP2 DUP2 SUB PUSH0 DUP4 ADD MSTORE PUSH2 0xDD9 DUP2 PUSH2 0xDA0 JUMP JUMPDEST SWAP1 POP SWAP2 SWAP1 POP JUMP JUMPDEST PUSH0 DUP2 SWAP1 POP DUP2 PUSH0 MSTORE PUSH1 0x20 PUSH0 KECCAK256 SWAP1 POP SWAP2 SWAP1 POP JUMP JUMPDEST PUSH0 PUSH1 0x20 PUSH1 0x1F DUP4 ADD DIV SWAP1 POP SWAP2 SWAP1 POP JUMP JUMPDEST PUSH0 DUP3 DUP3 SHL SWAP1 POP SWAP3 SWAP2 POP POP JUMP JUMPDEST PUSH0 PUSH1 0x8 DUP4 MUL PUSH2 0xE3C PUSH32 0xFFFFFFFFFFFFFFFFFFFFFFFFFFFFFFFFFFFFFFFFFFFFFFFFFFFFFFFFFFFFFFFF DUP3 PUSH2 0xE01 JUMP JUMPDEST PUSH2 0xE46 DUP7 DUP4 PUSH2 0xE01 JUMP JUMPDEST SWAP6 POP DUP1 NOT DUP5 AND SWAP4 POP DUP1 DUP7 AND DUP5 OR SWAP3 POP POP POP SWAP4 SWAP3 POP POP POP JUMP JUMPDEST PUSH0 DUP2 SWAP1 POP SWAP2 SWAP1 POP JUMP JUMPDEST PUSH0 PUSH2 0xE81 PUSH2 0xE7C PUSH2 0xE77 DUP5 PUSH2 0x8B7 JUMP JUMPDEST PUSH2 0xE5E JUMP JUMPDEST PUSH2 0x8B7 JUMP JUMPDEST SWAP1 POP SWAP2 SWAP1 POP JUMP JUMPDEST PUSH0 DUP2 SWAP1 POP SWAP2 SWAP1 POP JUMP JUMPDEST PUSH2 0xE9A DUP4 PUSH2 0xE67 JUMP JUMPDEST PUSH2 0xEAE PUSH2 0xEA6 DUP3 PUSH2 0xE88 JUMP JUMPDEST DUP5 DUP5 SLOAD PUSH2 0xE0D JUMP JUMPDEST DUP3 SSTORE POP POP POP POP JUMP JUMPDEST PUSH0 SWAP1 JUMP JUMPDEST PUSH2 0xEC2 PUSH2 0xEB6 JUMP JUMPDEST PUSH2 0xECD DUP2 DUP5 DUP5 PUSH2 0xE91 JUMP JUMPDEST POP POP POP JUMP JUMPDEST JUMPDEST DUP2 DUP2 LT ISZERO PUSH2 0xEF0 JUMPI PUSH2 0xEE5 PUSH0 DUP3 PUSH2 0xEBA JUMP JUMPDEST PUSH1 0x1 DUP2 ADD SWAP1 POP PUSH2 0xED3 JUMP JUMPDEST POP POP JUMP JUMPDEST PUSH1 0x1F DUP3 GT ISZERO PUSH2 0xF35 JUMPI PUSH2 0xF06 DUP2 PUSH2 0xDE0 JUMP JUMPDEST PUSH2 0xF0F DUP5 PUSH2 0xDF2 JUMP JUMPDEST DUP2 ADD PUSH1 0x20 DUP6 LT ISZERO PUSH2 0xF1E JUMPI DUP2 SWAP1 POP JUMPDEST PUSH2 0xF32 PUSH2 0xF2A DUP6 PUSH2 0xDF2 JUMP JUMPDEST DUP4 ADD DUP3 PUSH2 0xED2 JUMP JUMPDEST POP POP JUMPDEST POP POP POP JUMP JUMPDEST PUSH0 DUP3 DUP3 SHR SWAP1 POP SWAP3 SWAP2 POP POP JUMP JUMPDEST PUSH0 PUSH2 0xF55 PUSH0 NOT DUP5 PUSH1 0x8 MUL PUSH2 0xF3A JUMP JUMPDEST NOT DUP1 DUP4 AND SWAP2 POP POP SWAP3 SWAP2 POP POP JUMP JUMPDEST PUSH0 PUSH2 0xF6D DUP4 DUP4 PUSH2 0xF46 JUMP JUMPDEST SWAP2 POP DUP3 PUSH1 0x2 MUL DUP3 OR SWAP1 POP SWAP3 SWAP2 POP POP JUMP JUMPDEST PUSH2 0xF86 DUP3 PUSH2 0x98D JUMP JUMPDEST PUSH8 0xFFFFFFFFFFFFFFFF DUP2 GT ISZERO PUSH2 0xF9F JUMPI PUSH2 0xF9E PUSH2 0xA74 JUMP JUMPDEST JUMPDEST PUSH2 0xFA9 DUP3 SLOAD PUSH2 0xCE0 JUMP JUMPDEST PUSH2 0xFB4 DUP3 DUP3 DUP6 PUSH2 0xEF4 JUMP JUMPDEST PUSH0 PUSH1 0x20 SWAP1 POP PUSH1 0x1F DUP4 GT PUSH1 0x1 DUP2 EQ PUSH2 0xFE5 JUMPI PUSH0 DUP5 ISZERO PUSH2 0xFD3 JUMPI DUP3 DUP8 ADD MLOAD SWAP1 POP JUMPDEST PUSH2 0xFDD DUP6 DUP3 PUSH2 0xF62 JUMP JUMPDEST DUP7 SSTORE POP PUSH2 0x1044 JUMP JUMPDEST PUSH1 0x1F NOT DUP5 AND PUSH2 0xFF3 DUP7 PUSH2 0xDE0 JUMP JUMPDEST PUSH0 JUMPDEST DUP3 DUP2 LT ISZERO PUSH2 0x101A JUMPI DUP5 DUP10 ADD MLOAD DUP3 SSTORE PUSH1 0x1 DUP3 ADD SWAP2 POP PUSH1 0x20 DUP6 ADD SWAP5 POP PUSH1 0x20 DUP2 ADD SWAP1 POP PUSH2 0xFF5 JUMP JUMPDEST DUP7 DUP4 LT ISZERO PUSH2 0x1037 JUMPI DUP5 DUP10 ADD MLOAD PUSH2 0x1033 PUSH1 0x1F DUP10 AND DUP3 PUSH2 0xF46 JUMP JUMPDEST DUP4 SSTORE POP JUMPDEST PUSH1 0x1 PUSH1 0x2 DUP9 MUL ADD DUP9 SSTORE POP POP POP JUMPDEST POP POP POP POP POP POP JUMP JUMPDEST PUSH0 PUSH1 0x40 DUP3 ADD SWAP1 POP PUSH2 0x105F PUSH0 DUP4 ADD DUP6 PUSH2 0x8C0 JUMP JUMPDEST DUP2 DUP2 SUB PUSH1 0x20 DUP4 ADD MSTORE PUSH2 0x1071 DUP2 DUP5 PUSH2 0x9C5 JUMP JUMPDEST SWAP1 POP SWAP4 SWAP3 POP POP POP JUMP INVALID LOG2 PUSH5 0x6970667358 0x22 SLT KECCAK256 CALLDATALOAD PUSH8 0x3F0A6F719799B8EA PREVRANDAO SWAP11 PUSH24 0xED6429F4A7F0A288A838B7C99092FC4312ED7F64736F6C63 NUMBER STOP ADDMOD BYTE STOP CALLER "
				},
				"gasEstimates": {
					"creation": {
						"codeDepositCost": "854400",
						"executionCost": "49469",
						"totalCost": "903869"
					},
					"external": {
						"getBalance()": "335",
						"getTip(uint256)": "infinite",
						"getTipsCount()": "2484",
						"owner()": "2527",
						"pauseTips()": "26713",
						"paused()": "2605",
						"resumeTips()": "26648",
						"sendTip(string)": "infinite",
						"tips(uint256)": "infinite",
						"withdraw()": "infinite"
					}
				},
				"methodIdentifiers": {
					"getBalance()": "12065fe0",
					"getTip(uint256)": "5b703f5c",
					"getTipsCount()": "a12247b0",
					"owner()": "8da5cb5b",
					"pauseTips()": "c7a9abc0",
					"paused()": "5c975abb",
					"resumeTips()": "143dee97",
					"sendTip(string)": "7f5154b4",
					"tips(uint256)": "a5c68c59",
					"withdraw()": "3ccfd60b"
				}
			},
			"storageLayout": {
				"storage": [
					{
						"astId": 3,
						"contract": "contracts/008_TipJarWithModifiers.sol:TipJarWithModifiers",
						"label": "owner",
						"offset": 0,
						"slot": "0",
						"type": "t_address"
					},
					{
						"astId": 6,
						"contract": "contracts/008_TipJarWithModifiers.sol:TipJarWithModifiers",
						"label": "paused",
						"offset": 20,
						"slot": "0",
						"type": "t_bool"
					},
					{
						"astId": 17,
						"contract": "contracts/008_TipJarWithModifiers.sol:TipJarWithModifiers",
						"label": "tips",
						"offset": 0,
						"slot": "1",
						"type": "t_array(t_struct(Tip)13_storage)dyn_storage"
					}
				],
				"types": {
					"t_address": {
						"encoding": "inplace",
						"label": "address",
						"numberOfBytes": "20"
					},
					"t_array(t_struct(Tip)13_storage)dyn_storage": {
						"base": "t_struct(Tip)13_storage",
						"encoding": "dynamic_array",
						"label": "struct TipJarWithModifiers.Tip[]",
						"numberOfBytes": "32"
					},
					"t_bool": {
						"encoding": "inplace",
						"label": "bool",
						"numberOfBytes": "1"
					},
					"t_string_storage": {
						"encoding": "bytes",
						"label": "string",
						"numberOfBytes": "32"
					},
					"t_struct(Tip)13_storage": {
						"encoding": "inplace",
						"label": "struct TipJarWithModifiers.Tip",
						"members": [
							{
								"astId": 8,
								"contract": "contracts/008_TipJarWithModifiers.sol:TipJarWithModifiers",
								"label": "sender",
								"offset": 0,
								"slot": "0",
								"type": "t_address"
							},
							{
								"astId": 10,
								"contract": "contracts/008_TipJarWithModifiers.sol:TipJarWithModifiers",
								"label": "amount",
								"offset": 0,
								"slot": "1",
								"type": "t_uint256"
							},
							{
								"astId": 12,
								"contract": "contracts/008_TipJarWithModifiers.sol:TipJarWithModifiers",
								"label": "message",
								"offset": 0,
								"slot": "2",
								"type": "t_string_storage"
							}
						],
						"numberOfBytes": "96"
					},
					"t_uint256": {
						"encoding": "inplace",
						"label": "uint256",
						"numberOfBytes": "32"
					}
				}
			},
			"userdoc": {
				"kind": "user",
				"methods": {},
				"version": 1
			}
		}
	}
}