{
	"contracts/TipJarWithMessages.sol": {
		"TipJarWithMessages": {
			"abi": [
				{
					"inputs": [],
					"stateMutability": "nonpayable",
					"type": "constructor"
				},
				{
					"inputs": [],
					"name": "getBalance",
					"outputs": [
						{
							"internalType": "uint256",
							"name": "",
							"type": "uint256"
						}
					],
					"stateMutability": "view",
					"type": "function"
				},
				{
					"inputs": [
						{
							"internalType": "uint256",
							"name": "index",
							"type": "uint256"
						}
					],
					"name": "getTip",
					"outputs": [
						{
							"internalType": "address",
							"name": "",
							"type": "address"
						},
						{
							"internalType": "uint256",
							"name": "",
							"type": "uint256"
						},
						{
							"internalType": "string",
							"name": "",
							"type": "string"
						}
					],
					"stateMutability": "view",
					"type": "function"
				},
				{
					"inputs": [],
					"name": "getTipsCount",
					"outputs": [
						{
							"internalType": "uint256",
							"name": "",
							"type": "uint256"
						}
					],
					"stateMutability": "view",
					"type": "function"
				},
				{
					"inputs": [],
					"name": "owner",
					"outputs": [
						{
							"internalType": "address",
							"name": "",
							"type": "address"
						}
					],
					"stateMutability": "view",
					"type": "function"
				},
				{
					"inputs": [
						{
							"internalType": "string",
							"name": "_message",
							"type": "string"
						}
					],
					"name": "sendTip",
					"outputs": [],
					"stateMutability": "payable",
					"type": "function"
				},
				{
					"inputs": [
						{
							"internalType": "uint256",
							"name": "",
							"type": "uint256"
						}
					],
					"name": "tips",
					"outputs": [
						{
							"internalType": "address",
							"name": "sender",
							"type": "address"
						},
						{
							"internalType": "uint256",
							"name": "amount",
							"type": "uint256"
						},
						{
							"internalType": "string",
							"name": "message",
							"type": "string"
						}
					],
					"stateMutability": "view",
					"type": "function"
				},
				{
					"inputs": [],
					"name": "withdraw",
					"outputs": [],
					"stateMutability": "nonpayable",
					"type": "function"
				}
			],
			"devdoc": {
				"kind": "dev",
				"methods": {},
				"version": 1
			},
			"evm": {
				"assembly": "    /* \"contracts/TipJarWithMessages.sol\":60:1162  contract TipJarWithMessages {... */\n  mstore(0x40, 0x80)\n    /* \"contracts/TipJarWithMessages.sol\":249:300  constructor() {... */\n  callvalue\n  dup1\n  iszero\n  tag_1\n  jumpi\n  0x00\n  dup1\n  revert\ntag_1:\n  pop\n    /* \"contracts/TipJarWithMessages.sol\":282:292  msg.sender */\n  caller\n    /* \"contracts/TipJarWithMessages.sol\":274:279  owner */\n  0x00\n  dup1\n    /* \"contracts/TipJarWithMessages.sol\":274:292  owner = msg.sender */\n  0x0100\n  exp\n  dup2\n  sload\n  dup2\n  0xffffffffffffffffffffffffffffffffffffffff\n  mul\n  not\n  and\n  swap1\n  dup4\n  0xffffffffffffffffffffffffffffffffffffffff\n  and\n  mul\n  or\n  swap1\n  sstore\n  pop\n    /* \"contracts/TipJarWithMessages.sol\":60:1162  contract TipJarWithMessages {... */\n  dataSize(sub_0)\n  dup1\n  dataOffset(sub_0)\n  0x00\n  codecopy\n  0x00\n  return\nstop\n\nsub_0: assembly {\n        /* \"contracts/TipJarWithMessages.sol\":60:1162  contract TipJarWithMessages {... */\n      mstore(0x40, 0x80)\n      jumpi(tag_1, lt(calldatasize, 0x04))\n      shr(0xe0, calldataload(0x00))\n      dup1\n      0x7f5154b4\n      gt\n      tag_9\n      jumpi\n      dup1\n      0x7f5154b4\n      eq\n      tag_5\n      jumpi\n      dup1\n      0x8da5cb5b\n      eq\n      tag_6\n      jumpi\n      dup1\n      0xa12247b0\n      eq\n      tag_7\n      jumpi\n      dup1\n      0xa5c68c59\n      eq\n      tag_8\n      jumpi\n      jump(tag_1)\n    tag_9:\n      dup1\n      0x12065fe0\n      eq\n      tag_2\n      jumpi\n      dup1\n      0x3ccfd60b\n      eq\n      tag_3\n      jumpi\n      dup1\n      0x5b703f5c\n      eq\n      tag_4\n      jumpi\n    tag_1:\n      0x00\n      dup1\n      revert\n        /* \"contracts/TipJarWithMessages.sol\":535:631  function getBalance() public view returns (uint) {... */\n    tag_2:\n      callvalue\n      dup1\n      iszero\n      tag_10\n      jumpi\n      0x00\n      dup1\n      revert\n    tag_10:\n      pop\n      tag_11\n      tag_12\n      jump\t// in\n    tag_11:\n      mload(0x40)\n      tag_13\n      swap2\n      swap1\n      tag_14\n      jump\t// in\n    tag_13:\n      mload(0x40)\n      dup1\n      swap2\n      sub\n      swap1\n      return\n        /* \"contracts/TipJarWithMessages.sol\":639:807  function withdraw() public {... */\n    tag_3:\n      callvalue\n      dup1\n      iszero\n      tag_15\n      jumpi\n      0x00\n      dup1\n      revert\n    tag_15:\n      pop\n      tag_16\n      tag_17\n      jump\t// in\n    tag_16:\n      stop\n        /* \"contracts/TipJarWithMessages.sol\":986:1159  function getTip(uint index) public view returns (address, uint, string memory) {... */\n    tag_4:\n      callvalue\n      dup1\n      iszero\n      tag_18\n      jumpi\n      0x00\n      dup1\n      revert\n    tag_18:\n      pop\n      tag_19\n      0x04\n      dup1\n      calldatasize\n      sub\n      dup2\n      add\n      swap1\n      tag_20\n      swap2\n      swap1\n      tag_21\n      jump\t// in\n    tag_20:\n      tag_22\n      jump\t// in\n    tag_19:\n      mload(0x40)\n      tag_23\n      swap4\n      swap3\n      swap2\n      swap1\n      tag_24\n      jump\t// in\n    tag_23:\n      mload(0x40)\n      dup1\n      swap2\n      sub\n      swap1\n      return\n        /* \"contracts/TipJarWithMessages.sol\":339:527  function sendTip(string memory _message) public payable {... */\n    tag_5:\n      tag_25\n      0x04\n      dup1\n      calldatasize\n      sub\n      dup2\n      add\n      swap1\n      tag_26\n      swap2\n      swap1\n      tag_27\n      jump\t// in\n    tag_26:\n      tag_28\n      jump\t// in\n    tag_25:\n      stop\n        /* \"contracts/TipJarWithMessages.sol\":95:115  address public owner */\n    tag_6:\n      callvalue\n      dup1\n      iszero\n      tag_29\n      jumpi\n      0x00\n      dup1\n      revert\n    tag_29:\n      pop\n      tag_30\n      tag_31\n      jump\t// in\n    tag_30:\n      mload(0x40)\n      tag_32\n      swap2\n      swap1\n      tag_33\n      jump\t// in\n    tag_32:\n      mload(0x40)\n      dup1\n      swap2\n      sub\n      swap1\n      return\n        /* \"contracts/TipJarWithMessages.sol\":852:940  function getTipsCount() public view returns (uint) {... */\n    tag_7:\n      callvalue\n      dup1\n      iszero\n      tag_34\n      jumpi\n      0x00\n      dup1\n      revert\n    tag_34:\n      pop\n      tag_35\n      tag_36\n      jump\t// in\n    tag_35:\n      mload(0x40)\n      tag_37\n      swap2\n      swap1\n      tag_14\n      jump\t// in\n    tag_37:\n      mload(0x40)\n      dup1\n      swap2\n      sub\n      swap1\n      return\n        /* \"contracts/TipJarWithMessages.sol\":223:240  Tip[] public tips */\n    tag_8:\n      callvalue\n      dup1\n      iszero\n      tag_38\n      jumpi\n      0x00\n      dup1\n      revert\n    tag_38:\n      pop\n      tag_39\n      0x04\n      dup1\n      calldatasize\n      sub\n      dup2\n      add\n      swap1\n      tag_40\n      swap2\n      swap1\n      tag_21\n      jump\t// in\n    tag_40:\n      tag_41\n      jump\t// in\n    tag_39:\n      mload(0x40)\n      tag_42\n      swap4\n      swap3\n      swap2\n      swap1\n      tag_24\n      jump\t// in\n    tag_42:\n      mload(0x40)\n      dup1\n      swap2\n      sub\n      swap1\n      return\n        /* \"contracts/TipJarWithMessages.sol\":535:631  function getBalance() public view returns (uint) {... */\n    tag_12:\n        /* \"contracts/TipJarWithMessages.sol\":578:582  uint */\n      0x00\n        /* \"contracts/TipJarWithMessages.sol\":602:623  address(this).balance */\n      selfbalance\n        /* \"contracts/TipJarWithMessages.sol\":595:623  return address(this).balance */\n      swap1\n      pop\n        /* \"contracts/TipJarWithMessages.sol\":535:631  function getBalance() public view returns (uint) {... */\n      swap1\n      jump\t// out\n        /* \"contracts/TipJarWithMessages.sol\":639:807  function withdraw() public {... */\n    tag_17:\n        /* \"contracts/TipJarWithMessages.sol\":699:704  owner */\n      0x00\n      dup1\n      sload\n      swap1\n      0x0100\n      exp\n      swap1\n      div\n      0xffffffffffffffffffffffffffffffffffffffff\n      and\n        /* \"contracts/TipJarWithMessages.sol\":685:704  msg.sender == owner */\n      0xffffffffffffffffffffffffffffffffffffffff\n      and\n        /* \"contracts/TipJarWithMessages.sol\":685:695  msg.sender */\n      caller\n        /* \"contracts/TipJarWithMessages.sol\":685:704  msg.sender == owner */\n      0xffffffffffffffffffffffffffffffffffffffff\n      and\n      eq\n        /* \"contracts/TipJarWithMessages.sol\":677:742  require(msg.sender == owner, \"Solo el propietario puede retirar\") */\n      tag_45\n      jumpi\n      mload(0x40)\n      0x08c379a000000000000000000000000000000000000000000000000000000000\n      dup2\n      mstore\n      0x04\n      add\n      tag_46\n      swap1\n      tag_47\n      jump\t// in\n    tag_46:\n      mload(0x40)\n      dup1\n      swap2\n      sub\n      swap1\n      revert\n    tag_45:\n        /* \"contracts/TipJarWithMessages.sol\":761:766  owner */\n      0x00\n      dup1\n      sload\n      swap1\n      0x0100\n      exp\n      swap1\n      div\n      0xffffffffffffffffffffffffffffffffffffffff\n      and\n        /* \"contracts/TipJarWithMessages.sol\":753:776  payable(owner).transfer */\n      0xffffffffffffffffffffffffffffffffffffffff\n      and\n        /* \"contracts/TipJarWithMessages.sol\":753:799  payable(owner).transfer(address(this).balance) */\n      0x08fc\n        /* \"contracts/TipJarWithMessages.sol\":777:798  address(this).balance */\n      selfbalance\n        /* \"contracts/TipJarWithMessages.sol\":753:799  payable(owner).transfer(address(this).balance) */\n      swap1\n      dup2\n      iszero\n      mul\n      swap1\n      mload(0x40)\n      0x00\n      mload(0x40)\n      dup1\n      dup4\n      sub\n      dup2\n      dup6\n      dup9\n      dup9\n      call\n      swap4\n      pop\n      pop\n      pop\n      pop\n      iszero\n      dup1\n      iszero\n      tag_49\n      jumpi\n      returndatasize\n      0x00\n      dup1\n      returndatacopy\n      revert(0x00, returndatasize)\n    tag_49:\n      pop\n        /* \"contracts/TipJarWithMessages.sol\":639:807  function withdraw() public {... */\n      jump\t// out\n        /* \"contracts/TipJarWithMessages.sol\":986:1159  function getTip(uint index) public view returns (address, uint, string memory) {... */\n    tag_22:\n        /* \"contracts/TipJarWithMessages.sol\":1035:1042  address */\n      0x00\n        /* \"contracts/TipJarWithMessages.sol\":1044:1048  uint */\n      dup1\n        /* \"contracts/TipJarWithMessages.sol\":1050:1063  string memory */\n      0x60\n        /* \"contracts/TipJarWithMessages.sol\":1076:1088  Tip memory t */\n      0x00\n        /* \"contracts/TipJarWithMessages.sol\":1091:1095  tips */\n      0x01\n        /* \"contracts/TipJarWithMessages.sol\":1096:1101  index */\n      dup6\n        /* \"contracts/TipJarWithMessages.sol\":1091:1102  tips[index] */\n      dup2\n      sload\n      dup2\n      lt\n      tag_51\n      jumpi\n      tag_52\n      tag_53\n      jump\t// in\n    tag_52:\n    tag_51:\n      swap1\n      0x00\n      mstore\n      keccak256(0x00, 0x20)\n      swap1\n      0x03\n      mul\n      add\n        /* \"contracts/TipJarWithMessages.sol\":1076:1102  Tip memory t = tips[index] */\n      mload(0x40)\n      dup1\n      0x60\n      add\n      0x40\n      mstore\n      swap1\n      dup2\n      0x00\n      dup3\n      add\n      0x00\n      swap1\n      sload\n      swap1\n      0x0100\n      exp\n      swap1\n      div\n      0xffffffffffffffffffffffffffffffffffffffff\n      and\n      0xffffffffffffffffffffffffffffffffffffffff\n      and\n      0xffffffffffffffffffffffffffffffffffffffff\n      and\n      dup2\n      mstore\n      0x20\n      add\n      0x01\n      dup3\n      add\n      sload\n      dup2\n      mstore\n      0x20\n      add\n      0x02\n      dup3\n      add\n      dup1\n      sload\n      tag_55\n      swap1\n      tag_56\n      jump\t// in\n    tag_55:\n      dup1\n      0x1f\n      add\n      0x20\n      dup1\n      swap2\n      div\n      mul\n      0x20\n      add\n      mload(0x40)\n      swap1\n      dup2\n      add\n      0x40\n      mstore\n      dup1\n      swap3\n      swap2\n      swap1\n      dup2\n      dup2\n      mstore\n      0x20\n      add\n      dup3\n      dup1\n      sload\n      tag_57\n      swap1\n      tag_56\n      jump\t// in\n    tag_57:\n      dup1\n      iszero\n      tag_58\n      jumpi\n      dup1\n      0x1f\n      lt\n      tag_59\n      jumpi\n      0x0100\n      dup1\n      dup4\n      sload\n      div\n      mul\n      dup4\n      mstore\n      swap2\n      0x20\n      add\n      swap2\n      jump(tag_58)\n    tag_59:\n      dup3\n      add\n      swap2\n      swap1\n      0x00\n      mstore\n      keccak256(0x00, 0x20)\n      swap1\n    tag_60:\n      dup2\n      sload\n      dup2\n      mstore\n      swap1\n      0x01\n      add\n      swap1\n      0x20\n      add\n      dup1\n      dup4\n      gt\n      tag_60\n      jumpi\n      dup3\n      swap1\n      sub\n      0x1f\n      and\n      dup3\n      add\n      swap2\n    tag_58:\n      pop\n      pop\n      pop\n      pop\n      pop\n      dup2\n      mstore\n      pop\n      pop\n      swap1\n      pop\n        /* \"contracts/TipJarWithMessages.sol\":1121:1122  t */\n      dup1\n        /* \"contracts/TipJarWithMessages.sol\":1121:1129  t.sender */\n      0x00\n      add\n      mload\n        /* \"contracts/TipJarWithMessages.sol\":1131:1132  t */\n      dup2\n        /* \"contracts/TipJarWithMessages.sol\":1131:1139  t.amount */\n      0x20\n      add\n      mload\n        /* \"contracts/TipJarWithMessages.sol\":1141:1142  t */\n      dup3\n        /* \"contracts/TipJarWithMessages.sol\":1141:1150  t.message */\n      0x40\n      add\n      mload\n        /* \"contracts/TipJarWithMessages.sol\":1113:1151  return (t.sender, t.amount, t.message) */\n      swap4\n      pop\n      swap4\n      pop\n      swap4\n      pop\n      pop\n        /* \"contracts/TipJarWithMessages.sol\":986:1159  function getTip(uint index) public view returns (address, uint, string memory) {... */\n      swap2\n      swap4\n      swap1\n      swap3\n      pop\n      jump\t// out\n        /* \"contracts/TipJarWithMessages.sol\":339:527  function sendTip(string memory _message) public payable {... */\n    tag_28:\n        /* \"contracts/TipJarWithMessages.sol\":426:427  0 */\n      0x00\n        /* \"contracts/TipJarWithMessages.sol\":414:423  msg.value */\n      callvalue\n        /* \"contracts/TipJarWithMessages.sol\":414:427  msg.value > 0 */\n      gt\n        /* \"contracts/TipJarWithMessages.sol\":406:461  require(msg.value > 0, \"La propina debe ser mayor a 0\") */\n      tag_62\n      jumpi\n      mload(0x40)\n      0x08c379a000000000000000000000000000000000000000000000000000000000\n      dup2\n      mstore\n      0x04\n      add\n      tag_63\n      swap1\n      tag_64\n      jump\t// in\n    tag_63:\n      mload(0x40)\n      dup1\n      swap2\n      sub\n      swap1\n      revert\n    tag_62:\n        /* \"contracts/TipJarWithMessages.sol\":472:476  tips */\n      0x01\n        /* \"contracts/TipJarWithMessages.sol\":482:518  Tip(msg.sender, msg.value, _message) */\n      mload(0x40)\n      dup1\n      0x60\n      add\n      0x40\n      mstore\n      dup1\n        /* \"contracts/TipJarWithMessages.sol\":486:496  msg.sender */\n      caller\n        /* \"contracts/TipJarWithMessages.sol\":482:518  Tip(msg.sender, msg.value, _message) */\n      0xffffffffffffffffffffffffffffffffffffffff\n      and\n      dup2\n      mstore\n      0x20\n      add\n        /* \"contracts/TipJarWithMessages.sol\":498:507  msg.value */\n      callvalue\n        /* \"contracts/TipJarWithMessages.sol\":482:518  Tip(msg.sender, msg.value, _message) */\n      dup2\n      mstore\n      0x20\n      add\n        /* \"contracts/TipJarWithMessages.sol\":509:517  _message */\n      dup4\n        /* \"contracts/TipJarWithMessages.sol\":482:518  Tip(msg.sender, msg.value, _message) */\n      dup2\n      mstore\n      pop\n        /* \"contracts/TipJarWithMessages.sol\":472:519  tips.push(Tip(msg.sender, msg.value, _message)) */\n      swap1\n      dup1\n      0x01\n      dup2\n      sload\n      add\n      dup1\n      dup3\n      sstore\n      dup1\n      swap2\n      pop\n      pop\n      0x01\n      swap1\n      sub\n      swap1\n      0x00\n      mstore\n      keccak256(0x00, 0x20)\n      swap1\n      0x03\n      mul\n      add\n      0x00\n      swap1\n      swap2\n      swap1\n      swap2\n      swap1\n      swap2\n      pop\n      0x00\n      dup3\n      add\n      mload\n      dup2\n      0x00\n      add\n      exp(0x0100, 0x00)\n      dup2\n      sload\n      dup2\n      0xffffffffffffffffffffffffffffffffffffffff\n      mul\n      not\n      and\n      swap1\n      dup4\n      0xffffffffffffffffffffffffffffffffffffffff\n      and\n      mul\n      or\n      swap1\n      sstore\n      pop\n      0x20\n      dup3\n      add\n      mload\n      dup2\n      0x01\n      add\n      sstore\n      0x40\n      dup3\n      add\n      mload\n      dup2\n      0x02\n      add\n      swap1\n      dup2\n      tag_66\n      swap2\n      swap1\n      tag_67\n      jump\t// in\n    tag_66:\n      pop\n      pop\n      pop\n        /* \"contracts/TipJarWithMessages.sol\":339:527  function sendTip(string memory _message) public payable {... */\n      pop\n      jump\t// out\n        /* \"contracts/TipJarWithMessages.sol\":95:115  address public owner */\n    tag_31:\n      0x00\n      dup1\n      sload\n      swap1\n      0x0100\n      exp\n      swap1\n      div\n      0xffffffffffffffffffffffffffffffffffffffff\n      and\n      dup2\n      jump\t// out\n        /* \"contracts/TipJarWithMessages.sol\":852:940  function getTipsCount() public view returns (uint) {... */\n    tag_36:\n        /* \"contracts/TipJarWithMessages.sol\":897:901  uint */\n      0x00\n        /* \"contracts/TipJarWithMessages.sol\":921:925  tips */\n      0x01\n        /* \"contracts/TipJarWithMessages.sol\":921:932  tips.length */\n      dup1\n      sload\n      swap1\n      pop\n        /* \"contracts/TipJarWithMessages.sol\":914:932  return tips.length */\n      swap1\n      pop\n        /* \"contracts/TipJarWithMessages.sol\":852:940  function getTipsCount() public view returns (uint) {... */\n      swap1\n      jump\t// out\n        /* \"contracts/TipJarWithMessages.sol\":223:240  Tip[] public tips */\n    tag_41:\n      0x01\n      dup2\n      dup2\n      sload\n      dup2\n      lt\n      tag_69\n      jumpi\n      0x00\n      dup1\n      revert\n    tag_69:\n      swap1\n      0x00\n      mstore\n      keccak256(0x00, 0x20)\n      swap1\n      0x03\n      mul\n      add\n      0x00\n      swap2\n      pop\n      swap1\n      pop\n      dup1\n      0x00\n      add\n      0x00\n      swap1\n      sload\n      swap1\n      0x0100\n      exp\n      swap1\n      div\n      0xffffffffffffffffffffffffffffffffffffffff\n      and\n      swap1\n      dup1\n      0x01\n      add\n      sload\n      swap1\n      dup1\n      0x02\n      add\n      dup1\n      sload\n      tag_71\n      swap1\n      tag_56\n      jump\t// in\n    tag_71:\n      dup1\n      0x1f\n      add\n      0x20\n      dup1\n      swap2\n      div\n      mul\n      0x20\n      add\n      mload(0x40)\n      swap1\n      dup2\n      add\n      0x40\n      mstore\n      dup1\n      swap3\n      swap2\n      swap1\n      dup2\n      dup2\n      mstore\n      0x20\n      add\n      dup3\n      dup1\n      sload\n      tag_72\n      swap1\n      tag_56\n      jump\t// in\n    tag_72:\n      dup1\n      iszero\n      tag_73\n      jumpi\n      dup1\n      0x1f\n      lt\n      tag_74\n      jumpi\n      0x0100\n      dup1\n      dup4\n      sload\n      div\n      mul\n      dup4\n      mstore\n      swap2\n      0x20\n      add\n      swap2\n      jump(tag_73)\n    tag_74:\n      dup3\n      add\n      swap2\n      swap1\n      0x00\n      mstore\n      keccak256(0x00, 0x20)\n      swap1\n    tag_75:\n      dup2\n      sload\n      dup2\n      mstore\n      swap1\n      0x01\n      add\n      swap1\n      0x20\n      add\n      dup1\n      dup4\n      gt\n      tag_75\n      jumpi\n      dup3\n      swap1\n      sub\n      0x1f\n      and\n      dup3\n      add\n      swap2\n    tag_73:\n      pop\n      pop\n      pop\n      pop\n      pop\n      swap1\n      pop\n      dup4\n      jump\t// out\n        /* \"#utility.yul\":7:84   */\n    tag_76:\n        /* \"#utility.yul\":44:51   */\n      0x00\n        /* \"#utility.yul\":73:78   */\n      dup2\n        /* \"#utility.yul\":62:78   */\n      swap1\n      pop\n        /* \"#utility.yul\":7:84   */\n      swap2\n      swap1\n      pop\n      jump\t// out\n        /* \"#utility.yul\":90:208   */\n    tag_77:\n        /* \"#utility.yul\":177:201   */\n      tag_123\n        /* \"#utility.yul\":195:200   */\n      dup2\n        /* \"#utility.yul\":177:201   */\n      tag_76\n      jump\t// in\n    tag_123:\n        /* \"#utility.yul\":172:175   */\n      dup3\n        /* \"#utility.yul\":165:202   */\n      mstore\n        /* \"#utility.yul\":90:208   */\n      pop\n      pop\n      jump\t// out\n        /* \"#utility.yul\":214:436   */\n    tag_14:\n        /* \"#utility.yul\":307:311   */\n      0x00\n        /* \"#utility.yul\":345:347   */\n      0x20\n        /* \"#utility.yul\":334:343   */\n      dup3\n        /* \"#utility.yul\":330:348   */\n      add\n        /* \"#utility.yul\":322:348   */\n      swap1\n      pop\n        /* \"#utility.yul\":358:429   */\n      tag_125\n        /* \"#utility.yul\":426:427   */\n      0x00\n        /* \"#utility.yul\":415:424   */\n      dup4\n        /* \"#utility.yul\":411:428   */\n      add\n        /* \"#utility.yul\":402:408   */\n      dup5\n        /* \"#utility.yul\":358:429   */\n      tag_77\n      jump\t// in\n    tag_125:\n        /* \"#utility.yul\":214:436   */\n      swap3\n      swap2\n      pop\n      pop\n      jump\t// out\n        /* \"#utility.yul\":442:517   */\n    tag_78:\n        /* \"#utility.yul\":475:481   */\n      0x00\n        /* \"#utility.yul\":508:510   */\n      0x40\n        /* \"#utility.yul\":502:511   */\n      mload\n        /* \"#utility.yul\":492:511   */\n      swap1\n      pop\n        /* \"#utility.yul\":442:517   */\n      swap1\n      jump\t// out\n        /* \"#utility.yul\":523:640   */\n    tag_79:\n        /* \"#utility.yul\":632:633   */\n      0x00\n        /* \"#utility.yul\":629:630   */\n      dup1\n        /* \"#utility.yul\":622:634   */\n      revert\n        /* \"#utility.yul\":646:763   */\n    tag_80:\n        /* \"#utility.yul\":755:756   */\n      0x00\n        /* \"#utility.yul\":752:753   */\n      dup1\n        /* \"#utility.yul\":745:757   */\n      revert\n        /* \"#utility.yul\":769:891   */\n    tag_81:\n        /* \"#utility.yul\":842:866   */\n      tag_130\n        /* \"#utility.yul\":860:865   */\n      dup2\n        /* \"#utility.yul\":842:866   */\n      tag_76\n      jump\t// in\n    tag_130:\n        /* \"#utility.yul\":835:840   */\n      dup2\n        /* \"#utility.yul\":832:867   */\n      eq\n        /* \"#utility.yul\":822:885   */\n      tag_131\n      jumpi\n        /* \"#utility.yul\":881:882   */\n      0x00\n        /* \"#utility.yul\":878:879   */\n      dup1\n        /* \"#utility.yul\":871:883   */\n      revert\n        /* \"#utility.yul\":822:885   */\n    tag_131:\n        /* \"#utility.yul\":769:891   */\n      pop\n      jump\t// out\n        /* \"#utility.yul\":897:1036   */\n    tag_82:\n        /* \"#utility.yul\":943:948   */\n      0x00\n        /* \"#utility.yul\":981:987   */\n      dup2\n        /* \"#utility.yul\":968:988   */\n      calldataload\n        /* \"#utility.yul\":959:988   */\n      swap1\n      pop\n        /* \"#utility.yul\":997:1030   */\n      tag_133\n        /* \"#utility.yul\":1024:1029   */\n      dup2\n        /* \"#utility.yul\":997:1030   */\n      tag_81\n      jump\t// in\n    tag_133:\n        /* \"#utility.yul\":897:1036   */\n      swap3\n      swap2\n      pop\n      pop\n      jump\t// out\n        /* \"#utility.yul\":1042:1371   */\n    tag_21:\n        /* \"#utility.yul\":1101:1107   */\n      0x00\n        /* \"#utility.yul\":1150:1152   */\n      0x20\n        /* \"#utility.yul\":1138:1147   */\n      dup3\n        /* \"#utility.yul\":1129:1136   */\n      dup5\n        /* \"#utility.yul\":1125:1148   */\n      sub\n        /* \"#utility.yul\":1121:1153   */\n      slt\n        /* \"#utility.yul\":1118:1237   */\n      iszero\n      tag_135\n      jumpi\n        /* \"#utility.yul\":1156:1235   */\n      tag_136\n      tag_79\n      jump\t// in\n    tag_136:\n        /* \"#utility.yul\":1118:1237   */\n    tag_135:\n        /* \"#utility.yul\":1276:1277   */\n      0x00\n        /* \"#utility.yul\":1301:1354   */\n      tag_137\n        /* \"#utility.yul\":1346:1353   */\n      dup5\n        /* \"#utility.yul\":1337:1343   */\n      dup3\n        /* \"#utility.yul\":1326:1335   */\n      dup6\n        /* \"#utility.yul\":1322:1344   */\n      add\n        /* \"#utility.yul\":1301:1354   */\n      tag_82\n      jump\t// in\n    tag_137:\n        /* \"#utility.yul\":1291:1354   */\n      swap2\n      pop\n        /* \"#utility.yul\":1247:1364   */\n      pop\n        /* \"#utility.yul\":1042:1371   */\n      swap3\n      swap2\n      pop\n      pop\n      jump\t// out\n        /* \"#utility.yul\":1377:1503   */\n    tag_83:\n        /* \"#utility.yul\":1414:1421   */\n      0x00\n        /* \"#utility.yul\":1454:1496   */\n      0xffffffffffffffffffffffffffffffffffffffff\n        /* \"#utility.yul\":1447:1452   */\n      dup3\n        /* \"#utility.yul\":1443:1497   */\n      and\n        /* \"#utility.yul\":1432:1497   */\n      swap1\n      pop\n        /* \"#utility.yul\":1377:1503   */\n      swap2\n      swap1\n      pop\n      jump\t// out\n        /* \"#utility.yul\":1509:1605   */\n    tag_84:\n        /* \"#utility.yul\":1546:1553   */\n      0x00\n        /* \"#utility.yul\":1575:1599   */\n      tag_140\n        /* \"#utility.yul\":1593:1598   */\n      dup3\n        /* \"#utility.yul\":1575:1599   */\n      tag_83\n      jump\t// in\n    tag_140:\n        /* \"#utility.yul\":1564:1599   */\n      swap1\n      pop\n        /* \"#utility.yul\":1509:1605   */\n      swap2\n      swap1\n      pop\n      jump\t// out\n        /* \"#utility.yul\":1611:1729   */\n    tag_85:\n        /* \"#utility.yul\":1698:1722   */\n      tag_142\n        /* \"#utility.yul\":1716:1721   */\n      dup2\n        /* \"#utility.yul\":1698:1722   */\n      tag_84\n      jump\t// in\n    tag_142:\n        /* \"#utility.yul\":1693:1696   */\n      dup3\n        /* \"#utility.yul\":1686:1723   */\n      mstore\n        /* \"#utility.yul\":1611:1729   */\n      pop\n      pop\n      jump\t// out\n        /* \"#utility.yul\":1735:1834   */\n    tag_86:\n        /* \"#utility.yul\":1787:1793   */\n      0x00\n        /* \"#utility.yul\":1821:1826   */\n      dup2\n        /* \"#utility.yul\":1815:1827   */\n      mload\n        /* \"#utility.yul\":1805:1827   */\n      swap1\n      pop\n        /* \"#utility.yul\":1735:1834   */\n      swap2\n      swap1\n      pop\n      jump\t// out\n        /* \"#utility.yul\":1840:2009   */\n    tag_87:\n        /* \"#utility.yul\":1924:1935   */\n      0x00\n        /* \"#utility.yul\":1958:1964   */\n      dup3\n        /* \"#utility.yul\":1953:1956   */\n      dup3\n        /* \"#utility.yul\":1946:1965   */\n      mstore\n        /* \"#utility.yul\":1998:2002   */\n      0x20\n        /* \"#utility.yul\":1993:1996   */\n      dup3\n        /* \"#utility.yul\":1989:2003   */\n      add\n        /* \"#utility.yul\":1974:2003   */\n      swap1\n      pop\n        /* \"#utility.yul\":1840:2009   */\n      swap3\n      swap2\n      pop\n      pop\n      jump\t// out\n        /* \"#utility.yul\":2015:2154   */\n    tag_88:\n        /* \"#utility.yul\":2104:2110   */\n      dup3\n        /* \"#utility.yul\":2099:2102   */\n      dup2\n        /* \"#utility.yul\":2094:2097   */\n      dup4\n        /* \"#utility.yul\":2088:2111   */\n      mcopy\n        /* \"#utility.yul\":2145:2146   */\n      0x00\n        /* \"#utility.yul\":2136:2142   */\n      dup4\n        /* \"#utility.yul\":2131:2134   */\n      dup4\n        /* \"#utility.yul\":2127:2143   */\n      add\n        /* \"#utility.yul\":2120:2147   */\n      mstore\n        /* \"#utility.yul\":2015:2154   */\n      pop\n      pop\n      pop\n      jump\t// out\n        /* \"#utility.yul\":2160:2262   */\n    tag_89:\n        /* \"#utility.yul\":2201:2207   */\n      0x00\n        /* \"#utility.yul\":2252:2254   */\n      0x1f\n        /* \"#utility.yul\":2248:2255   */\n      not\n        /* \"#utility.yul\":2243:2245   */\n      0x1f\n        /* \"#utility.yul\":2236:2241   */\n      dup4\n        /* \"#utility.yul\":2232:2246   */\n      add\n        /* \"#utility.yul\":2228:2256   */\n      and\n        /* \"#utility.yul\":2218:2256   */\n      swap1\n      pop\n        /* \"#utility.yul\":2160:2262   */\n      swap2\n      swap1\n      pop\n      jump\t// out\n        /* \"#utility.yul\":2268:2645   */\n    tag_90:\n        /* \"#utility.yul\":2356:2359   */\n      0x00\n        /* \"#utility.yul\":2384:2423   */\n      tag_148\n        /* \"#utility.yul\":2417:2422   */\n      dup3\n        /* \"#utility.yul\":2384:2423   */\n      tag_86\n      jump\t// in\n    tag_148:\n        /* \"#utility.yul\":2439:2510   */\n      tag_149\n        /* \"#utility.yul\":2503:2509   */\n      dup2\n        /* \"#utility.yul\":2498:2501   */\n      dup6\n        /* \"#utility.yul\":2439:2510   */\n      tag_87\n      jump\t// in\n    tag_149:\n        /* \"#utility.yul\":2432:2510   */\n      swap4\n      pop\n        /* \"#utility.yul\":2519:2584   */\n      tag_150\n        /* \"#utility.yul\":2577:2583   */\n      dup2\n        /* \"#utility.yul\":2572:2575   */\n      dup6\n        /* \"#utility.yul\":2565:2569   */\n      0x20\n        /* \"#utility.yul\":2558:2563   */\n      dup7\n        /* \"#utility.yul\":2554:2570   */\n      add\n        /* \"#utility.yul\":2519:2584   */\n      tag_88\n      jump\t// in\n    tag_150:\n        /* \"#utility.yul\":2609:2638   */\n      tag_151\n        /* \"#utility.yul\":2631:2637   */\n      dup2\n        /* \"#utility.yul\":2609:2638   */\n      tag_89\n      jump\t// in\n    tag_151:\n        /* \"#utility.yul\":2604:2607   */\n      dup5\n        /* \"#utility.yul\":2600:2639   */\n      add\n        /* \"#utility.yul\":2593:2639   */\n      swap2\n      pop\n        /* \"#utility.yul\":2360:2645   */\n      pop\n        /* \"#utility.yul\":2268:2645   */\n      swap3\n      swap2\n      pop\n      pop\n      jump\t// out\n        /* \"#utility.yul\":2651:3184   */\n    tag_24:\n        /* \"#utility.yul\":2820:2824   */\n      0x00\n        /* \"#utility.yul\":2858:2860   */\n      0x60\n        /* \"#utility.yul\":2847:2856   */\n      dup3\n        /* \"#utility.yul\":2843:2861   */\n      add\n        /* \"#utility.yul\":2835:2861   */\n      swap1\n      pop\n        /* \"#utility.yul\":2871:2942   */\n      tag_153\n        /* \"#utility.yul\":2939:2940   */\n      0x00\n        /* \"#utility.yul\":2928:2937   */\n      dup4\n        /* \"#utility.yul\":2924:2941   */\n      add\n        /* \"#utility.yul\":2915:2921   */\n      dup7\n        /* \"#utility.yul\":2871:2942   */\n      tag_85\n      jump\t// in\n    tag_153:\n        /* \"#utility.yul\":2952:3024   */\n      tag_154\n        /* \"#utility.yul\":3020:3022   */\n      0x20\n        /* \"#utility.yul\":3009:3018   */\n      dup4\n        /* \"#utility.yul\":3005:3023   */\n      add\n        /* \"#utility.yul\":2996:3002   */\n      dup6\n        /* \"#utility.yul\":2952:3024   */\n      tag_77\n      jump\t// in\n    tag_154:\n        /* \"#utility.yul\":3071:3080   */\n      dup2\n        /* \"#utility.yul\":3065:3069   */\n      dup2\n        /* \"#utility.yul\":3061:3081   */\n      sub\n        /* \"#utility.yul\":3056:3058   */\n      0x40\n        /* \"#utility.yul\":3045:3054   */\n      dup4\n        /* \"#utility.yul\":3041:3059   */\n      add\n        /* \"#utility.yul\":3034:3082   */\n      mstore\n        /* \"#utility.yul\":3099:3177   */\n      tag_155\n        /* \"#utility.yul\":3172:3176   */\n      dup2\n        /* \"#utility.yul\":3163:3169   */\n      dup5\n        /* \"#utility.yul\":3099:3177   */\n      tag_90\n      jump\t// in\n    tag_155:\n        /* \"#utility.yul\":3091:3177   */\n      swap1\n      pop\n        /* \"#utility.yul\":2651:3184   */\n      swap5\n      swap4\n      pop\n      pop\n      pop\n      pop\n      jump\t// out\n        /* \"#utility.yul\":3190:3307   */\n    tag_91:\n        /* \"#utility.yul\":3299:3300   */\n      0x00\n        /* \"#utility.yul\":3296:3297   */\n      dup1\n        /* \"#utility.yul\":3289:3301   */\n      revert\n        /* \"#utility.yul\":3313:3430   */\n    tag_92:\n        /* \"#utility.yul\":3422:3423   */\n      0x00\n        /* \"#utility.yul\":3419:3420   */\n      dup1\n        /* \"#utility.yul\":3412:3424   */\n      revert\n        /* \"#utility.yul\":3436:3616   */\n    tag_93:\n        /* \"#utility.yul\":3484:3561   */\n      0x4e487b7100000000000000000000000000000000000000000000000000000000\n        /* \"#utility.yul\":3481:3482   */\n      0x00\n        /* \"#utility.yul\":3474:3562   */\n      mstore\n        /* \"#utility.yul\":3581:3585   */\n      0x41\n        /* \"#utility.yul\":3578:3579   */\n      0x04\n        /* \"#utility.yul\":3571:3586   */\n      mstore\n        /* \"#utility.yul\":3605:3609   */\n      0x24\n        /* \"#utility.yul\":3602:3603   */\n      0x00\n        /* \"#utility.yul\":3595:3610   */\n      revert\n        /* \"#utility.yul\":3622:3903   */\n    tag_94:\n        /* \"#utility.yul\":3705:3732   */\n      tag_160\n        /* \"#utility.yul\":3727:3731   */\n      dup3\n        /* \"#utility.yul\":3705:3732   */\n      tag_89\n      jump\t// in\n    tag_160:\n        /* \"#utility.yul\":3697:3703   */\n      dup2\n        /* \"#utility.yul\":3693:3733   */\n      add\n        /* \"#utility.yul\":3835:3841   */\n      dup2\n        /* \"#utility.yul\":3823:3833   */\n      dup2\n        /* \"#utility.yul\":3820:3842   */\n      lt\n        /* \"#utility.yul\":3799:3817   */\n      0xffffffffffffffff\n        /* \"#utility.yul\":3787:3797   */\n      dup3\n        /* \"#utility.yul\":3784:3818   */\n      gt\n        /* \"#utility.yul\":3781:3843   */\n      or\n        /* \"#utility.yul\":3778:3866   */\n      iszero\n      tag_161\n      jumpi\n        /* \"#utility.yul\":3846:3864   */\n      tag_162\n      tag_93\n      jump\t// in\n    tag_162:\n        /* \"#utility.yul\":3778:3866   */\n    tag_161:\n        /* \"#utility.yul\":3886:3896   */\n      dup1\n        /* \"#utility.yul\":3882:3884   */\n      0x40\n        /* \"#utility.yul\":3875:3897   */\n      mstore\n        /* \"#utility.yul\":3665:3903   */\n      pop\n        /* \"#utility.yul\":3622:3903   */\n      pop\n      pop\n      jump\t// out\n        /* \"#utility.yul\":3909:4038   */\n    tag_95:\n        /* \"#utility.yul\":3943:3949   */\n      0x00\n        /* \"#utility.yul\":3970:3990   */\n      tag_164\n      tag_78\n      jump\t// in\n    tag_164:\n        /* \"#utility.yul\":3960:3990   */\n      swap1\n      pop\n        /* \"#utility.yul\":3999:4032   */\n      tag_165\n        /* \"#utility.yul\":4027:4031   */\n      dup3\n        /* \"#utility.yul\":4019:4025   */\n      dup3\n        /* \"#utility.yul\":3999:4032   */\n      tag_94\n      jump\t// in\n    tag_165:\n        /* \"#utility.yul\":3909:4038   */\n      swap2\n      swap1\n      pop\n      jump\t// out\n        /* \"#utility.yul\":4044:4352   */\n    tag_96:\n        /* \"#utility.yul\":4106:4110   */\n      0x00\n        /* \"#utility.yul\":4196:4214   */\n      0xffffffffffffffff\n        /* \"#utility.yul\":4188:4194   */\n      dup3\n        /* \"#utility.yul\":4185:4215   */\n      gt\n        /* \"#utility.yul\":4182:4238   */\n      iszero\n      tag_167\n      jumpi\n        /* \"#utility.yul\":4218:4236   */\n      tag_168\n      tag_93\n      jump\t// in\n    tag_168:\n        /* \"#utility.yul\":4182:4238   */\n    tag_167:\n        /* \"#utility.yul\":4256:4285   */\n      tag_169\n        /* \"#utility.yul\":4278:4284   */\n      dup3\n        /* \"#utility.yul\":4256:4285   */\n      tag_89\n      jump\t// in\n    tag_169:\n        /* \"#utility.yul\":4248:4285   */\n      swap1\n      pop\n        /* \"#utility.yul\":4340:4344   */\n      0x20\n        /* \"#utility.yul\":4334:4338   */\n      dup2\n        /* \"#utility.yul\":4330:4345   */\n      add\n        /* \"#utility.yul\":4322:4345   */\n      swap1\n      pop\n        /* \"#utility.yul\":4044:4352   */\n      swap2\n      swap1\n      pop\n      jump\t// out\n        /* \"#utility.yul\":4358:4506   */\n    tag_97:\n        /* \"#utility.yul\":4456:4462   */\n      dup3\n        /* \"#utility.yul\":4451:4454   */\n      dup2\n        /* \"#utility.yul\":4446:4449   */\n      dup4\n        /* \"#utility.yul\":4433:4463   */\n      calldatacopy\n        /* \"#utility.yul\":4497:4498   */\n      0x00\n        /* \"#utility.yul\":4488:4494   */\n      dup4\n        /* \"#utility.yul\":4483:4486   */\n      dup4\n        /* \"#utility.yul\":4479:4495   */\n      add\n        /* \"#utility.yul\":4472:4499   */\n      mstore\n        /* \"#utility.yul\":4358:4506   */\n      pop\n      pop\n      pop\n      jump\t// out\n        /* \"#utility.yul\":4512:4937   */\n    tag_98:\n        /* \"#utility.yul\":4590:4595   */\n      0x00\n        /* \"#utility.yul\":4615:4681   */\n      tag_172\n        /* \"#utility.yul\":4631:4680   */\n      tag_173\n        /* \"#utility.yul\":4673:4679   */\n      dup5\n        /* \"#utility.yul\":4631:4680   */\n      tag_96\n      jump\t// in\n    tag_173:\n        /* \"#utility.yul\":4615:4681   */\n      tag_95\n      jump\t// in\n    tag_172:\n        /* \"#utility.yul\":4606:4681   */\n      swap1\n      pop\n        /* \"#utility.yul\":4704:4710   */\n      dup3\n        /* \"#utility.yul\":4697:4702   */\n      dup2\n        /* \"#utility.yul\":4690:4711   */\n      mstore\n        /* \"#utility.yul\":4742:4746   */\n      0x20\n        /* \"#utility.yul\":4735:4740   */\n      dup2\n        /* \"#utility.yul\":4731:4747   */\n      add\n        /* \"#utility.yul\":4780:4783   */\n      dup5\n        /* \"#utility.yul\":4771:4777   */\n      dup5\n        /* \"#utility.yul\":4766:4769   */\n      dup5\n        /* \"#utility.yul\":4762:4778   */\n      add\n        /* \"#utility.yul\":4759:4784   */\n      gt\n        /* \"#utility.yul\":4756:4868   */\n      iszero\n      tag_174\n      jumpi\n        /* \"#utility.yul\":4787:4866   */\n      tag_175\n      tag_92\n      jump\t// in\n    tag_175:\n        /* \"#utility.yul\":4756:4868   */\n    tag_174:\n        /* \"#utility.yul\":4877:4931   */\n      tag_176\n        /* \"#utility.yul\":4924:4930   */\n      dup5\n        /* \"#utility.yul\":4919:4922   */\n      dup3\n        /* \"#utility.yul\":4914:4917   */\n      dup6\n        /* \"#utility.yul\":4877:4931   */\n      tag_97\n      jump\t// in\n    tag_176:\n        /* \"#utility.yul\":4596:4937   */\n      pop\n        /* \"#utility.yul\":4512:4937   */\n      swap4\n      swap3\n      pop\n      pop\n      pop\n      jump\t// out\n        /* \"#utility.yul\":4957:5297   */\n    tag_99:\n        /* \"#utility.yul\":5013:5018   */\n      0x00\n        /* \"#utility.yul\":5062:5065   */\n      dup3\n        /* \"#utility.yul\":5055:5059   */\n      0x1f\n        /* \"#utility.yul\":5047:5053   */\n      dup4\n        /* \"#utility.yul\":5043:5060   */\n      add\n        /* \"#utility.yul\":5039:5066   */\n      slt\n        /* \"#utility.yul\":5029:5151   */\n      tag_178\n      jumpi\n        /* \"#utility.yul\":5070:5149   */\n      tag_179\n      tag_91\n      jump\t// in\n    tag_179:\n        /* \"#utility.yul\":5029:5151   */\n    tag_178:\n        /* \"#utility.yul\":5187:5193   */\n      dup2\n        /* \"#utility.yul\":5174:5194   */\n      calldataload\n        /* \"#utility.yul\":5212:5291   */\n      tag_180\n        /* \"#utility.yul\":5287:5290   */\n      dup5\n        /* \"#utility.yul\":5279:5285   */\n      dup3\n        /* \"#utility.yul\":5272:5276   */\n      0x20\n        /* \"#utility.yul\":5264:5270   */\n      dup7\n        /* \"#utility.yul\":5260:5277   */\n      add\n        /* \"#utility.yul\":5212:5291   */\n      tag_98\n      jump\t// in\n    tag_180:\n        /* \"#utility.yul\":5203:5291   */\n      swap2\n      pop\n        /* \"#utility.yul\":5019:5297   */\n      pop\n        /* \"#utility.yul\":4957:5297   */\n      swap3\n      swap2\n      pop\n      pop\n      jump\t// out\n        /* \"#utility.yul\":5303:5812   */\n    tag_27:\n        /* \"#utility.yul\":5372:5378   */\n      0x00\n        /* \"#utility.yul\":5421:5423   */\n      0x20\n        /* \"#utility.yul\":5409:5418   */\n      dup3\n        /* \"#utility.yul\":5400:5407   */\n      dup5\n        /* \"#utility.yul\":5396:5419   */\n      sub\n        /* \"#utility.yul\":5392:5424   */\n      slt\n        /* \"#utility.yul\":5389:5508   */\n      iszero\n      tag_182\n      jumpi\n        /* \"#utility.yul\":5427:5506   */\n      tag_183\n      tag_79\n      jump\t// in\n    tag_183:\n        /* \"#utility.yul\":5389:5508   */\n    tag_182:\n        /* \"#utility.yul\":5575:5576   */\n      0x00\n        /* \"#utility.yul\":5564:5573   */\n      dup3\n        /* \"#utility.yul\":5560:5577   */\n      add\n        /* \"#utility.yul\":5547:5578   */\n      calldataload\n        /* \"#utility.yul\":5605:5623   */\n      0xffffffffffffffff\n        /* \"#utility.yul\":5597:5603   */\n      dup2\n        /* \"#utility.yul\":5594:5624   */\n      gt\n        /* \"#utility.yul\":5591:5708   */\n      iszero\n      tag_184\n      jumpi\n        /* \"#utility.yul\":5627:5706   */\n      tag_185\n      tag_80\n      jump\t// in\n    tag_185:\n        /* \"#utility.yul\":5591:5708   */\n    tag_184:\n        /* \"#utility.yul\":5732:5795   */\n      tag_186\n        /* \"#utility.yul\":5787:5794   */\n      dup5\n        /* \"#utility.yul\":5778:5784   */\n      dup3\n        /* \"#utility.yul\":5767:5776   */\n      dup6\n        /* \"#utility.yul\":5763:5785   */\n      add\n        /* \"#utility.yul\":5732:5795   */\n      tag_99\n      jump\t// in\n    tag_186:\n        /* \"#utility.yul\":5722:5795   */\n      swap2\n      pop\n        /* \"#utility.yul\":5518:5805   */\n      pop\n        /* \"#utility.yul\":5303:5812   */\n      swap3\n      swap2\n      pop\n      pop\n      jump\t// out\n        /* \"#utility.yul\":5818:6040   */\n    tag_33:\n        /* \"#utility.yul\":5911:5915   */\n      0x00\n        /* \"#utility.yul\":5949:5951   */\n      0x20\n        /* \"#utility.yul\":5938:5947   */\n      dup3\n        /* \"#utility.yul\":5934:5952   */\n      add\n        /* \"#utility.yul\":5926:5952   */\n      swap1\n      pop\n        /* \"#utility.yul\":5962:6033   */\n      tag_188\n        /* \"#utility.yul\":6030:6031   */\n      0x00\n        /* \"#utility.yul\":6019:6028   */\n      dup4\n        /* \"#utility.yul\":6015:6032   */\n      add\n        /* \"#utility.yul\":6006:6012   */\n      dup5\n        /* \"#utility.yul\":5962:6033   */\n      tag_85\n      jump\t// in\n    tag_188:\n        /* \"#utility.yul\":5818:6040   */\n      swap3\n      swap2\n      pop\n      pop\n      jump\t// out\n        /* \"#utility.yul\":6046:6266   */\n    tag_100:\n        /* \"#utility.yul\":6186:6220   */\n      0x536f6c6f20656c2070726f706965746172696f20707565646520726574697261\n        /* \"#utility.yul\":6182:6183   */\n      0x00\n        /* \"#utility.yul\":6174:6180   */\n      dup3\n        /* \"#utility.yul\":6170:6184   */\n      add\n        /* \"#utility.yul\":6163:6221   */\n      mstore\n        /* \"#utility.yul\":6255:6258   */\n      0x7200000000000000000000000000000000000000000000000000000000000000\n        /* \"#utility.yul\":6250:6252   */\n      0x20\n        /* \"#utility.yul\":6242:6248   */\n      dup3\n        /* \"#utility.yul\":6238:6253   */\n      add\n        /* \"#utility.yul\":6231:6259   */\n      mstore\n        /* \"#utility.yul\":6046:6266   */\n      pop\n      jump\t// out\n        /* \"#utility.yul\":6272:6638   */\n    tag_101:\n        /* \"#utility.yul\":6414:6417   */\n      0x00\n        /* \"#utility.yul\":6435:6502   */\n      tag_191\n        /* \"#utility.yul\":6499:6501   */\n      0x21\n        /* \"#utility.yul\":6494:6497   */\n      dup4\n        /* \"#utility.yul\":6435:6502   */\n      tag_87\n      jump\t// in\n    tag_191:\n        /* \"#utility.yul\":6428:6502   */\n      swap2\n      pop\n        /* \"#utility.yul\":6511:6604   */\n      tag_192\n        /* \"#utility.yul\":6600:6603   */\n      dup3\n        /* \"#utility.yul\":6511:6604   */\n      tag_100\n      jump\t// in\n    tag_192:\n        /* \"#utility.yul\":6629:6631   */\n      0x40\n        /* \"#utility.yul\":6624:6627   */\n      dup3\n        /* \"#utility.yul\":6620:6632   */\n      add\n        /* \"#utility.yul\":6613:6632   */\n      swap1\n      pop\n        /* \"#utility.yul\":6272:6638   */\n      swap2\n      swap1\n      pop\n      jump\t// out\n        /* \"#utility.yul\":6644:7063   */\n    tag_47:\n        /* \"#utility.yul\":6810:6814   */\n      0x00\n        /* \"#utility.yul\":6848:6850   */\n      0x20\n        /* \"#utility.yul\":6837:6846   */\n      dup3\n        /* \"#utility.yul\":6833:6851   */\n      add\n        /* \"#utility.yul\":6825:6851   */\n      swap1\n      pop\n        /* \"#utility.yul\":6897:6906   */\n      dup2\n        /* \"#utility.yul\":6891:6895   */\n      dup2\n        /* \"#utility.yul\":6887:6907   */\n      sub\n        /* \"#utility.yul\":6883:6884   */\n      0x00\n        /* \"#utility.yul\":6872:6881   */\n      dup4\n        /* \"#utility.yul\":6868:6885   */\n      add\n        /* \"#utility.yul\":6861:6908   */\n      mstore\n        /* \"#utility.yul\":6925:7056   */\n      tag_194\n        /* \"#utility.yul\":7051:7055   */\n      dup2\n        /* \"#utility.yul\":6925:7056   */\n      tag_101\n      jump\t// in\n    tag_194:\n        /* \"#utility.yul\":6917:7056   */\n      swap1\n      pop\n        /* \"#utility.yul\":6644:7063   */\n      swap2\n      swap1\n      pop\n      jump\t// out\n        /* \"#utility.yul\":7069:7249   */\n    tag_53:\n        /* \"#utility.yul\":7117:7194   */\n      0x4e487b7100000000000000000000000000000000000000000000000000000000\n        /* \"#utility.yul\":7114:7115   */\n      0x00\n        /* \"#utility.yul\":7107:7195   */\n      mstore\n        /* \"#utility.yul\":7214:7218   */\n      0x32\n        /* \"#utility.yul\":7211:7212   */\n      0x04\n        /* \"#utility.yul\":7204:7219   */\n      mstore\n        /* \"#utility.yul\":7238:7242   */\n      0x24\n        /* \"#utility.yul\":7235:7236   */\n      0x00\n        /* \"#utility.yul\":7228:7243   */\n      revert\n        /* \"#utility.yul\":7255:7435   */\n    tag_102:\n        /* \"#utility.yul\":7303:7380   */\n      0x4e487b7100000000000000000000000000000000000000000000000000000000\n        /* \"#utility.yul\":7300:7301   */\n      0x00\n        /* \"#utility.yul\":7293:7381   */\n      mstore\n        /* \"#utility.yul\":7400:7404   */\n      0x22\n        /* \"#utility.yul\":7397:7398   */\n      0x04\n        /* \"#utility.yul\":7390:7405   */\n      mstore\n        /* \"#utility.yul\":7424:7428   */\n      0x24\n        /* \"#utility.yul\":7421:7422   */\n      0x00\n        /* \"#utility.yul\":7414:7429   */\n      revert\n        /* \"#utility.yul\":7441:7761   */\n    tag_56:\n        /* \"#utility.yul\":7485:7491   */\n      0x00\n        /* \"#utility.yul\":7522:7523   */\n      0x02\n        /* \"#utility.yul\":7516:7520   */\n      dup3\n        /* \"#utility.yul\":7512:7524   */\n      div\n        /* \"#utility.yul\":7502:7524   */\n      swap1\n      pop\n        /* \"#utility.yul\":7569:7570   */\n      0x01\n        /* \"#utility.yul\":7563:7567   */\n      dup3\n        /* \"#utility.yul\":7559:7571   */\n      and\n        /* \"#utility.yul\":7590:7608   */\n      dup1\n        /* \"#utility.yul\":7580:7661   */\n      tag_198\n      jumpi\n        /* \"#utility.yul\":7646:7650   */\n      0x7f\n        /* \"#utility.yul\":7638:7644   */\n      dup3\n        /* \"#utility.yul\":7634:7651   */\n      and\n        /* \"#utility.yul\":7624:7651   */\n      swap2\n      pop\n        /* \"#utility.yul\":7580:7661   */\n    tag_198:\n        /* \"#utility.yul\":7708:7710   */\n      0x20\n        /* \"#utility.yul\":7700:7706   */\n      dup3\n        /* \"#utility.yul\":7697:7711   */\n      lt\n        /* \"#utility.yul\":7677:7695   */\n      dup2\n        /* \"#utility.yul\":7674:7712   */\n      sub\n        /* \"#utility.yul\":7671:7755   */\n      tag_199\n      jumpi\n        /* \"#utility.yul\":7727:7745   */\n      tag_200\n      tag_102\n      jump\t// in\n    tag_200:\n        /* \"#utility.yul\":7671:7755   */\n    tag_199:\n        /* \"#utility.yul\":7492:7761   */\n      pop\n        /* \"#utility.yul\":7441:7761   */\n      swap2\n      swap1\n      pop\n      jump\t// out\n        /* \"#utility.yul\":7767:7946   */\n    tag_103:\n        /* \"#utility.yul\":7907:7938   */\n      0x4c612070726f70696e61206465626520736572206d61796f7220612030000000\n        /* \"#utility.yul\":7903:7904   */\n      0x00\n        /* \"#utility.yul\":7895:7901   */\n      dup3\n        /* \"#utility.yul\":7891:7905   */\n      add\n        /* \"#utility.yul\":7884:7939   */\n      mstore\n        /* \"#utility.yul\":7767:7946   */\n      pop\n      jump\t// out\n        /* \"#utility.yul\":7952:8318   */\n    tag_104:\n        /* \"#utility.yul\":8094:8097   */\n      0x00\n        /* \"#utility.yul\":8115:8182   */\n      tag_203\n        /* \"#utility.yul\":8179:8181   */\n      0x1d\n        /* \"#utility.yul\":8174:8177   */\n      dup4\n        /* \"#utility.yul\":8115:8182   */\n      tag_87\n      jump\t// in\n    tag_203:\n        /* \"#utility.yul\":8108:8182   */\n      swap2\n      pop\n        /* \"#utility.yul\":8191:8284   */\n      tag_204\n        /* \"#utility.yul\":8280:8283   */\n      dup3\n        /* \"#utility.yul\":8191:8284   */\n      tag_103\n      jump\t// in\n    tag_204:\n        /* \"#utility.yul\":8309:8311   */\n      0x20\n        /* \"#utility.yul\":8304:8307   */\n      dup3\n        /* \"#utility.yul\":8300:8312   */\n      add\n        /* \"#utility.yul\":8293:8312   */\n      swap1\n      pop\n        /* \"#utility.yul\":7952:8318   */\n      swap2\n      swap1\n      pop\n      jump\t// out\n        /* \"#utility.yul\":8324:8743   */\n    tag_64:\n        /* \"#utility.yul\":8490:8494   */\n      0x00\n        /* \"#utility.yul\":8528:8530   */\n      0x20\n        /* \"#utility.yul\":8517:8526   */\n      dup3\n        /* \"#utility.yul\":8513:8531   */\n      add\n        /* \"#utility.yul\":8505:8531   */\n      swap1\n      pop\n        /* \"#utility.yul\":8577:8586   */\n      dup2\n        /* \"#utility.yul\":8571:8575   */\n      dup2\n        /* \"#utility.yul\":8567:8587   */\n      sub\n        /* \"#utility.yul\":8563:8564   */\n      0x00\n        /* \"#utility.yul\":8552:8561   */\n      dup4\n        /* \"#utility.yul\":8548:8565   */\n      add\n        /* \"#utility.yul\":8541:8588   */\n      mstore\n        /* \"#utility.yul\":8605:8736   */\n      tag_206\n        /* \"#utility.yul\":8731:8735   */\n      dup2\n        /* \"#utility.yul\":8605:8736   */\n      tag_104\n      jump\t// in\n    tag_206:\n        /* \"#utility.yul\":8597:8736   */\n      swap1\n      pop\n        /* \"#utility.yul\":8324:8743   */\n      swap2\n      swap1\n      pop\n      jump\t// out\n        /* \"#utility.yul\":8749:8890   */\n    tag_105:\n        /* \"#utility.yul\":8798:8802   */\n      0x00\n        /* \"#utility.yul\":8821:8824   */\n      dup2\n        /* \"#utility.yul\":8813:8824   */\n      swap1\n      pop\n        /* \"#utility.yul\":8844:8847   */\n      dup2\n        /* \"#utility.yul\":8841:8842   */\n      0x00\n        /* \"#utility.yul\":8834:8848   */\n      mstore\n        /* \"#utility.yul\":8878:8882   */\n      0x20\n        /* \"#utility.yul\":8875:8876   */\n      0x00\n        /* \"#utility.yul\":8865:8883   */\n      keccak256\n        /* \"#utility.yul\":8857:8883   */\n      swap1\n      pop\n        /* \"#utility.yul\":8749:8890   */\n      swap2\n      swap1\n      pop\n      jump\t// out\n        /* \"#utility.yul\":8896:8989   */\n    tag_106:\n        /* \"#utility.yul\":8933:8939   */\n      0x00\n        /* \"#utility.yul\":8980:8982   */\n      0x20\n        /* \"#utility.yul\":8975:8977   */\n      0x1f\n        /* \"#utility.yul\":8968:8973   */\n      dup4\n        /* \"#utility.yul\":8964:8978   */\n      add\n        /* \"#utility.yul\":8960:8983   */\n      div\n        /* \"#utility.yul\":8950:8983   */\n      swap1\n      pop\n        /* \"#utility.yul\":8896:8989   */\n      swap2\n      swap1\n      pop\n      jump\t// out\n        /* \"#utility.yul\":8995:9102   */\n    tag_107:\n        /* \"#utility.yul\":9039:9047   */\n      0x00\n        /* \"#utility.yul\":9089:9094   */\n      dup3\n        /* \"#utility.yul\":9083:9087   */\n      dup3\n        /* \"#utility.yul\":9079:9095   */\n      shl\n        /* \"#utility.yul\":9058:9095   */\n      swap1\n      pop\n        /* \"#utility.yul\":8995:9102   */\n      swap3\n      swap2\n      pop\n      pop\n      jump\t// out\n        /* \"#utility.yul\":9108:9501   */\n    tag_108:\n        /* \"#utility.yul\":9177:9183   */\n      0x00\n        /* \"#utility.yul\":9227:9228   */\n      0x08\n        /* \"#utility.yul\":9215:9225   */\n      dup4\n        /* \"#utility.yul\":9211:9229   */\n      mul\n        /* \"#utility.yul\":9250:9347   */\n      tag_211\n        /* \"#utility.yul\":9280:9346   */\n      0xffffffffffffffffffffffffffffffffffffffffffffffffffffffffffffffff\n        /* \"#utility.yul\":9269:9278   */\n      dup3\n        /* \"#utility.yul\":9250:9347   */\n      tag_107\n      jump\t// in\n    tag_211:\n        /* \"#utility.yul\":9368:9407   */\n      tag_212\n        /* \"#utility.yul\":9398:9406   */\n      dup7\n        /* \"#utility.yul\":9387:9396   */\n      dup4\n        /* \"#utility.yul\":9368:9407   */\n      tag_107\n      jump\t// in\n    tag_212:\n        /* \"#utility.yul\":9356:9407   */\n      swap6\n      pop\n        /* \"#utility.yul\":9440:9444   */\n      dup1\n        /* \"#utility.yul\":9436:9445   */\n      not\n        /* \"#utility.yul\":9429:9434   */\n      dup5\n        /* \"#utility.yul\":9425:9446   */\n      and\n        /* \"#utility.yul\":9416:9446   */\n      swap4\n      pop\n        /* \"#utility.yul\":9489:9493   */\n      dup1\n        /* \"#utility.yul\":9479:9487   */\n      dup7\n        /* \"#utility.yul\":9475:9494   */\n      and\n        /* \"#utility.yul\":9468:9473   */\n      dup5\n        /* \"#utility.yul\":9465:9495   */\n      or\n        /* \"#utility.yul\":9455:9495   */\n      swap3\n      pop\n        /* \"#utility.yul\":9184:9501   */\n      pop\n      pop\n        /* \"#utility.yul\":9108:9501   */\n      swap4\n      swap3\n      pop\n      pop\n      pop\n      jump\t// out\n        /* \"#utility.yul\":9507:9567   */\n    tag_109:\n        /* \"#utility.yul\":9535:9538   */\n      0x00\n        /* \"#utility.yul\":9556:9561   */\n      dup2\n        /* \"#utility.yul\":9549:9561   */\n      swap1\n      pop\n        /* \"#utility.yul\":9507:9567   */\n      swap2\n      swap1\n      pop\n      jump\t// out\n        /* \"#utility.yul\":9573:9715   */\n    tag_110:\n        /* \"#utility.yul\":9623:9632   */\n      0x00\n        /* \"#utility.yul\":9656:9709   */\n      tag_215\n        /* \"#utility.yul\":9674:9708   */\n      tag_216\n        /* \"#utility.yul\":9683:9707   */\n      tag_217\n        /* \"#utility.yul\":9701:9706   */\n      dup5\n        /* \"#utility.yul\":9683:9707   */\n      tag_76\n      jump\t// in\n    tag_217:\n        /* \"#utility.yul\":9674:9708   */\n      tag_109\n      jump\t// in\n    tag_216:\n        /* \"#utility.yul\":9656:9709   */\n      tag_76\n      jump\t// in\n    tag_215:\n        /* \"#utility.yul\":9643:9709   */\n      swap1\n      pop\n        /* \"#utility.yul\":9573:9715   */\n      swap2\n      swap1\n      pop\n      jump\t// out\n        /* \"#utility.yul\":9721:9796   */\n    tag_111:\n        /* \"#utility.yul\":9764:9767   */\n      0x00\n        /* \"#utility.yul\":9785:9790   */\n      dup2\n        /* \"#utility.yul\":9778:9790   */\n      swap1\n      pop\n        /* \"#utility.yul\":9721:9796   */\n      swap2\n      swap1\n      pop\n      jump\t// out\n        /* \"#utility.yul\":9802:10071   */\n    tag_112:\n        /* \"#utility.yul\":9912:9951   */\n      tag_220\n        /* \"#utility.yul\":9943:9950   */\n      dup4\n        /* \"#utility.yul\":9912:9951   */\n      tag_110\n      jump\t// in\n    tag_220:\n        /* \"#utility.yul\":9973:10064   */\n      tag_221\n        /* \"#utility.yul\":10022:10063   */\n      tag_222\n        /* \"#utility.yul\":10046:10062   */\n      dup3\n        /* \"#utility.yul\":10022:10063   */\n      tag_111\n      jump\t// in\n    tag_222:\n        /* \"#utility.yul\":10014:10020   */\n      dup5\n        /* \"#utility.yul\":10007:10011   */\n      dup5\n        /* \"#utility.yul\":10001:10012   */\n      sload\n        /* \"#utility.yul\":9973:10064   */\n      tag_108\n      jump\t// in\n    tag_221:\n        /* \"#utility.yul\":9967:9971   */\n      dup3\n        /* \"#utility.yul\":9960:10065   */\n      sstore\n        /* \"#utility.yul\":9878:10071   */\n      pop\n        /* \"#utility.yul\":9802:10071   */\n      pop\n      pop\n      pop\n      jump\t// out\n        /* \"#utility.yul\":10077:10150   */\n    tag_113:\n        /* \"#utility.yul\":10122:10125   */\n      0x00\n        /* \"#utility.yul\":10077:10150   */\n      swap1\n      jump\t// out\n        /* \"#utility.yul\":10156:10345   */\n    tag_114:\n        /* \"#utility.yul\":10233:10265   */\n      tag_225\n      tag_113\n      jump\t// in\n    tag_225:\n        /* \"#utility.yul\":10274:10339   */\n      tag_226\n        /* \"#utility.yul\":10332:10338   */\n      dup2\n        /* \"#utility.yul\":10324:10330   */\n      dup5\n        /* \"#utility.yul\":10318:10322   */\n      dup5\n        /* \"#utility.yul\":10274:10339   */\n      tag_112\n      jump\t// in\n    tag_226:\n        /* \"#utility.yul\":10209:10345   */\n      pop\n        /* \"#utility.yul\":10156:10345   */\n      pop\n      pop\n      jump\t// out\n        /* \"#utility.yul\":10351:10537   */\n    tag_115:\n        /* \"#utility.yul\":10411:10531   */\n    tag_228:\n        /* \"#utility.yul\":10428:10431   */\n      dup2\n        /* \"#utility.yul\":10421:10426   */\n      dup2\n        /* \"#utility.yul\":10418:10432   */\n      lt\n        /* \"#utility.yul\":10411:10531   */\n      iszero\n      tag_230\n      jumpi\n        /* \"#utility.yul\":10482:10521   */\n      tag_231\n        /* \"#utility.yul\":10519:10520   */\n      0x00\n        /* \"#utility.yul\":10512:10517   */\n      dup3\n        /* \"#utility.yul\":10482:10521   */\n      tag_114\n      jump\t// in\n    tag_231:\n        /* \"#utility.yul\":10455:10456   */\n      0x01\n        /* \"#utility.yul\":10448:10453   */\n      dup2\n        /* \"#utility.yul\":10444:10457   */\n      add\n        /* \"#utility.yul\":10435:10457   */\n      swap1\n      pop\n        /* \"#utility.yul\":10411:10531   */\n      jump(tag_228)\n    tag_230:\n        /* \"#utility.yul\":10351:10537   */\n      pop\n      pop\n      jump\t// out\n        /* \"#utility.yul\":10543:11086   */\n    tag_116:\n        /* \"#utility.yul\":10644:10646   */\n      0x1f\n        /* \"#utility.yul\":10639:10642   */\n      dup3\n        /* \"#utility.yul\":10636:10647   */\n      gt\n        /* \"#utility.yul\":10633:11079   */\n      iszero\n      tag_233\n      jumpi\n        /* \"#utility.yul\":10678:10716   */\n      tag_234\n        /* \"#utility.yul\":10710:10715   */\n      dup2\n        /* \"#utility.yul\":10678:10716   */\n      tag_105\n      jump\t// in\n    tag_234:\n        /* \"#utility.yul\":10762:10791   */\n      tag_235\n        /* \"#utility.yul\":10780:10790   */\n      dup5\n        /* \"#utility.yul\":10762:10791   */\n      tag_106\n      jump\t// in\n    tag_235:\n        /* \"#utility.yul\":10752:10760   */\n      dup2\n        /* \"#utility.yul\":10748:10792   */\n      add\n        /* \"#utility.yul\":10945:10947   */\n      0x20\n        /* \"#utility.yul\":10933:10943   */\n      dup6\n        /* \"#utility.yul\":10930:10948   */\n      lt\n        /* \"#utility.yul\":10927:10976   */\n      iszero\n      tag_236\n      jumpi\n        /* \"#utility.yul\":10966:10974   */\n      dup2\n        /* \"#utility.yul\":10951:10974   */\n      swap1\n      pop\n        /* \"#utility.yul\":10927:10976   */\n    tag_236:\n        /* \"#utility.yul\":10989:11069   */\n      tag_237\n        /* \"#utility.yul\":11045:11067   */\n      tag_238\n        /* \"#utility.yul\":11063:11066   */\n      dup6\n        /* \"#utility.yul\":11045:11067   */\n      tag_106\n      jump\t// in\n    tag_238:\n        /* \"#utility.yul\":11035:11043   */\n      dup4\n        /* \"#utility.yul\":11031:11068   */\n      add\n        /* \"#utility.yul\":11018:11029   */\n      dup3\n        /* \"#utility.yul\":10989:11069   */\n      tag_115\n      jump\t// in\n    tag_237:\n        /* \"#utility.yul\":10648:11079   */\n      pop\n      pop\n        /* \"#utility.yul\":10633:11079   */\n    tag_233:\n        /* \"#utility.yul\":10543:11086   */\n      pop\n      pop\n      pop\n      jump\t// out\n        /* \"#utility.yul\":11092:11209   */\n    tag_117:\n        /* \"#utility.yul\":11146:11154   */\n      0x00\n        /* \"#utility.yul\":11196:11201   */\n      dup3\n        /* \"#utility.yul\":11190:11194   */\n      dup3\n        /* \"#utility.yul\":11186:11202   */\n      shr\n        /* \"#utility.yul\":11165:11202   */\n      swap1\n      pop\n        /* \"#utility.yul\":11092:11209   */\n      swap3\n      swap2\n      pop\n      pop\n      jump\t// out\n        /* \"#utility.yul\":11215:11384   */\n    tag_118:\n        /* \"#utility.yul\":11259:11265   */\n      0x00\n        /* \"#utility.yul\":11292:11343   */\n      tag_241\n        /* \"#utility.yul\":11340:11341   */\n      0x00\n        /* \"#utility.yul\":11336:11342   */\n      not\n        /* \"#utility.yul\":11328:11333   */\n      dup5\n        /* \"#utility.yul\":11325:11326   */\n      0x08\n        /* \"#utility.yul\":11321:11334   */\n      mul\n        /* \"#utility.yul\":11292:11343   */\n      tag_117\n      jump\t// in\n    tag_241:\n        /* \"#utility.yul\":11288:11344   */\n      not\n        /* \"#utility.yul\":11373:11377   */\n      dup1\n        /* \"#utility.yul\":11367:11371   */\n      dup4\n        /* \"#utility.yul\":11363:11378   */\n      and\n        /* \"#utility.yul\":11353:11378   */\n      swap2\n      pop\n        /* \"#utility.yul\":11266:11384   */\n      pop\n        /* \"#utility.yul\":11215:11384   */\n      swap3\n      swap2\n      pop\n      pop\n      jump\t// out\n        /* \"#utility.yul\":11389:11684   */\n    tag_119:\n        /* \"#utility.yul\":11465:11469   */\n      0x00\n        /* \"#utility.yul\":11611:11640   */\n      tag_243\n        /* \"#utility.yul\":11636:11639   */\n      dup4\n        /* \"#utility.yul\":11630:11634   */\n      dup4\n        /* \"#utility.yul\":11611:11640   */\n      tag_118\n      jump\t// in\n    tag_243:\n        /* \"#utility.yul\":11603:11640   */\n      swap2\n      pop\n        /* \"#utility.yul\":11673:11676   */\n      dup3\n        /* \"#utility.yul\":11670:11671   */\n      0x02\n        /* \"#utility.yul\":11666:11677   */\n      mul\n        /* \"#utility.yul\":11660:11664   */\n      dup3\n        /* \"#utility.yul\":11657:11678   */\n      or\n        /* \"#utility.yul\":11649:11678   */\n      swap1\n      pop\n        /* \"#utility.yul\":11389:11684   */\n      swap3\n      swap2\n      pop\n      pop\n      jump\t// out\n        /* \"#utility.yul\":11689:13084   */\n    tag_67:\n        /* \"#utility.yul\":11806:11843   */\n      tag_245\n        /* \"#utility.yul\":11839:11842   */\n      dup3\n        /* \"#utility.yul\":11806:11843   */\n      tag_86\n      jump\t// in\n    tag_245:\n        /* \"#utility.yul\":11908:11926   */\n      0xffffffffffffffff\n        /* \"#utility.yul\":11900:11906   */\n      dup2\n        /* \"#utility.yul\":11897:11927   */\n      gt\n        /* \"#utility.yul\":11894:11950   */\n      iszero\n      tag_246\n      jumpi\n        /* \"#utility.yul\":11930:11948   */\n      tag_247\n      tag_93\n      jump\t// in\n    tag_247:\n        /* \"#utility.yul\":11894:11950   */\n    tag_246:\n        /* \"#utility.yul\":11974:12012   */\n      tag_248\n        /* \"#utility.yul\":12006:12010   */\n      dup3\n        /* \"#utility.yul\":12000:12011   */\n      sload\n        /* \"#utility.yul\":11974:12012   */\n      tag_56\n      jump\t// in\n    tag_248:\n        /* \"#utility.yul\":12059:12126   */\n      tag_249\n        /* \"#utility.yul\":12119:12125   */\n      dup3\n        /* \"#utility.yul\":12111:12117   */\n      dup3\n        /* \"#utility.yul\":12105:12109   */\n      dup6\n        /* \"#utility.yul\":12059:12126   */\n      tag_116\n      jump\t// in\n    tag_249:\n        /* \"#utility.yul\":12153:12154   */\n      0x00\n        /* \"#utility.yul\":12177:12181   */\n      0x20\n        /* \"#utility.yul\":12164:12181   */\n      swap1\n      pop\n        /* \"#utility.yul\":12209:12211   */\n      0x1f\n        /* \"#utility.yul\":12201:12207   */\n      dup4\n        /* \"#utility.yul\":12198:12212   */\n      gt\n        /* \"#utility.yul\":12226:12227   */\n      0x01\n        /* \"#utility.yul\":12221:12839   */\n      dup2\n      eq\n      tag_251\n      jumpi\n        /* \"#utility.yul\":12883:12884   */\n      0x00\n        /* \"#utility.yul\":12900:12906   */\n      dup5\n        /* \"#utility.yul\":12897:12974   */\n      iszero\n      tag_252\n      jumpi\n        /* \"#utility.yul\":12949:12958   */\n      dup3\n        /* \"#utility.yul\":12944:12947   */\n      dup8\n        /* \"#utility.yul\":12940:12959   */\n      add\n        /* \"#utility.yul\":12934:12960   */\n      mload\n        /* \"#utility.yul\":12925:12960   */\n      swap1\n      pop\n        /* \"#utility.yul\":12897:12974   */\n    tag_252:\n        /* \"#utility.yul\":13000:13067   */\n      tag_253\n        /* \"#utility.yul\":13060:13066   */\n      dup6\n        /* \"#utility.yul\":13053:13058   */\n      dup3\n        /* \"#utility.yul\":13000:13067   */\n      tag_119\n      jump\t// in\n    tag_253:\n        /* \"#utility.yul\":12994:12998   */\n      dup7\n        /* \"#utility.yul\":12987:13068   */\n      sstore\n        /* \"#utility.yul\":12856:13078   */\n      pop\n        /* \"#utility.yul\":12191:13078   */\n      jump(tag_250)\n        /* \"#utility.yul\":12221:12839   */\n    tag_251:\n        /* \"#utility.yul\":12273:12277   */\n      0x1f\n        /* \"#utility.yul\":12269:12278   */\n      not\n        /* \"#utility.yul\":12261:12267   */\n      dup5\n        /* \"#utility.yul\":12257:12279   */\n      and\n        /* \"#utility.yul\":12307:12344   */\n      tag_254\n        /* \"#utility.yul\":12339:12343   */\n      dup7\n        /* \"#utility.yul\":12307:12344   */\n      tag_105\n      jump\t// in\n    tag_254:\n        /* \"#utility.yul\":12366:12367   */\n      0x00\n        /* \"#utility.yul\":12380:12588   */\n    tag_255:\n        /* \"#utility.yul\":12394:12401   */\n      dup3\n        /* \"#utility.yul\":12391:12392   */\n      dup2\n        /* \"#utility.yul\":12388:12402   */\n      lt\n        /* \"#utility.yul\":12380:12588   */\n      iszero\n      tag_257\n      jumpi\n        /* \"#utility.yul\":12473:12482   */\n      dup5\n        /* \"#utility.yul\":12468:12471   */\n      dup10\n        /* \"#utility.yul\":12464:12483   */\n      add\n        /* \"#utility.yul\":12458:12484   */\n      mload\n        /* \"#utility.yul\":12450:12456   */\n      dup3\n        /* \"#utility.yul\":12443:12485   */\n      sstore\n        /* \"#utility.yul\":12524:12525   */\n      0x01\n        /* \"#utility.yul\":12516:12522   */\n      dup3\n        /* \"#utility.yul\":12512:12526   */\n      add\n        /* \"#utility.yul\":12502:12526   */\n      swap2\n      pop\n        /* \"#utility.yul\":12571:12573   */\n      0x20\n        /* \"#utility.yul\":12560:12569   */\n      dup6\n        /* \"#utility.yul\":12556:12574   */\n      add\n        /* \"#utility.yul\":12543:12574   */\n      swap5\n      pop\n        /* \"#utility.yul\":12417:12421   */\n      0x20\n        /* \"#utility.yul\":12414:12415   */\n      dup2\n        /* \"#utility.yul\":12410:12422   */\n      add\n        /* \"#utility.yul\":12405:12422   */\n      swap1\n      pop\n        /* \"#utility.yul\":12380:12588   */\n      jump(tag_255)\n    tag_257:\n        /* \"#utility.yul\":12616:12622   */\n      dup7\n        /* \"#utility.yul\":12607:12614   */\n      dup4\n        /* \"#utility.yul\":12604:12623   */\n      lt\n        /* \"#utility.yul\":12601:12780   */\n      iszero\n      tag_258\n      jumpi\n        /* \"#utility.yul\":12674:12683   */\n      dup5\n        /* \"#utility.yul\":12669:12672   */\n      dup10\n        /* \"#utility.yul\":12665:12684   */\n      add\n        /* \"#utility.yul\":12659:12685   */\n      mload\n        /* \"#utility.yul\":12717:12765   */\n      tag_259\n        /* \"#utility.yul\":12759:12763   */\n      0x1f\n        /* \"#utility.yul\":12751:12757   */\n      dup10\n        /* \"#utility.yul\":12747:12764   */\n      and\n        /* \"#utility.yul\":12736:12745   */\n      dup3\n        /* \"#utility.yul\":12717:12765   */\n      tag_118\n      jump\t// in\n    tag_259:\n        /* \"#utility.yul\":12709:12715   */\n      dup4\n        /* \"#utility.yul\":12702:12766   */\n      sstore\n        /* \"#utility.yul\":12624:12780   */\n      pop\n        /* \"#utility.yul\":12601:12780   */\n    tag_258:\n        /* \"#utility.yul\":12826:12827   */\n      0x01\n        /* \"#utility.yul\":12822:12823   */\n      0x02\n        /* \"#utility.yul\":12814:12820   */\n      dup9\n        /* \"#utility.yul\":12810:12824   */\n      mul\n        /* \"#utility.yul\":12806:12828   */\n      add\n        /* \"#utility.yul\":12800:12804   */\n      dup9\n        /* \"#utility.yul\":12793:12829   */\n      sstore\n        /* \"#utility.yul\":12228:12839   */\n      pop\n      pop\n      pop\n        /* \"#utility.yul\":12191:13078   */\n    tag_250:\n      pop\n        /* \"#utility.yul\":11781:13084   */\n      pop\n      pop\n      pop\n        /* \"#utility.yul\":11689:13084   */\n      pop\n      pop\n      jump\t// out\n\n    auxdata: 0xa2646970667358221220058a81e370b371991e2a4328f8e8a2a8a219b0089cda32eb70894dca3dd76c9664736f6c634300081a0033\n}\n",
				"bytecode": {
					"linkReferences": {},
					"object": "6080604052348015600e575f80fd5b50335f806101000a81548173ffffffffffffffffffffffffffffffffffffffff021916908373ffffffffffffffffffffffffffffffffffffffff160217905550610d118061005b5f395ff3fe60806040526004361061006f575f3560e01c80637f5154b41161004d5780637f5154b4146100f15780638da5cb5b1461010d578063a12247b014610137578063a5c68c59146101615761006f565b806312065fe0146100735780633ccfd60b1461009d5780635b703f5c146100b3575b5f80fd5b34801561007e575f80fd5b5061008761019f565b60405161009491906105f9565b60405180910390f35b3480156100a8575f80fd5b506100b16101a6565b005b3480156100be575f80fd5b506100d960048036038101906100d4919061064d565b610298565b6040516100e893929190610727565b60405180910390f35b61010b6004803603810190610106919061088f565b6103d4565b005b348015610118575f80fd5b506101216104d8565b60405161012e91906108d6565b60405180910390f35b348015610142575f80fd5b5061014b6104fb565b60405161015891906105f9565b60405180910390f35b34801561016c575f80fd5b506101876004803603810190610182919061064d565b610507565b60405161019693929190610727565b60405180910390f35b5f47905090565b5f8054906101000a900473ffffffffffffffffffffffffffffffffffffffff1673ffffffffffffffffffffffffffffffffffffffff163373ffffffffffffffffffffffffffffffffffffffff1614610233576040517f08c379a000000000000000000000000000000000000000000000000000000000815260040161022a9061095f565b60405180910390fd5b5f8054906101000a900473ffffffffffffffffffffffffffffffffffffffff1673ffffffffffffffffffffffffffffffffffffffff166108fc4790811502906040515f60405180830381858888f19350505050158015610295573d5f803e3d5ffd5b50565b5f8060605f600185815481106102b1576102b061097d565b5b905f5260205f2090600302016040518060600160405290815f82015f9054906101000a900473ffffffffffffffffffffffffffffffffffffffff1673ffffffffffffffffffffffffffffffffffffffff1673ffffffffffffffffffffffffffffffffffffffff16815260200160018201548152602001600282018054610336906109d7565b80601f0160208091040260200160405190810160405280929190818152602001828054610362906109d7565b80156103ad5780601f10610384576101008083540402835291602001916103ad565b820191905f5260205f20905b81548152906001019060200180831161039057829003601f168201915b5050505050815250509050805f015181602001518260400151935093509350509193909250565b5f3411610416576040517f08c379a000000000000000000000000000000000000000000000000000000000815260040161040d90610a51565b60405180910390fd5b600160405180606001604052803373ffffffffffffffffffffffffffffffffffffffff16815260200134815260200183815250908060018154018082558091505060019003905f5260205f2090600302015f909190919091505f820151815f015f6101000a81548173ffffffffffffffffffffffffffffffffffffffff021916908373ffffffffffffffffffffffffffffffffffffffff1602179055506020820151816001015560408201518160020190816104d29190610c0c565b50505050565b5f8054906101000a900473ffffffffffffffffffffffffffffffffffffffff1681565b5f600180549050905090565b60018181548110610516575f80fd5b905f5260205f2090600302015f91509050805f015f9054906101000a900473ffffffffffffffffffffffffffffffffffffffff1690806001015490806002018054610560906109d7565b80601f016020809104026020016040519081016040528092919081815260200182805461058c906109d7565b80156105d75780601f106105ae576101008083540402835291602001916105d7565b820191905f5260205f20905b8154815290600101906020018083116105ba57829003601f168201915b5050505050905083565b5f819050919050565b6105f3816105e1565b82525050565b5f60208201905061060c5f8301846105ea565b92915050565b5f604051905090565b5f80fd5b5f80fd5b61062c816105e1565b8114610636575f80fd5b50565b5f8135905061064781610623565b92915050565b5f602082840312156106625761066161061b565b5b5f61066f84828501610639565b91505092915050565b5f73ffffffffffffffffffffffffffffffffffffffff82169050919050565b5f6106a182610678565b9050919050565b6106b181610697565b82525050565b5f81519050919050565b5f82825260208201905092915050565b8281835e5f83830152505050565b5f601f19601f8301169050919050565b5f6106f9826106b7565b61070381856106c1565b93506107138185602086016106d1565b61071c816106df565b840191505092915050565b5f60608201905061073a5f8301866106a8565b61074760208301856105ea565b818103604083015261075981846106ef565b9050949350505050565b5f80fd5b5f80fd5b7f4e487b71000000000000000000000000000000000000000000000000000000005f52604160045260245ffd5b6107a1826106df565b810181811067ffffffffffffffff821117156107c0576107bf61076b565b5b80604052505050565b5f6107d2610612565b90506107de8282610798565b919050565b5f67ffffffffffffffff8211156107fd576107fc61076b565b5b610806826106df565b9050602081019050919050565b828183375f83830152505050565b5f61083361082e846107e3565b6107c9565b90508281526020810184848401111561084f5761084e610767565b5b61085a848285610813565b509392505050565b5f82601f83011261087657610875610763565b5b8135610886848260208601610821565b91505092915050565b5f602082840312156108a4576108a361061b565b5b5f82013567ffffffffffffffff8111156108c1576108c061061f565b5b6108cd84828501610862565b91505092915050565b5f6020820190506108e95f8301846106a8565b92915050565b7f536f6c6f20656c2070726f706965746172696f207075656465207265746972615f8201527f7200000000000000000000000000000000000000000000000000000000000000602082015250565b5f6109496021836106c1565b9150610954826108ef565b604082019050919050565b5f6020820190508181035f8301526109768161093d565b9050919050565b7f4e487b71000000000000000000000000000000000000000000000000000000005f52603260045260245ffd5b7f4e487b71000000000000000000000000000000000000000000000000000000005f52602260045260245ffd5b5f60028204905060018216806109ee57607f821691505b602082108103610a0157610a006109aa565b5b50919050565b7f4c612070726f70696e61206465626520736572206d61796f72206120300000005f82015250565b5f610a3b601d836106c1565b9150610a4682610a07565b602082019050919050565b5f6020820190508181035f830152610a6881610a2f565b9050919050565b5f819050815f5260205f209050919050565b5f6020601f8301049050919050565b5f82821b905092915050565b5f60088302610acb7fffffffffffffffffffffffffffffffffffffffffffffffffffffffffffffffff82610a90565b610ad58683610a90565b95508019841693508086168417925050509392505050565b5f819050919050565b5f610b10610b0b610b06846105e1565b610aed565b6105e1565b9050919050565b5f819050919050565b610b2983610af6565b610b3d610b3582610b17565b848454610a9c565b825550505050565b5f90565b610b51610b45565b610b5c818484610b20565b505050565b5b81811015610b7f57610b745f82610b49565b600181019050610b62565b5050565b601f821115610bc457610b9581610a6f565b610b9e84610a81565b81016020851015610bad578190505b610bc1610bb985610a81565b830182610b61565b50505b505050565b5f82821c905092915050565b5f610be45f1984600802610bc9565b1980831691505092915050565b5f610bfc8383610bd5565b9150826002028217905092915050565b610c15826106b7565b67ffffffffffffffff811115610c2e57610c2d61076b565b5b610c3882546109d7565b610c43828285610b83565b5f60209050601f831160018114610c74575f8415610c62578287015190505b610c6c8582610bf1565b865550610cd3565b601f198416610c8286610a6f565b5f5b82811015610ca957848901518255600182019150602085019450602081019050610c84565b86831015610cc65784890151610cc2601f891682610bd5565b8355505b6001600288020188555050505b50505050505056fea2646970667358221220058a81e370b371991e2a4328f8e8a2a8a219b0089cda32eb70894dca3dd76c9664736f6c634300081a0033",
					"opcodes": "PUSH1 0x80 PUSH1 0x40 MSTORE CALLVALUE DUP1 ISZERO PUSH1 0xE JUMPI PUSH0 DUP1 REVERT JUMPDEST POP CALLER PUSH0 DUP1 PUSH2 0x100 EXP DUP2 SLOAD DUP2 PUSH20 0xFFFFFFFFFFFFFFFFFFFFFFFFFFFFFFFFFFFFFFFF MUL NOT AND SWAP1 DUP4 PUSH20 0xFFFFFFFFFFFFFFFFFFFFFFFFFFFFFFFFFFFFFFFF AND MUL OR SWAP1 SSTORE POP PUSH2 0xD11 DUP1 PUSH2 0x5B PUSH0 CODECOPY PUSH0 RETURN INVALID PUSH1 0x80 PUSH1 0x40 MSTORE PUSH1 0x4 CALLDATASIZE LT PUSH2 0x6F JUMPI PUSH0 CALLDATALOAD PUSH1 0xE0 SHR DUP1 PUSH4 0x7F5154B4 GT PUSH2 0x4D JUMPI DUP1 PUSH4 0x7F5154B4 EQ PUSH2 0xF1 JUMPI DUP1 PUSH4 0x8DA5CB5B EQ PUSH2 0x10D JUMPI DUP1 PUSH4 0xA12247B0 EQ PUSH2 0x137 JUMPI DUP1 PUSH4 0xA5C68C59 EQ PUSH2 0x161 JUMPI PUSH2 0x6F JUMP JUMPDEST DUP1 PUSH4 0x12065FE0 EQ PUSH2 0x73 JUMPI DUP1 PUSH4 0x3CCFD60B EQ PUSH2 0x9D JUMPI DUP1 PUSH4 0x5B703F5C EQ PUSH2 0xB3 JUMPI JUMPDEST PUSH0 DUP1 REVERT JUMPDEST CALLVALUE DUP1 ISZERO PUSH2 0x7E JUMPI PUSH0 DUP1 REVERT JUMPDEST POP PUSH2 0x87 PUSH2 0x19F JUMP JUMPDEST PUSH1 0x40 MLOAD PUSH2 0x94 SWAP2 SWAP1 PUSH2 0x5F9 JUMP JUMPDEST PUSH1 0x40 MLOAD DUP1 SWAP2 SUB SWAP1 RETURN JUMPDEST CALLVALUE DUP1 ISZERO PUSH2 0xA8 JUMPI PUSH0 DUP1 REVERT JUMPDEST POP PUSH2 0xB1 PUSH2 0x1A6 JUMP JUMPDEST STOP JUMPDEST CALLVALUE DUP1 ISZERO PUSH2 0xBE JUMPI PUSH0 DUP1 REVERT JUMPDEST POP PUSH2 0xD9 PUSH1 0x4 DUP1 CALLDATASIZE SUB DUP2 ADD SWAP1 PUSH2 0xD4 SWAP2 SWAP1 PUSH2 0x64D JUMP JUMPDEST PUSH2 0x298 JUMP JUMPDEST PUSH1 0x40 MLOAD PUSH2 0xE8 SWAP4 SWAP3 SWAP2 SWAP1 PUSH2 0x727 JUMP JUMPDEST PUSH1 0x40 MLOAD DUP1 SWAP2 SUB SWAP1 RETURN JUMPDEST PUSH2 0x10B PUSH1 0x4 DUP1 CALLDATASIZE SUB DUP2 ADD SWAP1 PUSH2 0x106 SWAP2 SWAP1 PUSH2 0x88F JUMP JUMPDEST PUSH2 0x3D4 JUMP JUMPDEST STOP JUMPDEST CALLVALUE DUP1 ISZERO PUSH2 0x118 JUMPI PUSH0 DUP1 REVERT JUMPDEST POP PUSH2 0x121 PUSH2 0x4D8 JUMP JUMPDEST PUSH1 0x40 MLOAD PUSH2 0x12E SWAP2 SWAP1 PUSH2 0x8D6 JUMP JUMPDEST PUSH1 0x40 MLOAD DUP1 SWAP2 SUB SWAP1 RETURN JUMPDEST CALLVALUE DUP1 ISZERO PUSH2 0x142 JUMPI PUSH0 DUP1 REVERT JUMPDEST POP PUSH2 0x14B PUSH2 0x4FB JUMP JUMPDEST PUSH1 0x40 MLOAD PUSH2 0x158 SWAP2 SWAP1 PUSH2 0x5F9 JUMP JUMPDEST PUSH1 0x40 MLOAD DUP1 SWAP2 SUB SWAP1 RETURN JUMPDEST CALLVALUE DUP1 ISZERO PUSH2 0x16C JUMPI PUSH0 DUP1 REVERT JUMPDEST POP PUSH2 0x187 PUSH1 0x4 DUP1 CALLDATASIZE SUB DUP2 ADD SWAP1 PUSH2 0x182 SWAP2 SWAP1 PUSH2 0x64D JUMP JUMPDEST PUSH2 0x507 JUMP JUMPDEST PUSH1 0x40 MLOAD PUSH2 0x196 SWAP4 SWAP3 SWAP2 SWAP1 PUSH2 0x727 JUMP JUMPDEST PUSH1 0x40 MLOAD DUP1 SWAP2 SUB SWAP1 RETURN JUMPDEST PUSH0 SELFBALANCE SWAP1 POP SWAP1 JUMP JUMPDEST PUSH0 DUP1 SLOAD SWAP1 PUSH2 0x100 EXP SWAP1 DIV PUSH20 0xFFFFFFFFFFFFFFFFFFFFFFFFFFFFFFFFFFFFFFFF AND PUSH20 0xFFFFFFFFFFFFFFFFFFFFFFFFFFFFFFFFFFFFFFFF AND CALLER PUSH20 0xFFFFFFFFFFFFFFFFFFFFFFFFFFFFFFFFFFFFFFFF AND EQ PUSH2 0x233 JUMPI PUSH1 0x40 MLOAD PUSH32 0x8C379A000000000000000000000000000000000000000000000000000000000 DUP2 MSTORE PUSH1 0x4 ADD PUSH2 0x22A SWAP1 PUSH2 0x95F JUMP JUMPDEST PUSH1 0x40 MLOAD DUP1 SWAP2 SUB SWAP1 REVERT JUMPDEST PUSH0 DUP1 SLOAD SWAP1 PUSH2 0x100 EXP SWAP1 DIV PUSH20 0xFFFFFFFFFFFFFFFFFFFFFFFFFFFFFFFFFFFFFFFF AND PUSH20 0xFFFFFFFFFFFFFFFFFFFFFFFFFFFFFFFFFFFFFFFF AND PUSH2 0x8FC SELFBALANCE SWAP1 DUP2 ISZERO MUL SWAP1 PUSH1 0x40 MLOAD PUSH0 PUSH1 0x40 MLOAD DUP1 DUP4 SUB DUP2 DUP6 DUP9 DUP9 CALL SWAP4 POP POP POP POP ISZERO DUP1 ISZERO PUSH2 0x295 JUMPI RETURNDATASIZE PUSH0 DUP1 RETURNDATACOPY RETURNDATASIZE PUSH0 REVERT JUMPDEST POP JUMP JUMPDEST PUSH0 DUP1 PUSH1 0x60 PUSH0 PUSH1 0x1 DUP6 DUP2 SLOAD DUP2 LT PUSH2 0x2B1 JUMPI PUSH2 0x2B0 PUSH2 0x97D JUMP JUMPDEST JUMPDEST SWAP1 PUSH0 MSTORE PUSH1 0x20 PUSH0 KECCAK256 SWAP1 PUSH1 0x3 MUL ADD PUSH1 0x40 MLOAD DUP1 PUSH1 0x60 ADD PUSH1 0x40 MSTORE SWAP1 DUP2 PUSH0 DUP3 ADD PUSH0 SWAP1 SLOAD SWAP1 PUSH2 0x100 EXP SWAP1 DIV PUSH20 0xFFFFFFFFFFFFFFFFFFFFFFFFFFFFFFFFFFFFFFFF AND PUSH20 0xFFFFFFFFFFFFFFFFFFFFFFFFFFFFFFFFFFFFFFFF AND PUSH20 0xFFFFFFFFFFFFFFFFFFFFFFFFFFFFFFFFFFFFFFFF AND DUP2 MSTORE PUSH1 0x20 ADD PUSH1 0x1 DUP3 ADD SLOAD DUP2 MSTORE PUSH1 0x20 ADD PUSH1 0x2 DUP3 ADD DUP1 SLOAD PUSH2 0x336 SWAP1 PUSH2 0x9D7 JUMP JUMPDEST DUP1 PUSH1 0x1F ADD PUSH1 0x20 DUP1 SWAP2 DIV MUL PUSH1 0x20 ADD PUSH1 0x40 MLOAD SWAP1 DUP2 ADD PUSH1 0x40 MSTORE DUP1 SWAP3 SWAP2 SWAP1 DUP2 DUP2 MSTORE PUSH1 0x20 ADD DUP3 DUP1 SLOAD PUSH2 0x362 SWAP1 PUSH2 0x9D7 JUMP JUMPDEST DUP1 ISZERO PUSH2 0x3AD JUMPI DUP1 PUSH1 0x1F LT PUSH2 0x384 JUMPI PUSH2 0x100 DUP1 DUP4 SLOAD DIV MUL DUP4 MSTORE SWAP2 PUSH1 0x20 ADD SWAP2 PUSH2 0x3AD JUMP JUMPDEST DUP3 ADD SWAP2 SWAP1 PUSH0 MSTORE PUSH1 0x20 PUSH0 KECCAK256 SWAP1 JUMPDEST DUP2 SLOAD DUP2 MSTORE SWAP1 PUSH1 0x1 ADD SWAP1 PUSH1 0x20 ADD DUP1 DUP4 GT PUSH2 0x390 JUMPI DUP3 SWAP1 SUB PUSH1 0x1F AND DUP3 ADD SWAP2 JUMPDEST POP POP POP POP POP DUP2 MSTORE POP POP SWAP1 POP DUP1 PUSH0 ADD MLOAD DUP2 PUSH1 0x20 ADD MLOAD DUP3 PUSH1 0x40 ADD MLOAD SWAP4 POP SWAP4 POP SWAP4 POP POP SWAP2 SWAP4 SWAP1 SWAP3 POP JUMP JUMPDEST PUSH0 CALLVALUE GT PUSH2 0x416 JUMPI PUSH1 0x40 MLOAD PUSH32 0x8C379A000000000000000000000000000000000000000000000000000000000 DUP2 MSTORE PUSH1 0x4 ADD PUSH2 0x40D SWAP1 PUSH2 0xA51 JUMP JUMPDEST PUSH1 0x40 MLOAD DUP1 SWAP2 SUB SWAP1 REVERT JUMPDEST PUSH1 0x1 PUSH1 0x40 MLOAD DUP1 PUSH1 0x60 ADD PUSH1 0x40 MSTORE DUP1 CALLER PUSH20 0xFFFFFFFFFFFFFFFFFFFFFFFFFFFFFFFFFFFFFFFF AND DUP2 MSTORE PUSH1 0x20 ADD CALLVALUE DUP2 MSTORE PUSH1 0x20 ADD DUP4 DUP2 MSTORE POP SWAP1 DUP1 PUSH1 0x1 DUP2 SLOAD ADD DUP1 DUP3 SSTORE DUP1 SWAP2 POP POP PUSH1 0x1 SWAP1 SUB SWAP1 PUSH0 MSTORE PUSH1 0x20 PUSH0 KECCAK256 SWAP1 PUSH1 0x3 MUL ADD PUSH0 SWAP1 SWAP2 SWAP1 SWAP2 SWAP1 SWAP2 POP PUSH0 DUP3 ADD MLOAD DUP2 PUSH0 ADD PUSH0 PUSH2 0x100 EXP DUP2 SLOAD DUP2 PUSH20 0xFFFFFFFFFFFFFFFFFFFFFFFFFFFFFFFFFFFFFFFF MUL NOT AND SWAP1 DUP4 PUSH20 0xFFFFFFFFFFFFFFFFFFFFFFFFFFFFFFFFFFFFFFFF AND MUL OR SWAP1 SSTORE POP PUSH1 0x20 DUP3 ADD MLOAD DUP2 PUSH1 0x1 ADD SSTORE PUSH1 0x40 DUP3 ADD MLOAD DUP2 PUSH1 0x2 ADD SWAP1 DUP2 PUSH2 0x4D2 SWAP2 SWAP1 PUSH2 0xC0C JUMP JUMPDEST POP POP POP POP JUMP JUMPDEST PUSH0 DUP1 SLOAD SWAP1 PUSH2 0x100 EXP SWAP1 DIV PUSH20 0xFFFFFFFFFFFFFFFFFFFFFFFFFFFFFFFFFFFFFFFF AND DUP2 JUMP JUMPDEST PUSH0 PUSH1 0x1 DUP1 SLOAD SWAP1 POP SWAP1 POP SWAP1 JUMP JUMPDEST PUSH1 0x1 DUP2 DUP2 SLOAD DUP2 LT PUSH2 0x516 JUMPI PUSH0 DUP1 REVERT JUMPDEST SWAP1 PUSH0 MSTORE PUSH1 0x20 PUSH0 KECCAK256 SWAP1 PUSH1 0x3 MUL ADD PUSH0 SWAP2 POP SWAP1 POP DUP1 PUSH0 ADD PUSH0 SWAP1 SLOAD SWAP1 PUSH2 0x100 EXP SWAP1 DIV PUSH20 0xFFFFFFFFFFFFFFFFFFFFFFFFFFFFFFFFFFFFFFFF AND SWAP1 DUP1 PUSH1 0x1 ADD SLOAD SWAP1 DUP1 PUSH1 0x2 ADD DUP1 SLOAD PUSH2 0x560 SWAP1 PUSH2 0x9D7 JUMP JUMPDEST DUP1 PUSH1 0x1F ADD PUSH1 0x20 DUP1 SWAP2 DIV MUL PUSH1 0x20 ADD PUSH1 0x40 MLOAD SWAP1 DUP2 ADD PUSH1 0x40 MSTORE DUP1 SWAP3 SWAP2 SWAP1 DUP2 DUP2 MSTORE PUSH1 0x20 ADD DUP3 DUP1 SLOAD PUSH2 0x58C SWAP1 PUSH2 0x9D7 JUMP JUMPDEST DUP1 ISZERO PUSH2 0x5D7 JUMPI DUP1 PUSH1 0x1F LT PUSH2 0x5AE JUMPI PUSH2 0x100 DUP1 DUP4 SLOAD DIV MUL DUP4 MSTORE SWAP2 PUSH1 0x20 ADD SWAP2 PUSH2 0x5D7 JUMP JUMPDEST DUP3 ADD SWAP2 SWAP1 PUSH0 MSTORE PUSH1 0x20 PUSH0 KECCAK256 SWAP1 JUMPDEST DUP2 SLOAD DUP2 MSTORE SWAP1 PUSH1 0x1 ADD SWAP1 PUSH1 0x20 ADD DUP1 DUP4 GT PUSH2 0x5BA JUMPI DUP3 SWAP1 SUB PUSH1 0x1F AND DUP3 ADD SWAP2 JUMPDEST POP POP POP POP POP SWAP1 POP DUP4 JUMP JUMPDEST PUSH0 DUP2 SWAP1 POP SWAP2 SWAP1 POP JUMP JUMPDEST PUSH2 0x5F3 DUP2 PUSH2 0x5E1 JUMP JUMPDEST DUP3 MSTORE POP POP JUMP JUMPDEST PUSH0 PUSH1 0x20 DUP3 ADD SWAP1 POP PUSH2 0x60C PUSH0 DUP4 ADD DUP5 PUSH2 0x5EA JUMP JUMPDEST SWAP3 SWAP2 POP POP JUMP JUMPDEST PUSH0 PUSH1 0x40 MLOAD SWAP1 POP SWAP1 JUMP JUMPDEST PUSH0 DUP1 REVERT JUMPDEST PUSH0 DUP1 REVERT JUMPDEST PUSH2 0x62C DUP2 PUSH2 0x5E1 JUMP JUMPDEST DUP2 EQ PUSH2 0x636 JUMPI PUSH0 DUP1 REVERT JUMPDEST POP JUMP JUMPDEST PUSH0 DUP2 CALLDATALOAD SWAP1 POP PUSH2 0x647 DUP2 PUSH2 0x623 JUMP JUMPDEST SWAP3 SWAP2 POP POP JUMP JUMPDEST PUSH0 PUSH1 0x20 DUP3 DUP5 SUB SLT ISZERO PUSH2 0x662 JUMPI PUSH2 0x661 PUSH2 0x61B JUMP JUMPDEST JUMPDEST PUSH0 PUSH2 0x66F DUP5 DUP3 DUP6 ADD PUSH2 0x639 JUMP JUMPDEST SWAP2 POP POP SWAP3 SWAP2 POP POP JUMP JUMPDEST PUSH0 PUSH20 0xFFFFFFFFFFFFFFFFFFFFFFFFFFFFFFFFFFFFFFFF DUP3 AND SWAP1 POP SWAP2 SWAP1 POP JUMP JUMPDEST PUSH0 PUSH2 0x6A1 DUP3 PUSH2 0x678 JUMP JUMPDEST SWAP1 POP SWAP2 SWAP1 POP JUMP JUMPDEST PUSH2 0x6B1 DUP2 PUSH2 0x697 JUMP JUMPDEST DUP3 MSTORE POP POP JUMP JUMPDEST PUSH0 DUP2 MLOAD SWAP1 POP SWAP2 SWAP1 POP JUMP JUMPDEST PUSH0 DUP3 DUP3 MSTORE PUSH1 0x20 DUP3 ADD SWAP1 POP SWAP3 SWAP2 POP POP JUMP JUMPDEST DUP3 DUP2 DUP4 MCOPY PUSH0 DUP4 DUP4 ADD MSTORE POP POP POP JUMP JUMPDEST PUSH0 PUSH1 0x1F NOT PUSH1 0x1F DUP4 ADD AND SWAP1 POP SWAP2 SWAP1 POP JUMP JUMPDEST PUSH0 PUSH2 0x6F9 DUP3 PUSH2 0x6B7 JUMP JUMPDEST PUSH2 0x703 DUP2 DUP6 PUSH2 0x6C1 JUMP JUMPDEST SWAP4 POP PUSH2 0x713 DUP2 DUP6 PUSH1 0x20 DUP7 ADD PUSH2 0x6D1 JUMP JUMPDEST PUSH2 0x71C DUP2 PUSH2 0x6DF JUMP JUMPDEST DUP5 ADD SWAP2 POP POP SWAP3 SWAP2 POP POP JUMP JUMPDEST PUSH0 PUSH1 0x60 DUP3 ADD SWAP1 POP PUSH2 0x73A PUSH0 DUP4 ADD DUP7 PUSH2 0x6A8 JUMP JUMPDEST PUSH2 0x747 PUSH1 0x20 DUP4 ADD DUP6 PUSH2 0x5EA JUMP JUMPDEST DUP2 DUP2 SUB PUSH1 0x40 DUP4 ADD MSTORE PUSH2 0x759 DUP2 DUP5 PUSH2 0x6EF JUMP JUMPDEST SWAP1 POP SWAP5 SWAP4 POP POP POP POP JUMP JUMPDEST PUSH0 DUP1 REVERT JUMPDEST PUSH0 DUP1 REVERT JUMPDEST PUSH32 0x4E487B7100000000000000000000000000000000000000000000000000000000 PUSH0 MSTORE PUSH1 0x41 PUSH1 0x4 MSTORE PUSH1 0x24 PUSH0 REVERT JUMPDEST PUSH2 0x7A1 DUP3 PUSH2 0x6DF JUMP JUMPDEST DUP2 ADD DUP2 DUP2 LT PUSH8 0xFFFFFFFFFFFFFFFF DUP3 GT OR ISZERO PUSH2 0x7C0 JUMPI PUSH2 0x7BF PUSH2 0x76B JUMP JUMPDEST JUMPDEST DUP1 PUSH1 0x40 MSTORE POP POP POP JUMP JUMPDEST PUSH0 PUSH2 0x7D2 PUSH2 0x612 JUMP JUMPDEST SWAP1 POP PUSH2 0x7DE DUP3 DUP3 PUSH2 0x798 JUMP JUMPDEST SWAP2 SWAP1 POP JUMP JUMPDEST PUSH0 PUSH8 0xFFFFFFFFFFFFFFFF DUP3 GT ISZERO PUSH2 0x7FD JUMPI PUSH2 0x7FC PUSH2 0x76B JUMP JUMPDEST JUMPDEST PUSH2 0x806 DUP3 PUSH2 0x6DF JUMP JUMPDEST SWAP1 POP PUSH1 0x20 DUP2 ADD SWAP1 POP SWAP2 SWAP1 POP JUMP JUMPDEST DUP3 DUP2 DUP4 CALLDATACOPY PUSH0 DUP4 DUP4 ADD MSTORE POP POP POP JUMP JUMPDEST PUSH0 PUSH2 0x833 PUSH2 0x82E DUP5 PUSH2 0x7E3 JUMP JUMPDEST PUSH2 0x7C9 JUMP JUMPDEST SWAP1 POP DUP3 DUP2 MSTORE PUSH1 0x20 DUP2 ADD DUP5 DUP5 DUP5 ADD GT ISZERO PUSH2 0x84F JUMPI PUSH2 0x84E PUSH2 0x767 JUMP JUMPDEST JUMPDEST PUSH2 0x85A DUP5 DUP3 DUP6 PUSH2 0x813 JUMP JUMPDEST POP SWAP4 SWAP3 POP POP POP JUMP JUMPDEST PUSH0 DUP3 PUSH1 0x1F DUP4 ADD SLT PUSH2 0x876 JUMPI PUSH2 0x875 PUSH2 0x763 JUMP JUMPDEST JUMPDEST DUP2 CALLDATALOAD PUSH2 0x886 DUP5 DUP3 PUSH1 0x20 DUP7 ADD PUSH2 0x821 JUMP JUMPDEST SWAP2 POP POP SWAP3 SWAP2 POP POP JUMP JUMPDEST PUSH0 PUSH1 0x20 DUP3 DUP5 SUB SLT ISZERO PUSH2 0x8A4 JUMPI PUSH2 0x8A3 PUSH2 0x61B JUMP JUMPDEST JUMPDEST PUSH0 DUP3 ADD CALLDATALOAD PUSH8 0xFFFFFFFFFFFFFFFF DUP2 GT ISZERO PUSH2 0x8C1 JUMPI PUSH2 0x8C0 PUSH2 0x61F JUMP JUMPDEST JUMPDEST PUSH2 0x8CD DUP5 DUP3 DUP6 ADD PUSH2 0x862 JUMP JUMPDEST SWAP2 POP POP SWAP3 SWAP2 POP POP JUMP JUMPDEST PUSH0 PUSH1 0x20 DUP3 ADD SWAP1 POP PUSH2 0x8E9 PUSH0 DUP4 ADD DUP5 PUSH2 0x6A8 JUMP JUMPDEST SWAP3 SWAP2 POP POP JUMP JUMPDEST PUSH32 0x536F6C6F20656C2070726F706965746172696F20707565646520726574697261 PUSH0 DUP3 ADD MSTORE PUSH32 0x7200000000000000000000000000000000000000000000000000000000000000 PUSH1 0x20 DUP3 ADD MSTORE POP JUMP JUMPDEST PUSH0 PUSH2 0x949 PUSH1 0x21 DUP4 PUSH2 0x6C1 JUMP JUMPDEST SWAP2 POP PUSH2 0x954 DUP3 PUSH2 0x8EF JUMP JUMPDEST PUSH1 0x40 DUP3 ADD SWAP1 POP SWAP2 SWAP1 POP JUMP JUMPDEST PUSH0 PUSH1 0x20 DUP3 ADD SWAP1 POP DUP2 DUP2 SUB PUSH0 DUP4 ADD MSTORE PUSH2 0x976 DUP2 PUSH2 0x93D JUMP JUMPDEST SWAP1 POP SWAP2 SWAP1 POP JUMP JUMPDEST PUSH32 0x4E487B7100000000000000000000000000000000000000000000000000000000 PUSH0 MSTORE PUSH1 0x32 PUSH1 0x4 MSTORE PUSH1 0x24 PUSH0 REVERT JUMPDEST PUSH32 0x4E487B7100000000000000000000000000000000000000000000000000000000 PUSH0 MSTORE PUSH1 0x22 PUSH1 0x4 MSTORE PUSH1 0x24 PUSH0 REVERT JUMPDEST PUSH0 PUSH1 0x2 DUP3 DIV SWAP1 POP PUSH1 0x1 DUP3 AND DUP1 PUSH2 0x9EE JUMPI PUSH1 0x7F DUP3 AND SWAP2 POP JUMPDEST PUSH1 0x20 DUP3 LT DUP2 SUB PUSH2 0xA01 JUMPI PUSH2 0xA00 PUSH2 0x9AA JUMP JUMPDEST JUMPDEST POP SWAP2 SWAP1 POP JUMP JUMPDEST PUSH32 0x4C612070726F70696E61206465626520736572206D61796F7220612030000000 PUSH0 DUP3 ADD MSTORE POP JUMP JUMPDEST PUSH0 PUSH2 0xA3B PUSH1 0x1D DUP4 PUSH2 0x6C1 JUMP JUMPDEST SWAP2 POP PUSH2 0xA46 DUP3 PUSH2 0xA07 JUMP JUMPDEST PUSH1 0x20 DUP3 ADD SWAP1 POP SWAP2 SWAP1 POP JUMP JUMPDEST PUSH0 PUSH1 0x20 DUP3 ADD SWAP1 POP DUP2 DUP2 SUB PUSH0 DUP4 ADD MSTORE PUSH2 0xA68 DUP2 PUSH2 0xA2F JUMP JUMPDEST SWAP1 POP SWAP2 SWAP1 POP JUMP JUMPDEST PUSH0 DUP2 SWAP1 POP DUP2 PUSH0 MSTORE PUSH1 0x20 PUSH0 KECCAK256 SWAP1 POP SWAP2 SWAP1 POP JUMP JUMPDEST PUSH0 PUSH1 0x20 PUSH1 0x1F DUP4 ADD DIV SWAP1 POP SWAP2 SWAP1 POP JUMP JUMPDEST PUSH0 DUP3 DUP3 SHL SWAP1 POP SWAP3 SWAP2 POP POP JUMP JUMPDEST PUSH0 PUSH1 0x8 DUP4 MUL PUSH2 0xACB PUSH32 0xFFFFFFFFFFFFFFFFFFFFFFFFFFFFFFFFFFFFFFFFFFFFFFFFFFFFFFFFFFFFFFFF DUP3 PUSH2 0xA90 JUMP JUMPDEST PUSH2 0xAD5 DUP7 DUP4 PUSH2 0xA90 JUMP JUMPDEST SWAP6 POP DUP1 NOT DUP5 AND SWAP4 POP DUP1 DUP7 AND DUP5 OR SWAP3 POP POP POP SWAP4 SWAP3 POP POP POP JUMP JUMPDEST PUSH0 DUP2 SWAP1 POP SWAP2 SWAP1 POP JUMP JUMPDEST PUSH0 PUSH2 0xB10 PUSH2 0xB0B PUSH2 0xB06 DUP5 PUSH2 0x5E1 JUMP JUMPDEST PUSH2 0xAED JUMP JUMPDEST PUSH2 0x5E1 JUMP JUMPDEST SWAP1 POP SWAP2 SWAP1 POP JUMP JUMPDEST PUSH0 DUP2 SWAP1 POP SWAP2 SWAP1 POP JUMP JUMPDEST PUSH2 0xB29 DUP4 PUSH2 0xAF6 JUMP JUMPDEST PUSH2 0xB3D PUSH2 0xB35 DUP3 PUSH2 0xB17 JUMP JUMPDEST DUP5 DUP5 SLOAD PUSH2 0xA9C JUMP JUMPDEST DUP3 SSTORE POP POP POP POP JUMP JUMPDEST PUSH0 SWAP1 JUMP JUMPDEST PUSH2 0xB51 PUSH2 0xB45 JUMP JUMPDEST PUSH2 0xB5C DUP2 DUP5 DUP5 PUSH2 0xB20 JUMP JUMPDEST POP POP POP JUMP JUMPDEST JUMPDEST DUP2 DUP2 LT ISZERO PUSH2 0xB7F JUMPI PUSH2 0xB74 PUSH0 DUP3 PUSH2 0xB49 JUMP JUMPDEST PUSH1 0x1 DUP2 ADD SWAP1 POP PUSH2 0xB62 JUMP JUMPDEST POP POP JUMP JUMPDEST PUSH1 0x1F DUP3 GT ISZERO PUSH2 0xBC4 JUMPI PUSH2 0xB95 DUP2 PUSH2 0xA6F JUMP JUMPDEST PUSH2 0xB9E DUP5 PUSH2 0xA81 JUMP JUMPDEST DUP2 ADD PUSH1 0x20 DUP6 LT ISZERO PUSH2 0xBAD JUMPI DUP2 SWAP1 POP JUMPDEST PUSH2 0xBC1 PUSH2 0xBB9 DUP6 PUSH2 0xA81 JUMP JUMPDEST DUP4 ADD DUP3 PUSH2 0xB61 JUMP JUMPDEST POP POP JUMPDEST POP POP POP JUMP JUMPDEST PUSH0 DUP3 DUP3 SHR SWAP1 POP SWAP3 SWAP2 POP POP JUMP JUMPDEST PUSH0 PUSH2 0xBE4 PUSH0 NOT DUP5 PUSH1 0x8 MUL PUSH2 0xBC9 JUMP JUMPDEST NOT DUP1 DUP4 AND SWAP2 POP POP SWAP3 SWAP2 POP POP JUMP JUMPDEST PUSH0 PUSH2 0xBFC DUP4 DUP4 PUSH2 0xBD5 JUMP JUMPDEST SWAP2 POP DUP3 PUSH1 0x2 MUL DUP3 OR SWAP1 POP SWAP3 SWAP2 POP POP JUMP JUMPDEST PUSH2 0xC15 DUP3 PUSH2 0x6B7 JUMP JUMPDEST PUSH8 0xFFFFFFFFFFFFFFFF DUP2 GT ISZERO PUSH2 0xC2E JUMPI PUSH2 0xC2D PUSH2 0x76B JUMP JUMPDEST JUMPDEST PUSH2 0xC38 DUP3 SLOAD PUSH2 0x9D7 JUMP JUMPDEST PUSH2 0xC43 DUP3 DUP3 DUP6 PUSH2 0xB83 JUMP JUMPDEST PUSH0 PUSH1 0x20 SWAP1 POP PUSH1 0x1F DUP4 GT PUSH1 0x1 DUP2 EQ PUSH2 0xC74 JUMPI PUSH0 DUP5 ISZERO PUSH2 0xC62 JUMPI DUP3 DUP8 ADD MLOAD SWAP1 POP JUMPDEST PUSH2 0xC6C DUP6 DUP3 PUSH2 0xBF1 JUMP JUMPDEST DUP7 SSTORE POP PUSH2 0xCD3 JUMP JUMPDEST PUSH1 0x1F NOT DUP5 AND PUSH2 0xC82 DUP7 PUSH2 0xA6F JUMP JUMPDEST PUSH0 JUMPDEST DUP3 DUP2 LT ISZERO PUSH2 0xCA9 JUMPI DUP5 DUP10 ADD MLOAD DUP3 SSTORE PUSH1 0x1 DUP3 ADD SWAP2 POP PUSH1 0x20 DUP6 ADD SWAP5 POP PUSH1 0x20 DUP2 ADD SWAP1 POP PUSH2 0xC84 JUMP JUMPDEST DUP7 DUP4 LT ISZERO PUSH2 0xCC6 JUMPI DUP5 DUP10 ADD MLOAD PUSH2 0xCC2 PUSH1 0x1F DUP10 AND DUP3 PUSH2 0xBD5 JUMP JUMPDEST DUP4 SSTORE POP JUMPDEST PUSH1 0x1 PUSH1 0x2 DUP9 MUL ADD DUP9 SSTORE POP POP POP JUMPDEST POP POP POP POP POP POP JUMP INVALID LOG2 PUSH5 0x6970667358 0x22 SLT KECCAK256 SDIV DUP11 DUP2 0xE3 PUSH17 0xB371991E2A4328F8E8A2A8A219B0089CDA ORIGIN 0xEB PUSH17 0x894DCA3DD76C9664736F6C634300081A00 CALLER "
				},
				"gasEstimates": {
					"creation": {
						"codeDepositCost": "669000",
						"executionCost": "24965",
						"totalCost": "693965"
					},
					"external": {
						"getBalance()": "335",
						"getTip(uint256)": "infinite",
						"getTipsCount()": "2484",
						"owner()": "2527",
						"sendTip(string)": "infinite",
						"tips(uint256)": "infinite",
						"withdraw()": "infinite"
					}
				},
				"methodIdentifiers": {
					"getBalance()": "12065fe0",
					"getTip(uint256)": "5b703f5c",
					"getTipsCount()": "a12247b0",
					"owner()": "8da5cb5b",
					"sendTip(string)": "7f5154b4",
					"tips(uint256)": "a5c68c59",
					"withdraw()": "3ccfd60b"
				}
			},
			"storageLayout": {
				"storage": [
					{
						"astId": 3,
						"contract": "contracts/TipJarWithMessages.sol:TipJarWithMessages",
						"label": "owner",
						"offset": 0,
						"slot": "0",
						"type": "t_address"
					},
					{
						"astId": 14,
						"contract": "contracts/TipJarWithMessages.sol:TipJarWithMessages",
						"label": "tips",
						"offset": 0,
						"slot": "1",
						"type": "t_array(t_struct(Tip)10_storage)dyn_storage"
					}
				],
				"types": {
					"t_address": {
						"encoding": "inplace",
						"label": "address",
						"numberOfBytes": "20"
					},
					"t_array(t_struct(Tip)10_storage)dyn_storage": {
						"base": "t_struct(Tip)10_storage",
						"encoding": "dynamic_array",
						"label": "struct TipJarWithMessages.Tip[]",
						"numberOfBytes": "32"
					},
					"t_string_storage": {
						"encoding": "bytes",
						"label": "string",
						"numberOfBytes": "32"
					},
					"t_struct(Tip)10_storage": {
						"encoding": "inplace",
						"label": "struct TipJarWithMessages.Tip",
						"members": [
							{
								"astId": 5,
								"contract": "contracts/TipJarWithMessages.sol:TipJarWithMessages",
								"label": "sender",
								"offset": 0,
								"slot": "0",
								"type": "t_address"
							},
							{
								"astId": 7,
								"contract": "contracts/TipJarWithMessages.sol:TipJarWithMessages",
								"label": "amount",
								"offset": 0,
								"slot": "1",
								"type": "t_uint256"
							},
							{
								"astId": 9,
								"contract": "contracts/TipJarWithMessages.sol:TipJarWithMessages",
								"label": "message",
								"offset": 0,
								"slot": "2",
								"type": "t_string_storage"
							}
						],
						"numberOfBytes": "96"
					},
					"t_uint256": {
						"encoding": "inplace",
						"label": "uint256",
						"numberOfBytes": "32"
					}
				}
			},
			"userdoc": {
				"kind": "user",
				"methods": {},
				"version": 1
			}
		}
	}
}